:100000000C9432000C944F000C944F000C94120B83
:100010000C944F000C94540D0C944F000C944F0012
:100020000C944F000C94650B0C944F000C94060C30
:100030000C944F000C944F000C944F000C944F0004
:100040000C944F000C944F000C944F000C944F00F4
:100050000C944F00150190009600EE00F600000190
:100060000A01120111241FBECFE5D8E0DEBFCDBFCB
:1000700011E0A0E6B0E0EAEAF0E202C005900D92DD
:10008000AC30B107D9F721E0ACE0B1E001C01D927E
:10009000AF32B207E1F70E9408060C9453100C949B
:1000A00000000E94B7050E9492040E94710580E042
:1000B0000E942A0C0E949F0281E690E00E94B004F8
:1000C0000895CF92DF92EF92FF920E94C602809332
:1000D0000D01813049F490910C01911105C080937C
:1000E000160180930C010FC0823021F487E08093C9
:1000F000160109C0813039F480910C01813019F466
:1001000082E080931601E09116018E2F90E08830F6
:10011000910508F08CC0FC01E65DFF4F0C9439108E
:100120000E941C0182E08093160181C080E191E071
:100130000E94BE05C0901001D0901101E090120104
:10014000F090130120E030E04CE852E4C701B60122
:100150000E94B30F181624F483E08093160167C041
:1001600020E030E04CE852E4C701B6010E94130ED3
:10017000181674F020E030E040EF51E4C701B601FA
:100180000E94B30F181624F484E0809316014FC028
:1001900020E030E040EF51E4C701B6010E94130EA9
:1001A000181674F020E030E040EA51E4C701B601CF
:1001B0000E94B30F181624F485E08093160137C00F
:1001C00020E030E040EA51E4C701B6010E94130E7E
:1001D00088236CF586E08093160129C010920E01E9
:1001E0000E94E20182E08093160121C010920F016B
:1001F00010920E010E94140282E08093160117C033
:1002000010920F0110920E010E94280282E080934A
:1002100016010DC010920F010E94530282E08093DC
:10022000160105C00E94830202C00E948E02FF9048
:10023000EF90DF90CF9008950E941E0460E080E070
:100240000E94100485E790E00E94FD0360E081E0D9
:100250000E94100483E890E00E94FD0388E893E187
:100260000E94AE0C31C064E171E080E00E9476052E
:1002700080911401813041F505C064E171E080E0B6
:100280000E947605809114018130B9F380911501A7
:1002900081110DC081E0809315011092600060E033
:1002A0000E94100489E890E00E94FD030DC0813097
:1002B00059F4109215018093600060E00E941004D0
:1002C0008FE890E00E94FD0380912D01813059F666
:1002D00010922D0180ED97E00E94AE0C80912D01CF
:1002E0008130E1F70E941E0410922D010895CF92F3
:1002F000DF92EF92FF92CF93DF93D82FC62F690141
:100300007A0160E080E00E94100486E990E00E949B
:10031000FD0367E080E00E941004D11105C082EA6D
:1003200090E00E94FD030BC0D13029F487EA90E0F1
:100330000E94FD0304C08CEA90E00E94FD036BE084
:1003400080E00E94100481EB90E00E94FD036FE0CA
:1003500080E00E941004C11105C086EB90E00E946D
:10036000FD0312C0C13029F488EB90E00E94FD0328
:100370000BC0C23029F48AEB90E00E94FD0304C058
:100380008CEB90E00E94FD0360E081E00E9410048D
:100390008EEB90E00E94FD0365E081E00E94100476
:1003A000C701B6010E948A0ECB010E94280484EC8A
:1003B00090E00E94FD03DF91CF91FF90EF90DF90DE
:1003C000CF900895CF9380910F0181110FC0C1E0AC
:1003D000C0930F018EE10E943705C093180110925F
:1003E000170188E893E10E94AE0C0EC0813061F4E1
:1003F00080912D01813041F482E30E94370582E033
:100400008093180110922D0120911001309111015B
:1004100040911201509113016091170180911801D0
:100420000E947701CF9108958EE10E94370581E007
:100430008093180110921701209110013091110141
:10044000409112015091130160E00E9477010895DC
:100450000E94ED0420911001309111014091120190
:100460005091130163E080E00E94770188EE93E0F1
:100470000E94AE0C80912D018823E1F310922D0192
:1004800020911001309111014091120150911301FE
:1004900062E082E00E94770162E370E08091600098
:1004A0000E940105089580910E0181111CC00E94D7
:1004B000ED042091100130911101409112015091F1
:1004C000130163E080E00E94770188EE93E00E94D0
:1004D000AE0C80912D018823E1F310922D0181E073
:1004E00080930E01089520911001309111014091E7
:1004F00012015091130161E081E00E9477018EE1C9
:100500000E94540508950E94ED0460E080E00E947E
:10051000100488EC90E00E94FD03089560E080E004
:100520000E94100485ED90E00E94FD0360E081E0F0
:100530000E94100481EE90E00E94FD030895CF9385
:10054000C0E00EC08C2F90E09C01220F331F220FC1
:10055000331F820F931F8C509F4F0E94E606CF5F80
:10056000CC2381F3C0E00EC08C2F90E09C01220FC1
:10057000331F220F331F820F931F86519F4F0E94FC
:10058000E606CF5FC23080F3CF910895CF92DF921D
:10059000EF92FF920F931F93CF93DF931F92CDB7EC
:1005A000DEB781E0898300E057C0E02EF12CF7012F
:1005B000EE0FFF1FEE0FFF1FEE0DFF1DE651FF4F69
:1005C00041E0638582E00E940D0610E034C0C12E38
:1005D000D12CF601EE0FFF1FEE0FFF1FEC0DFD1DDE
:1005E000E651FF4FAE014F5F5F4F618182E00E9495
:1005F0007E06898181111EC010C0F601EE0FFF1F1B
:10060000EE0FFF1FEC0DFD1DE651FF4FAE014F5FDA
:100610005F4F618182E00E947E068981882369F3B1
:10062000C701880F991F86519F4FFC01EC0DFD1DDE
:10063000878516C01F5F123050F2F701EE0FFF1FC3
:10064000EE0FFF1FEE0DFF1DE651FF4F40E06385EB
:1006500082E00E940D060F5F002309F4A6CF80E020
:100660000F90DF91CF911F910F91FF90EF90DF904E
:10067000CF900895CF93C82F60E081E00E94500989
:100680006C2F661F6627661F87E00E945009C6FB15
:10069000662760F986E00E945009C5FB662760F96D
:1006A00085E00E945009C4FB662760F984E00E943F
:1006B000500961E083E00E94500989EF90E00197C2
:1006C000F1F700C0000060E083E00E94500989EF6C
:1006D00090E00197F1F700C00000C3FB662760F9C6
:1006E00087E00E945009C2FB662760F986E00E94FD
:1006F0005009C1FB662760F985E00E9450096C2F04
:10070000617084E00E94500961E083E00E9450091A
:1007100089EF90E00197F1F700C0000060E083E00E
:100720000E94500989EF90E00197F1F700C00000A6
:10073000CF910895CF93C82F61E081E00E945009C6
:100740006C2F661F6627661F87E00E945009C6FB54
:10075000662760F986E00E945009C5FB662760F9AC
:1007600085E00E945009C4FB662760F984E00E947E
:10077000500961E083E00E94500989EF90E0019701
:10078000F1F700C0000060E083E00E94500989EFAB
:1007900090E00197F1F700C00000C3FB662760F905
:1007A00087E00E945009C2FB662760F986E00E943C
:1007B0005009C1FB662760F985E00E9450096C2F43
:1007C000617084E00E94500961E083E00E9450095A
:1007D00089EF90E00197F1F700C0000060E083E04E
:1007E0000E94500989EF90E00197F1F700C00000E6
:1007F000CF9108950E949A0308950F931F93CF936A
:100800008C01C0E003C00E94FA03CF5FF801EC0F37
:10081000F11D80818111F7CFCF911F910F91089524
:10082000811105C0862F80680E943A0308958130A7
:1008300021F480EC860F0E943A03089581E00E9423
:100840003A0389EF90E00197F1F700C000000895A6
:10085000EF92FF921F93CF93DF93CDB7DEB72A9726
:100860000FB6F894DEBF0FBECDBF7C01009721F418
:1008700080E30E94FA032DC0992334F4F194E194AB
:10088000F1088DE20E94FA0310E010C0C7016AE08F
:1008900070E00E942510E1E0F0E0EC0FFD1FE10F99
:1008A000F11D805D80831F5FE62EF72EE114F104B9
:1008B00069F70DC0E12FF0E0319781E090E08C0FF7
:1008C0009D1FE80FF91F80810E94FA03115011113A
:1008D000F1CF2A960FB6F894DEBF0FBECDBFDF91E1
:1008E000CF911F91FF90EF90089560E081E00E940A
:1008F000530860E083E00E94530860E082E00E94B9
:10090000530860E084E00E94530860E085E00E94A4
:10091000530860E086E00E94530860E087E00E9490
:10092000530808950E94750487EA91E60197F1F74C
:1009300000C0000082E00E943A0388E20E943A036D
:100940008CE00E943A0381E00E943A0389EF90E034
:100950000197F1F700C0000086E00E943A03089575
:10096000EF92FF921F93CF93DF930097B9F481E04A
:100970001BC0C12FD0E0CE01880F991FC80FD91F0F
:10098000CE0DDF1D41E06A8188810E94D70941E0D8
:100990006A8189810E94D7091F5F02C07C0110E033
:1009A000123038F30E94D00BDF91CF911F91FF904E
:1009B000EF900895009779F070E0FB01EE0FFF1FB4
:1009C0006E0F7F1FFC01E60FF71F608182810E947E
:1009D000B20680E0089581E0089541E060E082E0A1
:1009E0000E940D0641E061E082E00E940D060E9437
:1009F000CC0B0895853610F081E008950E94E70B36
:100A0000089581111AC060E081E690E00E94DA0446
:100A100080EA9FE00E94AE0C82E30E94FA0480917B
:100A20002D018823E1F30E94CC0B10922D0160E090
:100A300081E690E00E94DA04089561E081E690E0AA
:100A40000E94DA048CE692E00E94AE0C82E30E94DF
:100A5000FA0480912D018823E1F30E94CC0B1092BF
:100A60002D0161E081E690E00E94DA040895CF93C1
:100A7000DF930E94FA04C1E6D0E0688140E08A81F9
:100A80000E940D06698141E08A810E940D066B81FA
:100A900040E08D810E940D066C8141E08D810E94B5
:100AA0000D06DF91CF910895CF93DF930E94FA0452
:100AB000C1E6D0E0688141E08A810E940D0669812B
:100AC00040E08A810E940D066B8141E08D810E9489
:100AD0000D066C8140E08D810E940D06DF91CF9163
:100AE000089562E084E10E9453080895EF92FF9216
:100AF0000F931F93CF93DF931F92CDB7DEB77B0188
:100B000091E0998390E08C01000F111F000F111FDD
:100B1000000F111F081B190B05501F4FAE014F5F2F
:100B20005F4FF801618180810E947E06F801868115
:100B300081110AC08981811104C081E0F70180839D
:100B40000EC0F70110820BC0813049F489818111F8
:100B500003C0F701108203C081E0F70180830F908A
:100B6000DF91CF911F910F91FF90EF90089587E64D
:100B700090E00E94E6060E947C0B08950F931F935D
:100B8000CF93DF9300D0CDB7DEB78C011A821982E4
:100B900040E063E081E00E940D0683EC99E001975C
:100BA000F1F700C0000041E063E081E00E940D0623
:100BB0000E94FC0A80911B018130E1F7CE01019671
:100BC0000E94570A69817A8180E090E00E94C00EFD
:100BD00029E23CE349EE53E40E94180E20E030E0A5
:100BE00040E051E40E94B80F20E030E040E85FE3CD
:100BF0000E94900DF8016083718382839383109229
:100C00001B010F900F90DF91CF911F910F910895CD
:100C10000E9451000E946100FDCF442319F0413031
:100C2000A9F10895813089F028F08230C9F083302D
:100C300011F108952BB381E090E002C0880F991F55
:100C40006A95E2F7822B8BBB089528B381E090E090
:100C500002C0880F991F6A95E2F7822B88BB08951E
:100C600025B381E090E002C0880F991F6A95E2F7F2
:100C7000822B85BB089522B381E090E002C0880FEB
:100C8000991F6A95E2F7822B82BB0895813091F01B
:100C900028F08230D9F0833029F108952BB381E018
:100CA00090E002C0880F991F6A95E2F78095822331
:100CB0008BBB089528B381E090E002C0880F991F94
:100CC0006A95E2F78095822388BB089525B381E079
:100CD00090E002C0880F991F6A95E2F78095822301
:100CE00085BB089522B381E090E002C0880F991F70
:100CF0006A95E2F78095822382BB0895813089F05E
:100D000028F08230C9F0833011F1089589B390E062
:100D100002C0959587956A95E2F78170FA01808304
:100D2000089586B390E002C0959587956A95E2F79D
:100D30008170FA018083089583B390E002C0959595
:100D400087956A95E2F78170FA018083089580B3F0
:100D500090E002C0959587956A95E2F78170FA0157
:100D600080830895813089F028F08230C9F0833083
:100D700011F108952BB381E090E002C0880F991F14
:100D80006A95E2F782278BBB089528B381E090E053
:100D900002C0880F991F6A95E2F7822788BB0895E1
:100DA00025B381E090E002C0880F991F6A95E2F7B1
:100DB000822785BB089522B381E090E002C0880FAE
:100DC000991F6A95E2F7822782BB0895FC01828110
:100DD0008111B5C08081813099F028F08230E9F02E
:100DE000833041F133C02AB381E090E0018002C03A
:100DF000880F991F0A94E2F7809582238ABB26C048
:100E000027B381E090E0018002C0880F991F0A9407
:100E1000E2F78095822387BB19C024B381E090E07C
:100E2000018002C0880F991F0A94E2F780958223FF
:100E300084BB0CC021B381E090E0018002C0880F28
:100E4000991F0A94E2F78095822381BB83818130C8
:100E5000C9F58081813091F028F08230D9F083305B
:100E600029F108952BB381E090E0018002C0880F42
:100E7000991F0A94E2F7822B8BBB089528B381E077
:100E800090E0018002C0880F991F0A94E2F7822B3C
:100E900088BB089525B381E090E0018002C0880FEF
:100EA000991F0A94E2F7822B85BB089522B381E053
:100EB00090E0018002C0880F991F0A94E2F7822B0C
:100EC00082BB08958081813099F028F08230E9F06A
:100ED000833041F108952BB381E090E0018002C09E
:100EE000880F991F0A94E2F7809582238BBB08959F
:100EF00028B381E090E0018002C0880F991F0A9416
:100F0000E2F78095822388BB089525B381E090E0C5
:100F1000018002C0880F991F0A94E2F7809582230E
:100F200085BB089522B381E090E0018002C0880F64
:100F3000991F0A94E2F78095822382BB089581303D
:100F400009F0B0C08081813091F028F08230D9F072
:100F5000833029F12FC02AB381E090E0018002C0E4
:100F6000880F991F0A94E2F7822B8ABB23C027B30C
:100F700081E090E0018002C0880F991F0A94E2F797
:100F8000822B87BB17C024B381E090E0018002C0B0
:100F9000880F991F0A94E2F7822B84BB0BC021B300
:100FA00081E090E0018002C0880F991F0A94E2F767
:100FB000822B81BB8381811139C08081813091F086
:100FC00028F08230D9F0833029F108952BB381E0E5
:100FD00090E0018002C0880F991F0A94E2F7822BEB
:100FE0008BBB089528B381E090E0018002C0880F98
:100FF000991F0A94E2F7822B88BB089525B381E0FC
:1010000090E0018002C0880F991F0A94E2F7822BBA
:1010100085BB089522B381E090E0018002C0880F73
:10102000991F0A94E2F7822B82BB08958081813058
:1010300099F028F08230E9F0833041F108952BB324
:1010400081E090E0018002C0880F991F0A94E2F7C6
:10105000809582238BBB089528B381E090E00180C6
:1010600002C0880F991F0A94E2F78095822388BBFB
:10107000089525B381E090E0018002C0880F991F98
:101080000A94E2F78095822385BB089522B381E01C
:1010900090E0018002C0880F991F0A94E2F78095C2
:1010A000822382BB0895982F969596959695877082
:1010B000613009F455C020F0623009F4A1C00895F0
:1010C0009130C1F028F0923039F19330B9F10895A0
:1010D0004AB321E030E0B90102C0660F771F8A955C
:1010E000E2F7CB01942F982B9ABB9BB38095892371
:1010F0008BBB089547B321E030E0B90102C0660F11
:10110000771F8A95E2F7CB01942F982B97BB98B362
:101110008095892388BB089544B321E030E0B9016C
:1011200002C0660F771F8A95E2F7CB01942F982BA8
:1011300094BB95B38095892385BB089541B321E085
:1011400030E0B90102C0660F771F8A95E2F7CB0144
:10115000942F982B91BB92B38095892382BB0895DD
:101160009130C1F028F0923039F19330B9F10895FF
:101170004AB321E030E0B90102C0660F771F8A95BB
:10118000E2F7CB018095942F98239ABB9BB38923D8
:101190008BBB089547B321E030E0B90102C0660F70
:1011A000771F8A95E2F7CB018095942F982397BB00
:1011B00098B3892388BB089544B321E030E0B90196
:1011C00002C0660F771F8A95E2F7CB018095942FB6
:1011D000982394BB95B3892385BB089541B321E03F
:1011E00030E0B90102C0660F771F8A95E2F7CB01A4
:1011F0008095942F982391BB92B3892382BB089545
:101200009130C1F028F0923039F19330B9F108955E
:101210004AB321E030E0B90102C0660F771F8A951A
:10122000E2F7CB01962F909594239ABB9BB3892B21
:101230008BBB089547B321E030E0B90102C0660FCF
:10124000771F8A95E2F7CB01962F9095942397BB51
:1012500098B3892B88BB089544B321E030E0B901ED
:1012600002C0660F771F8A95E2F7CB01962F909503
:10127000942394BB95B3892B85BB089541B321E09A
:1012800030E0B90102C0660F771F8A95E2F7CB0103
:10129000962F9095942391BB92B3892B82BB08958E
:1012A000982F9695969596958770662309F43FC07A
:1012B000613009F07BC0913099F028F09230E9F06C
:1012C000933041F108954BB321E030E0B90102C001
:1012D000660F771F8A95E2F7CB01842B8BBB0895AD
:1012E00048B321E030E0B90102C0660F771F8A954C
:1012F000E2F7CB01842B88BB089545B321E030E0B1
:10130000B90102C0660F771F8A95E2F7CB01842BE3
:1013100085BB089542B321E030E0B90102C0660FF9
:10132000771F8A95E2F7CB01842B82BB0895913019
:10133000A1F028F09230F9F0933059F108954BB3B1
:1013400021E030E0B90102C0660F771F8A95E2F70D
:10135000CB01809584238BBB089548B321E030E016
:10136000B90102C0660F771F8A95E2F7CB0180951D
:10137000842388BB089545B321E030E0B90102C061
:10138000660F771F8A95E2F7CB018095842385BB92
:10139000089542B321E030E0B90102C0660F771F23
:1013A0008A95E2F7CB018095842382BB0895411191
:1013B00040C06130A1F028F06230F9F0633059F19B
:1013C00008954AB321E030E0B90102C0660F771FEB
:1013D0008A95E2F7CB01809584238ABB089547B3B1
:1013E00021E030E0B90102C0660F771F8A95E2F76D
:1013F000CB018095842387BB089544B321E030E07E
:10140000B90102C0660F771F8A95E2F7CB0180957C
:10141000842384BB089541B321E030E0B90102C0C8
:10142000660F771F8A95E2F7CB018095842381BBF5
:1014300008954130D9F5613099F028F06230E9F033
:10144000633041F108954AB321E030E0B90102C0B0
:10145000660F771F8A95E2F7CB01842B8ABB08952C
:1014600047B321E030E0B90102C0660F771F8A95CB
:10147000E2F7CB01842B87BB089544B321E030E031
:10148000B90102C0660F771F8A95E2F7CB01842B62
:1014900084BB089541B321E030E0B90102C0660F7A
:1014A000771F8A95E2F7CB01842B81BB08952091A9
:1014B000190130911A01FC013183208308958FB7FF
:1014C00080688FBF8BB780628BBF623019F063304A
:1014D00029F0089584B78F7B84BF089584B7806412
:1014E00084BF0895882319F08130D9F02EC08FB5BC
:1014F0008E7F8FBD8FB58D7F8FBD8EB5877F8EBD63
:101500008EB58F7E8EBD8FB588608FBD8FB58460A0
:101510008FBD8FB780688FBF89B7846089BF80E037
:1015200008958FB58E7F8FBD8FB58D7F8FBD8EB5A2
:10153000877F8EBD8EB58F7E8EBD8FB588608FBD47
:101540008FB584608FBD80E0089581E00895803478
:10155000910529F130F48130910559F00897A1F0F7
:101560003FC0811521E0920729F18115944069F16E
:1015700037C08EB58D7F8EBD8EB58B7F8EBD8EB5FF
:1015800081608EBD80E008958EB58E7F8EBD8EB554
:101590008B7F8EBD8EB582608EBD80E008958EB546
:1015A0008B7F8EBD8EB582608EBD8EB581608EBD07
:1015B00080E008958EB58D7F8EBD8EB58E7F8EBDF9
:1015C0008EB584608EBD80E008958EB58D7F8EBD12
:1015D0008EB584608EBD8EB581608EBD80E008952D
:1015E00081E008958EB58E7F8EBD8EB58D7F8EBDC8
:1015F0008EB58B7F8EBD0895CF93DF93C1E7D0E08A
:101600008B810E94720A0E94F20A698188810E947D
:101610005F0A10922E0181E090E00E94A70ADF91FC
:10162000CF9108951F920F920FB60F9211242F930E
:101630003F934F935F936F937F938F939F93AF935A
:10164000BF93EF93FF938CB59DB590932301809347
:10165000220120912E01211114C090931F0180932B
:101660001E011DBC1CBCE1E7F0E0628180810E948C
:101670005F0A109221011092200181E080932E01D7
:1016800013C090931D0180931C0120912001309183
:101690002101821B930B90931A01809319010E94E0
:1016A000F20A81E080931B01FF91EF91BF91AF910E
:1016B0009F918F917F916F915F914F913F912F916A
:1016C0000F900FBE0F901F9018951F920F920FB69C
:1016D0000F9211248F939F9380912001909121016B
:1016E000019690932101809320019F918F910F90FB
:1016F0000FBE0F901F9018958FB780688FBF089509
:10170000CF93809124018823A1F0C0E02EC0EC2F5C
:10171000F0E0CF01880F991F880F991FE80FF91F7C
:10172000EE5FFE4F41E0618180810E940D06CF5F38
:1017300001C0C0E0C23058F380912501819582BF7D
:1017400081E08093240119C0EC2FF0E0CF01880FD5
:10175000991F880F991FE80FF91FEE5FFE4F40E0B9
:10176000618180810E940D06CF5FC23068F3809155
:101770002601819582BF10922401CF91089583B7ED
:10178000877B83BF89B7816089BF7894089583B7C9
:10179000887F856083BF089583B7887F83BF08955E
:1017A000CF930E94BF0BC0E00EC08C2F90E09C0135
:1017B000220F331F220F331F820F931F8E5F9E4F06
:1017C0000E94E606CF5FC23080F3CF910895CF9399
:1017D000DF93E82FF0E0982FC4E6D0E080E0BE0170
:1017E0000E942510262F60932601CE018E1B9F0B91
:1017F000982F80E0BE010E9425106093250121955D
:1018000022BF0E94C70BDF91CF9108951F920F92C4
:101810000FB60F9211242F933F934F935F936F93C3
:101820007F938F939F93AF93BF93EF93FF930E9408
:10183000800BFF91EF91BF91AF919F918F917F911D
:101840006F915F914F913F912F910F900FBE0F902D
:101850001F901895882319F0813079F016C085B54E
:101860008F7B85BD85B5877F85BD8FB780688FBF2E
:1018700089B7806489BF80E0089585B58F7B85BD79
:1018800085B5877F85BD80E0089581E00895803427
:101890009105C1F150F48830910501F18032910534
:1018A00041F1019709F058C00EC0811521E092075F
:1018B000E9F1811524E0920709F443C080389105CD
:1018C00009F04AC028C085B58D7F85BD85B58B7F61
:1018D00085BD85B5816085BD80E0089585B58E7F25
:1018E00085BD85B58B7F85BD85B5826085BD80E072
:1018F000089585B58B7F85BD85B5826085BD85B52D
:10190000816085BD85B5846085BD85B58D7F85BDCC
:1019100085B58E7F85BD85B58B7F85BD85B58D7F72
:1019200085BD85B5816085BD80E0089585B58260FF
:1019300085BD85B58E7F85BD85B5846085BD80E01C
:10194000089585B5826085BD85B5846085BD85B502
:10195000816085BD80E0089581E00895CF92DF9297
:10196000EF92FF92BC0180E090E00E94C00E20E068
:1019700030E04AE754E40E94180E6B017C0127E333
:1019800037E346E856E40E94B30F18160CF47CC007
:1019900015BC2DEB37E346E85EE3C701B6010E94B4
:1019A000130E8823C4F4A70196016DEB77E386E854
:1019B0009EE30E948F0D2DEB37E346E85AE30E9429
:1019C000180E0E94910E64BD81E090E090932A0170
:1019D000809329014FC02DEB37E346E85EE3C70152
:1019E000B6010E94130E811108C014BC81E090E082
:1019F00090932A01809329013DC02DEB37E346E8FF
:101A00005EE3C701B6010E94180E0E94FC0D0E9401
:101A1000910E70932A016093290180E090E00E946A
:101A2000C00E20E030E040E85FE30E948F0D2DEB18
:101A300037E346E85EE30E94B80F9B01AC01C701A3
:101A4000B6010E948F0D2DEB37E346E85AE30E9462
:101A5000180E9B01AC0160E070E080E893E40E9406
:101A60008F0D0E94910E64BD84B590E09093280183
:101A70008093270110922C0110922B0180E094E0BA
:101A80000E94470C80E001C081E0FF90EF90DF9062
:101A9000CF90089585B58E7F85BD85B58D7F85BD39
:101AA00085B58B7F85BD08951F920F920FB60F925B
:101AB00011242F933F934F935F936F937F938F9353
:101AC0009F93AF93BF93EF93FF9380912B019091DE
:101AD0002C01019690932C0180932B0120912901D8
:101AE00030912A018217930748F010922C0110922E
:101AF0002B0181E080932D010E944A0DFF91EF910F
:101B0000BF91AF919F918F917F916F915F914F9115
:101B10003F912F910F900FBE0F901F901895505826
:101B2000BB27AA270E94A70D0C94610F0E94530F98
:101B300038F00E945A0F20F039F49F3F19F426F430
:101B40000C94500F0EF4E095E7FB0C94210FE92F55
:101B50000E94720F58F3BA1762077307840795073C
:101B600020F079F4A6F50C94AC0F0EF4E0950B2E52
:101B7000BA2FA02D0B01B90190010C01CA01A001DF
:101B80001124FF27591B99F0593F50F4503E68F13A
:101B90001A16F040A22F232F342F4427585FF3CF7B
:101BA000469537952795A795F0405395C9F77EF44C
:101BB0001F16BA0B620B730B840BBAF09150A1F095
:101BC000FF0FBB1F661F771F881FC2F70EC0BA0F1B
:101BD000621F731F841F48F4879577956795B795A3
:101BE000F7959E3F08F0B0CF9395880F08F099279E
:101BF000EE0F9795879508950E94940F90F09F3768
:101C000048F4911116F40C94AD0F60E070E080E898
:101C10009FE3089526F01B16611D711D811D0C9414
:101C2000270F0C94420F0E94FD0E08F481E00895E6
:101C30000E942C0E0C94610F0E945A0F58F00E94C3
:101C4000530F40F029F45F3F29F00C94210F5111FC
:101C50000C94AD0F0C94500F0E94720F68F39923EF
:101C6000B1F3552391F3951B550BBB27AA27621798
:101C70007307840738F09F5F5F4F220F331F441FA5
:101C8000AA1FA9F335D00E2E3AF0E0E832D09150D9
:101C90005040E695001CCAF72BD0FE2F29D0660FC6
:101CA000771F881FBB1F261737074807AB07B0E809
:101CB00009F0BB0B802DBF01FF2793585F4F3AF00F
:101CC0009E3F510578F00C94210F0C94AD0F5F3FAF
:101CD000E4F3983ED4F3869577956795B795F79595
:101CE0009F5FC9F7880F911D9695879597F908957D
:101CF000E1E0660F771F881FBB1F62177307840719
:101D0000BA0720F0621B730B840BBA0BEE1F88F727
:101D1000E09508950E94910E6894B1110C94AD0F56
:101D200008950E947A0F88F09F5798F0B92F99274D
:101D3000B751B0F0E1F0660F771F881F991F1AF0B6
:101D4000BA95C9F714C0B13091F00E94AC0FB1E060
:101D500008950C94AC0F672F782F8827B85F39F05F
:101D6000B93FCCF3869577956795B395D9F73EF44F
:101D700090958095709561957F4F8F4F9F4F0895F7
:101D8000E89409C097FB3EF4909580957095619515
:101D90007F4F8F4F9F4F9923A9F0F92F96E9BB27CB
:101DA0009395F695879577956795B795F111F8CF47
:101DB000FAF4BB0F11F460FF1BC06F5F7F4F8F4FB2
:101DC0009F4F16C0882311F096E911C0772321F0A8
:101DD0009EE8872F762F05C0662371F096E8862F40
:101DE00070E060E02AF09A95660F771F881FDAF797
:101DF000880F9695879597F90895990F0008550FC4
:101E0000AA0BE0E8FEEF16161706E807F907C0F080
:101E100012161306E407F50798F0621B730B840B88
:101E2000950B39F40A2661F0232B242B252B21F462
:101E300008950A2609F4A140A6958FEF811D811D02
:101E4000089597F99F6780E870E060E0089588231F
:101E500071F4772321F09850872B762F07C06623E3
:101E600011F499270DC09051862B70E060E02AF0A4
:101E70009A95660F771F881FDAF7880F96958795D2
:101E800097F908959F3F31F0915020F48795779509
:101E90006795B795880F911D9695879597F9089541
:101EA0009FEF80EC089500240A9416161706180672
:101EB0000906089500240A9412161306140605064E
:101EC0000895092E0394000C11F4882352F0BB0FDF
:101ED00040F4BF2B11F460FF04C06F5F7F4F8F4F42
:101EE0009F4F089557FD9058440F551F59F05F3F7D
:101EF00071F04795880F97FB991F61F09F3F79F02C
:101F000087950895121613061406551FF2CF4695AD
:101F1000F1DF08C0161617061806991FF1CF86952F
:101F200071056105089408950E947A0FA0F0BEE73C
:101F3000B91788F4BB279F3860F41616B11D672FB8
:101F4000782F8827985FF7CF869577956795B11D8D
:101F500093959639C8F30895E894BB2766277727A9
:101F6000CB0197F908950E94FD0E08F48FEF0895B4
:101F70000E94CB0F0C94610F0E94530F38F00E9407
:101F80005A0F20F0952311F00C94210F0C94500F50
:101F900011240C94AD0F0E94720F70F3959FC1F342
:101FA000950F50E0551F629FF001729FBB27F00D07
:101FB000B11D639FAA27F00DB11DAA1F649F66275C
:101FC000B00DA11D661F829F2227B00DA11D621FAB
:101FD000739FB00DA11D621F839FA00D611D221F65
:101FE000749F3327A00D611D231F849F600D211D49
:101FF000822F762F6A2F11249F5750409AF0F1F0CC
:1020000088234AF0EE0FFF1FBB1F661F771F881F34
:1020100091505040A9F79E3F510580F00C94210F3C
:102020000C94AD0F5F3FE4F3983ED4F3869577951B
:102030006795B795F795E7959F5FC1F7FE2B880FDA
:10204000911D9695879597F9089597FB072E16F49D
:10205000009407D077FD09D00E943F1007FC05D0FF
:102060003EF4909581959F4F0895709561957F4FAF
:102070000895EE0FFF1F0590F491E02D0994AA1B1F
:10208000BB1B51E107C0AA1FBB1FA617B70710F063
:10209000A61BB70B881F991F5A95A9F78095909595
:0A20A000BC01CD010895F894FFCFB4
:1020AA000102030306070301030101000000000007
:1020BA000002030201536574204465662E20526FA4
:1020CA00742E005269676874004C65667420005269
:1020DA00696768742000656E5F675F737065656421
:1020EA003A003030252000333025200035302520B5
:1020FA00004469723A0046004200520053004469A3
:10210A0073743A0020436D00524F424F5420535487
:10211A004F504544005072657373204B65792031E6
:10212A0000746F207374617274000205000100026A
:10213A00060001000202010000010202040000017F
:0C214A0001000304010000030501000077
:00000001FF
