:100000000C9432000C944F000C944F000C94600B35
:100010000C944F000C94970D0C944F000C944F00CF
:100020000C944F000C94B30B0C944F000C94490C9F
:100030000C944F000C944F000C944F000C944F0004
:100040000C944F000C944F000C944F000C944F00F4
:100050000C944F003A019B00A100FA000601120126
:100060001E01280111241FBECFE5D8E0DEBFCDBFA1
:1000700011E0A0E6B0E0E0E3F1E202C005900D92ED
:10008000A030B107D9F721E0A0E0B1E001C01D9296
:10009000A532B207E1F70E9456060C9496100C9414
:1000A00000000E9405060E94E0040E94BF0580E057
:1000B0000E946D0C0E94ED0281E690E00E94FE0419
:1000C0000895CF92DF92EF92FF920E9414038093E3
:1000D0000201813049F490910101911105C0809392
:1000E0000C01809301011AC0823059F490910101F2
:1000F000913039F487E080930C0181E08093000116
:100100000DC0813059F480910101813039F482E0D1
:1001100080930C010E946C0410920001E0910C018C
:100120008E2F90E08830910508F0A6C0FC01E65DB6
:10013000FF4F0C947C100E94410182E080930C01DF
:100140009BC087E091E00E940C06C0900701D09010
:100150000801E0900901F0900A0120E030E04CE84D
:1001600052E4C701B6010E94F60F181624F483E08A
:1001700080930C0181C020E030E04CE852E4C701DC
:10018000B6010E94560E181674F020E030E040EFE1
:1001900051E4C701B6010E94F60F181624F484E05A
:1001A00080930C0169C020E030E040EF51E4C701CA
:1001B000B6010E94560E181674F020E030E040EAB6
:1001C00051E4C701B6010E94F60F181624F485E029
:1001D00080930C0151C020E030E040EA51E4C701B7
:1001E000B6010E94560E88230CF046C086E080932C
:1001F0000C0142C0109204011092050110920301FB
:100200000E94030282E080930C0136C01092040128
:1002100010920601109203010E94350282E0809341
:100220000C012AC0109206011092040110920501DF
:100230000E94520282E080930C011EC010920601BF
:10024000109205010E949F0282E080930C0114C06D
:100250001092060110920401109205018091000194
:10026000813051F40E94CF02809100018F5F809312
:10027000000102C00E94DC02FF90EF90DF90CF905F
:1002800008950E946C0460E080E00E945E0485E7AF
:1002900090E00E944B0460E081E00E945E0483E8ED
:1002A00090E00E944B0488E893E10E94F10C2DC07D
:1002B0006BE071E080E00E94C40580910B01813009
:1002C00021F505C06BE071E080E00E94C4058091DB
:1002D0000B018130B9F380916000813051F41092AC
:1002E000600060E00E945E0489E890E00E944B0498
:1002F0000CC081110AC081E08093600060E00E9420
:100300005E048FE890E00E944B04809123018130CD
:1003100079F61092230180ED97E00E94F10C809114
:1003200023018130E1F70E946C04109223010895AB
:10033000CF92DF92EF92FF92CF93DF93D82FC62F09
:1003400069017A0160E080E00E945E0486E990E045
:100350000E944B0467E080E00E945E04D11105C05A
:100360008DE990E00E944B040BC0D13029F482EA61
:1003700090E00E944B0404C087EA90E00E944B0486
:100380006BE080E00E945E048CEA90E00E944B04E7
:100390006FE080E00E945E04C11105C081EB90E037
:1003A0000E944B0412C0C13029F483EB90E00E94FC
:1003B0004B040BC0C23029F485EB90E00E944B0443
:1003C00004C087EB90E00E944B0460E081E00E9453
:1003D0005E0489EB90E00E944B0465E081E00E949E
:1003E0005E04C701B6010E94CD0ECB010E947604C7
:1003F0008FEB90E00E944B04DF91CF91FF90EF9044
:10040000DF90CF900895CF938091060181110FC0A6
:10041000C1E0C09306018EE10E948505C0930E01E4
:1004200010920D0188E893E10E94F10C0EC081301A
:1004300061F480912301813041F482E30E948505BB
:1004400082E080930E0110922301209107013091E8
:1004500008014091090150910A0160910D018091BC
:100460000E010E949801CF9108958091050181119C
:100470000AC08EE10E94850581E080930E011092F2
:100480000D018093050120910701309108014091F1
:10049000090150910A0160910D0180910E010E94A5
:1004A000980108950E943B052091070130910801B1
:1004B0004091090150910A0163E080E00E94980197
:1004C00088EE93E00E94F10C809123018823E1F3F0
:1004D00010922301809103018430C0F42091070120
:1004E000309108014091090150910A0162E082E0D7
:1004F0000E94980162E370E0809160000E944F05C5
:10050000809103018F5F809303010895209107017B
:10051000309108014091090150910A0163E080E0A7
:100520000E94980188EB9BE00E94F10C80912301CE
:100530008823E1F310922301109203010895809122
:10054000040181111CC00E943B05209107013091DC
:1005500008014091090150910A0163E080E00E9486
:10056000980188EE93E00E94F10C8091230188238A
:10057000E1F31092230181E080930401089520911A
:100580000701309108014091090150910A0161E091
:1005900081E00E9498018EE10E94A20508950E94C8
:1005A0006C040E943B0560E080E00E945E0483ECE6
:1005B00090E00E944B04089560E080E00E945E0499
:1005C00080ED90E00E944B0460E081E00E945E04B8
:1005D0008CED90E00E944B040895CF93C0E00EC0D4
:1005E0008C2F90E09C01220F331F220F331F820FAC
:1005F000931F81519F4F0E943407CF5FCC2381F31B
:10060000C0E00EC08C2F90E09C01220F331F220F00
:10061000331F820F931F8B519F4F0E943407CF5F70
:10062000C23080F3CF910895CF92DF92EF92FF9284
:100630000F931F93CF93DF931F92CDB7DEB781E067
:10064000898300E057C0E02EF12CF701EE0FFF1F69
:10065000EE0FFF1FEE0DFF1DEB51FF4F41E06385D5
:1006600082E00E945B0610E034C0C12ED12CF6015E
:10067000EE0FFF1FEE0FFF1FEC0DFD1DEB51FF4FA7
:10068000AE014F5F5F4F618182E00E94CC0689819D
:1006900081111EC010C0F601EE0FFF1FEE0FFF1FED
:1006A000EC0DFD1DEB51FF4FAE014F5F5F4F6181C0
:1006B00082E00E94CC068981882369F3C701880FF4
:1006C000991F8B519F4FFC01EC0DFD1D878516C0B6
:1006D0001F5F123050F2F701EE0FFF1FEE0FFF1FEA
:1006E000EE0DFF1DEB51FF4F40E0638582E00E945D
:1006F0005B060F5F002309F4A6CF80E00F90DF9127
:10070000CF911F910F91FF90EF90DF90CF900895C0
:10071000CF93C82F60E081E00E949E096C2F661F76
:100720006627661F87E00E949E09C6FB662760F960
:1007300086E00E949E09C5FB662760F985E00E945D
:100740009E09C4FB662760F984E00E949E0961E06F
:1007500083E00E949E0989EF90E00197F1F700C0C5
:10076000000060E083E00E949E0989EF90E001971D
:10077000F1F700C00000C3FB662760F987E00E9424
:100780009E09C2FB662760F986E00E949E09C1FBB4
:10079000662760F985E00E949E096C2F617084E0F5
:1007A0000E949E0961E083E00E949E0989EF90E02B
:1007B0000197F1F700C0000060E083E00E949E090D
:1007C00089EF90E00197F1F700C00000CF91089504
:1007D000CF93C82F61E081E00E949E096C2F661FB5
:1007E0006627661F87E00E949E09C6FB662760F9A0
:1007F00086E00E949E09C5FB662760F985E00E949D
:100800009E09C4FB662760F984E00E949E0961E0AE
:1008100083E00E949E0989EF90E00197F1F700C004
:10082000000060E083E00E949E0989EF90E001975C
:10083000F1F700C00000C3FB662760F987E00E9463
:100840009E09C2FB662760F986E00E949E09C1FBF3
:10085000662760F985E00E949E096C2F617084E034
:100860000E949E0961E083E00E949E0989EF90E06A
:100870000197F1F700C0000060E083E00E949E094C
:1008800089EF90E00197F1F700C00000CF91089543
:100890000E94E80308950F931F93CF938C01C0E04B
:1008A00003C00E944804CF5FF801EC0FF11D808166
:1008B0008111F7CFCF911F910F910895811105C03C
:1008C000862F80680E9488030895813021F480EC8F
:1008D000860F0E948803089581E00E94880389EFB3
:1008E00090E00197F1F700C000000895EF92FF92A9
:1008F0001F93CF93DF93CDB7DEB72A970FB6F89447
:10090000DEBF0FBECDBF7C01009721F480E30E94C3
:1009100048042DC0992334F4F194E194F1088DE258
:100920000E94480410E010C0C7016AE070E00E9415
:100930006810E1E0F0E0EC0FFD1FE10FF11D805DBC
:1009400080831F5FE62EF72EE114F10469F70DC0D6
:10095000E12FF0E0319781E090E08C0F9D1FE80FD0
:10096000F91F80810E94480411501111F1CF2A967D
:100970000FB6F894DEBF0FBECDBFDF91CF911F91B0
:10098000FF90EF90089560E081E00E94A10860E090
:1009900083E00E94A10860E082E00E94A10860E07C
:1009A00084E00E94A10860E085E00E94A10860E068
:1009B00086E00E94A10860E087E00E94A1080895F7
:1009C0000E94C30487EA91E60197F1F700C0000096
:1009D00082E00E94880388E20E9488038CE00E94E3
:1009E000880381E00E94880389EF90E00197F1F786
:1009F00000C0000086E00E9488030895EF92FF92F5
:100A00001F93CF93DF930097B9F481E01BC0C12FF0
:100A1000D0E0CE01880F991FC80FD91FCE0DDF1D62
:100A200041E06A8188810E94250A41E06A818981CA
:100A30000E94250A1F5F02C07C0110E0123038F3CB
:100A40000E940E0CDF91CF911F91FF90EF900895BF
:100A5000009779F070E0FB01EE0FFF1F6E0F7F1F14
:100A6000FC01E60FF71F608182810E94000780E091
:100A7000089581E0089541E060E082E00E945B0615
:100A800041E061E082E00E945B060E940A0C08954A
:100A9000853610F081E008950E942A0C0895811196
:100AA0001AC060E081E690E00E9428058CE692E0A2
:100AB0000E94F10C82E30E94480580912301882363
:100AC000E1F30E940A0C1092230160E081E690E0BD
:100AD0000E942805089561E081E690E00E942805C3
:100AE0008CE692E00E94F10C82E30E94480580911E
:100AF00023018823E1F30E940A0C1092230161E094
:100B000081E690E00E9428050895CF93DF930E942C
:100B10004805C1E6D0E0688140E08A810E945B061A
:100B2000698141E08A810E945B066B8140E08D8192
:100B30000E945B066C8141E08D810E945B06DF9123
:100B4000CF910895CF93DF930E944805C1E6D0E08E
:100B5000688141E08A810E945B06698140E08A8168
:100B60000E945B066B8141E08D810E945B066C8177
:100B700040E08D810E945B06DF91CF91089562E095
:100B800084E10E94A1080895EF92FF920F931F93B2
:100B9000CF93DF931F92CDB7DEB77B0191E09983AE
:100BA00090E08C01000F111F000F111F000F111F8B
:100BB000081B190B0A501F4FAE014F5F5F4FF80122
:100BC000618180810E94CC06F801868181110AC072
:100BD0008981811104C081E0F70180830EC0F70193
:100BE00010820BC0813049F48981811103C0F70163
:100BF000108203C081E0F70180830F90DF91CF91D5
:100C00001F910F91FF90EF90089587E690E00E946A
:100C100034070E94CA0B08950F931F93CF93DF935D
:100C200000D0CDB7DEB78C011A82198240E063E0B4
:100C300081E00E945B0683EC99E00197F1F700C028
:100C4000000041E063E081E00E945B060E944A0BE5
:100C5000809111018130E1F7CE0101960E94A50A31
:100C600069817A8180E090E00E94030F29E23CE3F1
:100C700049EE53E40E945B0E20E030E040E051E496
:100C80000E94FB0F20E030E040E85FE30E94D30DBC
:100C9000F8016083718382839383109211010F9016
:100CA0000F90DF91CF911F910F9108950E945100F5
:100CB0000E946100FDCF442319F04130A9F108954D
:100CC000813089F028F08230C9F0833011F1089525
:100CD0002BB381E090E002C0880F991F6A95E2F77C
:100CE000822B8BBB089528B381E090E002C0880F6F
:100CF000991F6A95E2F7822B88BB089525B381E09E
:100D000090E002C0880F991F6A95E2F7822B85BB9D
:100D1000089522B381E090E002C0880F991F6A9580
:100D2000E2F7822B82BB0895813091F028F0823067
:100D3000D9F0833029F108952BB381E090E002C00F
:100D4000880F991F6A95E2F7809582238BBB0895DF
:100D500028B381E090E002C0880F991F6A95E2F7FE
:100D60008095822388BB089525B381E090E002C07E
:100D7000880F991F6A95E2F78095822385BB0895B5
:100D800022B381E090E002C0880F991F6A95E2F7D4
:100D90008095822382BB0895813089F028F08230CB
:100DA000C9F0833011F1089589B390E002C09595A0
:100DB00087956A95E2F78170FA018083089586B37A
:100DC00090E002C0959587956A95E2F78170FA01E7
:100DD0008083089583B390E002C0959587956A95C6
:100DE000E2F78170FA018083089580B390E002C039
:100DF000959587956A95E2F78170FA018083089549
:100E0000813089F028F08230C9F0833011F10895E3
:100E10002BB381E090E002C0880F991F6A95E2F73A
:100E200082278BBB089528B381E090E002C0880F31
:100E3000991F6A95E2F7822788BB089525B381E060
:100E400090E002C0880F991F6A95E2F7822785BB60
:100E5000089522B381E090E002C0880F991F6A953F
:100E6000E2F7822782BB0895FC0182818111B5C01F
:100E70008081813099F028F08230E9F0833041F1AF
:100E800033C02AB381E090E0018002C0880F991F2F
:100E90000A94E2F7809582238ABB26C027B381E0BB
:100EA00090E0018002C0880F991F0A94E2F78095B4
:100EB000822387BB19C024B381E090E0018002C087
:100EC000880F991F0A94E2F78095822384BB0CC097
:100ED00021B381E090E0018002C0880F991F0A943D
:100EE000E2F78095822381BB83818130C9F58081BF
:100EF000813091F028F08230D9F0833029F10895C3
:100F00002BB381E090E0018002C0880F991F0A9402
:100F1000E2F7822B8BBB089528B381E090E001803B
:100F200002C0880F991F0A94E2F7822B88BB0895AC
:100F300025B381E090E0018002C0880F991F0A94D8
:100F4000E2F7822B85BB089522B381E090E0018017
:100F500002C0880F991F0A94E2F7822B82BB089582
:100F60008081813099F028F08230E9F0833041F1BE
:100F700008952BB381E090E0018002C0880F991F93
:100F80000A94E2F7809582238BBB089528B381E011
:100F900090E0018002C0880F991F0A94E2F78095C3
:100FA000822388BB089525B381E090E0018002C0D0
:100FB000880F991F0A94E2F78095822385BB0895D4
:100FC00022B381E090E0018002C0880F991F0A944B
:100FD000E2F78095822382BB0895813009F0B0C08A
:100FE0008081813091F028F08230D9F0833029F16E
:100FF0002FC02AB381E090E0018002C0880F991FC2
:101000000A94E2F7822B8ABB23C027B381E090E0E9
:10101000018002C0880F991F0A94E2F7822B87BBD8
:1010200017C024B381E090E0018002C0880F991FAF
:101030000A94E2F7822B84BB0BC021B381E090E0DD
:10104000018002C0880F991F0A94E2F7822B81BBAE
:101050008381811139C08081813091F028F0823004
:10106000D9F0833029F108952BB381E090E001801D
:1010700002C0880F991F0A94E2F7822B8BBB089558
:1010800028B381E090E0018002C0880F991F0A9484
:10109000E2F7822B88BB089525B381E090E00180C0
:1010A00002C0880F991F0A94E2F7822B85BB08952E
:1010B00022B381E090E0018002C0880F991F0A945A
:1010C000E2F7822B82BB08958081813099F028F06D
:1010D0008230E9F0833041F108952BB381E090E054
:1010E000018002C0880F991F0A94E2F7809582233D
:1010F0008BBB089528B381E090E0018002C0880F87
:10110000991F0A94E2F78095822388BB089525B33E
:1011100081E090E0018002C0880F991F0A94E2F7F5
:101120008095822385BB089522B381E090E0018001
:1011300002C0880F991F0A94E2F78095822382BB30
:101140000895982F9695969596958770613009F435
:1011500055C020F0623009F4A1C008959130C1F06B
:1011600028F0923039F19330B9F108954AB321E073
:1011700030E0B90102C0660F771F8A95E2F7CB0114
:10118000942F982B9ABB9BB3809589238BBB089592
:1011900047B321E030E0B90102C0660F771F8A959E
:1011A000E2F7CB01942F982B97BB98B380958923B6
:1011B00088BB089544B321E030E0B90102C0660F56
:1011C000771F8A95E2F7CB01942F982B94BB95B3A8
:1011D0008095892385BB089541B321E030E0B901B2
:1011E00002C0660F771F8A95E2F7CB01942F982BE8
:1011F00091BB92B38095892382BB08959130C1F051
:1012000028F0923039F19330B9F108954AB321E0D2
:1012100030E0B90102C0660F771F8A95E2F7CB0173
:101220008095942F98239ABB9BB389238BBB0895F9
:1012300047B321E030E0B90102C0660F771F8A95FD
:10124000E2F7CB018095942F982397BB98B389231D
:1012500088BB089544B321E030E0B90102C0660FB5
:10126000771F8A95E2F7CB018095942F982394BB42
:1012700095B3892385BB089541B321E030E0B901DE
:1012800002C0660F771F8A95E2F7CB018095942FF5
:10129000982391BB92B3892382BB08959130C1F00A
:1012A00028F0923039F19330B9F108954AB321E032
:1012B00030E0B90102C0660F771F8A95E2F7CB01D3
:1012C000962F909594239ABB9BB3892B8BBB089543
:1012D00047B321E030E0B90102C0660F771F8A955D
:1012E000E2F7CB01962F9095942397BB98B3892B67
:1012F00088BB089544B321E030E0B90102C0660F15
:10130000771F8A95E2F7CB01962F9095942394BB93
:1013100095B3892B85BB089541B321E030E0B90135
:1013200002C0660F771F8A95E2F7CB01962F909542
:10133000942391BB92B3892B82BB0895982F9695E5
:10134000969596958770662309F43FC0613009F041
:101350007BC0913099F028F09230E9F0933041F160
:1013600008954BB321E030E0B90102C0660F771F4A
:101370008A95E2F7CB01842B8BBB089548B321E01B
:1013800030E0B90102C0660F771F8A95E2F7CB0102
:10139000842B88BB089545B321E030E0B90102C039
:1013A000660F771F8A95E2F7CB01842B85BB0895E2
:1013B00042B321E030E0B90102C0660F771F8A9581
:1013C000E2F7CB01842B82BB08959130A1F028F085
:1013D0009230F9F0933059F108954BB321E030E0A9
:1013E000B90102C0660F771F8A95E2F7CB0180959D
:1013F00084238BBB089548B321E030E0B90102C0DB
:10140000660F771F8A95E2F7CB018095842388BB0E
:10141000089545B321E030E0B90102C0660F771F9F
:101420008A95E2F7CB018095842385BB089542B36A
:1014300021E030E0B90102C0660F771F8A95E2F71C
:10144000CB018095842382BB0895411140C0613057
:10145000A1F028F06230F9F0633059F108954AB3F1
:1014600021E030E0B90102C0660F771F8A95E2F7EC
:10147000CB01809584238ABB089547B321E030E0F7
:10148000B90102C0660F771F8A95E2F7CB018095FC
:10149000842387BB089544B321E030E0B90102C042
:1014A000660F771F8A95E2F7CB018095842384BB72
:1014B000089541B321E030E0B90102C0660F771F03
:1014C0008A95E2F7CB018095842381BB0895413052
:1014D000D9F5613099F028F06230E9F0633041F1DC
:1014E00008954AB321E030E0B90102C0660F771FCA
:1014F0008A95E2F7CB01842B8ABB089547B321E09C
:1015000030E0B90102C0660F771F8A95E2F7CB0180
:10151000842B87BB089544B321E030E0B90102C0B9
:10152000660F771F8A95E2F7CB01842B84BB089561
:1015300041B321E030E0B90102C0660F771F8A9500
:10154000E2F7CB01842B81BB089520910F013091EC
:101550001001FC013183208308958FB780688FBF0D
:101560008BB780628BBF623019F0633029F0089529
:1015700084B78F7B84BF089584B7806484BF089547
:10158000882319F08130D9F02EC08FB58E7F8FBDA2
:101590008FB58D7F8FBD8EB5877F8EBD8EB58F7ECB
:1015A0008EBD8FB588608FBD8FB584608FBD8FB7BE
:1015B00080688FBF89B7846089BF80E008958FB548
:1015C0008E7F8FBD8FB58D7F8FBD8EB5877F8EBD92
:1015D0008EB58F7E8EBD8FB588608FBD8FB58460D0
:1015E0008FBD80E0089581E008958034910529F150
:1015F00030F48130910559F00897A1F03FC0811572
:1016000021E0920729F18115944069F137C08EB528
:101610008D7F8EBD8EB58B7F8EBD8EB581608EBD6C
:1016200080E008958EB58E7F8EBD8EB58B7F8EBD8A
:101630008EB582608EBD80E008958EB58B7F8EBDA5
:101640008EB582608EBD8EB581608EBD80E00895BE
:101650008EB58D7F8EBD8EB58E7F8EBD8EB584602E
:101660008EBD80E008958EB58D7F8EBD8EB5846071
:101670008EBD8EB581608EBD80E0089581E00895B5
:101680008EB58E7F8EBD8EB58D7F8EBD8EB58B7FD8
:101690008EBD0895CF93DF93C1E7D0E08B810E9488
:1016A000C00A0E94400B698188810E94AD0A109295
:1016B000240181E090E00E94F50ADF91CF91089526
:1016C0001F920F920FB60F9211242F933F934F93B7
:1016D0005F936F937F938F939F93AF93BF93EF939A
:1016E000FF938CB59DB590931901809318012091BB
:1016F0002401211114C090931501809314011DBC85
:101700001CBCE1E7F0E0628180810E94AD0A10928A
:1017100017011092160181E08093240113C0909369
:101720001301809312012091160130911701821B41
:10173000930B9093100180930F010E94400B81E066
:1017400080931101FF91EF91BF91AF919F918F9184
:101750007F916F915F914F913F912F910F900FBEAD
:101760000F901F9018951F920F920FB60F92112491
:101770008F939F93809116019091170101969093FA
:101780001701809316019F918F910F900FBE0F90BC
:101790001F9018958FB780688FBF0895CF93809161
:1017A0001A01882361F0C0E01EC0EC2FF0E0E35086
:1017B000FF4F60E080810E949E09CF5F01C0C0E0C2
:1017C000C23098F380911B01819582BF81E08093A4
:1017D0001A0111C0EC2FF0E0E350FF4F61E080816F
:1017E0000E949E09CF5FC230A8F380911C018195B1
:1017F00082BF10921A01CF91089583B7877B83BF70
:1018000089B7816089BF7894089583B7887F8560A0
:1018100083BF089583B7887F83BF08950F931F9375
:10182000CF93C0E00FC00C2F10E003501F4F60E0BB
:10183000F80180810E94A10861E0F80180810E9486
:101840009E09CF5FC23078F30E94FD0BCF911F91AC
:101850000F910895CF93DF93E82FF0E0982FC4E61F
:10186000D0E080E0BE010E946810262F60931C012A
:10187000CE018E1B9F0B982F80E0BE010E94681046
:1018800060931B01219522BF0E94050CDF91CF912F
:1018900008951F920F920FB60F9211242F933F932A
:1018A0004F935F936F937F938F939F93AF93BF9368
:1018B000EF93FF930E94CE0BFF91EF91BF91AF91F9
:1018C0009F918F917F916F915F914F913F912F9158
:1018D0000F900FBE0F901F901895882319F081303C
:1018E00079F016C085B58F7B85BD85B5877F85BDB1
:1018F0008FB780688FBF89B7806489BF80E0089503
:1019000085B58F7B85BD85B5877F85BD80E00895D2
:1019100081E0089580349105C1F150F4883091053B
:1019200001F18032910541F1019709F058C00EC0D4
:10193000811521E09207E9F1811524E0920709F46D
:1019400043C08038910509F04AC028C085B58D7F15
:1019500085BD85B58B7F85BD85B5816085BD80E002
:10196000089585B58E7F85BD85B58B7F85BD85B591
:10197000826085BD80E0089585B58B7F85BD85B586
:10198000826085BD85B5816085BD85B5846085BD76
:1019900085B58D7F85BD85B58E7F85BD85B58B7FF2
:1019A00085BD85B58D7F85BD85B5816085BD80E0B0
:1019B000089585B5826085BD85B58E7F85BD85B569
:1019C000846085BD80E0089585B5826085BD85B55C
:1019D000846085BD85B5816085BD80E0089581E026
:1019E0000895CF92DF92EF92FF92BC0180E090E0E9
:1019F0000E94030F20E030E04AE754E40E945B0EAF
:101A00006B017C0127E337E346E856E40E94F60FBA
:101A100018160CF47CC015BC2DEB37E346E85EE3EA
:101A2000C701B6010E94560E8823C4F4A70196018F
:101A30006DEB77E386E89EE30E94D20D2DEB37E352
:101A400046E85AE30E945B0E0E94D40E64BD81E01A
:101A500090E09093200180931F014FC02DEB37E35E
:101A600046E85EE3C701B6010E94560E811108C028
:101A700014BC81E090E09093200180931F013DC051
:101A80002DEB37E346E85EE3C701B6010E945B0E2B
:101A90000E943F0E0E94D40E7093200160931F019C
:101AA00080E090E00E94030F20E030E040E85FE338
:101AB0000E94D20D2DEB37E346E85EE30E94FB0F58
:101AC0009B01AC01C701B6010E94D20D2DEB37E39B
:101AD00046E85AE30E945B0E9B01AC0160E070E0B7
:101AE00080E893E40E94D20D0E94D40E64BD84B5B8
:101AF00090E090931E0180931D011092220110929C
:101B0000210180E094E00E948A0C80E001C081E025
:101B1000FF90EF90DF90CF90089585B58E7F85BDC3
:101B200085B58D7F85BD85B58B7F85BD08951F9259
:101B30000F920FB60F9211242F933F934F935F9301
:101B40006F937F938F939F93AF93BF93EF93FF9385
:101B5000809121019091220101969093220180931E
:101B6000210120911F01309120018217930748F035
:101B7000109222011092210181E0809323010E94A2
:101B80008D0DFF91EF91BF91AF919F918F917F91BB
:101B90006F915F914F913F912F910F900FBE0F90DA
:101BA0001F9018955058BB27AA270E94EA0D0C9445
:101BB000A40F0E94960F38F00E949D0F20F039F478
:101BC0009F3F19F426F40C94930F0EF4E095E7FB75
:101BD0000C94640FE92F0E94B50F58F3BA176207EF
:101BE00073078407950720F079F4A6F50C94EF0F9E
:101BF0000EF4E0950B2EBA2FA02D0B01B901900128
:101C00000C01CA01A0011124FF27591B99F0593F6B
:101C100050F4503E68F11A16F040A22F232F342FB3
:101C20004427585FF3CF469537952795A795F04001
:101C30005395C9F77EF41F16BA0B620B730B840B16
:101C4000BAF09150A1F0FF0FBB1F661F771F881FCE
:101C5000C2F70EC0BA0F621F731F841F48F4879526
:101C600077956795B795F7959E3F08F0B0CF939518
:101C7000880F08F09927EE0F9795879508950E9491
:101C8000D70F90F09F3748F4911116F40C94F00F91
:101C900060E070E080E89FE3089526F01B16611D68
:101CA000711D811D0C946A0F0C94850F0E94400FCA
:101CB00008F481E008950E946F0E0C94A40F0E9416
:101CC0009D0F58F00E94960F40F029F45F3F29F0D5
:101CD0000C94640F51110C94F00F0C94930F0E940C
:101CE000B50F68F39923B1F3552391F3951B550B69
:101CF000BB27AA2762177307840738F09F5F5F4FDF
:101D0000220F331F441FAA1FA9F335D00E2E3AF01D
:101D1000E0E832D091505040E695001CCAF72BD035
:101D2000FE2F29D0660F771F881FBB1F2617370786
:101D30004807AB07B0E809F0BB0B802DBF01FF27B8
:101D400093585F4F3AF09E3F510578F00C94640F22
:101D50000C94F00F5F3FE4F3983ED4F386957795AB
:101D60006795B795F7959F5FC9F7880F911D969571
:101D7000879597F90895E1E0660F771F881FBB1FCD
:101D8000621773078407BA0720F0621B730B840B7A
:101D9000BA0BEE1F88F7E09508950E94D40E689460
:101DA000B1110C94F00F08950E94BD0F88F09F5759
:101DB00098F0B92F9927B751B0F0E1F0660F771F6F
:101DC000881F991F1AF0BA95C9F714C0B13091F065
:101DD0000E94EF0FB1E008950C94EF0F672F782F5A
:101DE0008827B85F39F0B93FCCF38695779567952A
:101DF000B395D9F73EF490958095709561957F4F96
:101E00008F4F9F4F0895E89409C097FB3EF490953B
:101E10008095709561957F4F8F4F9F4F9923A9F0C3
:101E2000F92F96E9BB279395F69587957795679552
:101E3000B795F111F8CFFAF4BB0F11F460FF1BC096
:101E40006F5F7F4F8F4F9F4F16C0882311F096E929
:101E500011C0772321F09EE8872F762F05C06623D7
:101E600071F096E8862F70E060E02AF09A95660F90
:101E7000771F881FDAF7880F9695879597F9089549
:101E8000990F0008550FAA0BE0E8FEEF161617068B
:101E9000E807F907C0F012161306E407F50798F0F3
:101EA000621B730B840B950B39F40A2661F0232B0C
:101EB000242B252B21F408950A2609F4A140A69588
:101EC0008FEF811D811D089597F99F6780E870E06D
:101ED00060E00895882371F4772321F09850872BD0
:101EE000762F07C0662311F499270DC09051862BD9
:101EF00070E060E02AF09A95660F771F881FDAF786
:101F0000880F9695879597F908959F3F31F09150E6
:101F100020F4879577956795B795880F911D9695CD
:101F2000879597F908959FEF80EC089500240A940F
:101F30001616170618060906089500240A941216A4
:101F40001306140605060895092E0394000C11F4D7
:101F5000882352F0BB0F40F4BF2B11F460FF04C084
:101F60006F5F7F4F8F4F9F4F089557FD9058440FDD
:101F7000551F59F05F3F71F04795880F97FB991FE8
:101F800061F09F3F79F087950895121613061406A5
:101F9000551FF2CF4695F1DF08C016161706180632
:101FA000991FF1CF869571056105089408950E94E7
:101FB000BD0FA0F0BEE7B91788F4BB279F3860F4C7
:101FC0001616B11D672F782F8827985FF7CF869553
:101FD00077956795B11D93959639C8F30895E89460
:101FE000BB2766277727CB0197F908950E94400FFA
:101FF00008F48FEF08950E940E100C94A40F0E9415
:10200000960F38F00E949D0F20F0952311F00C944C
:10201000640F0C94930F11240C94F00F0E94B50FD1
:1020200070F3959FC1F3950F50E0551F629FF0012B
:10203000729FBB27F00DB11D639FAA27F00DB11D44
:10204000AA1F649F6627B00DA11D661F829F2227CD
:10205000B00DA11D621F739FB00DA11D621F839F54
:10206000A00D611D221F749F3327A00D611D231F2A
:10207000849F600D211D822F762F6A2F11249F5778
:1020800050409AF0F1F088234AF0EE0FFF1FBB1F7B
:10209000661F771F881F91505040A9F79E3F51053A
:1020A00080F00C94640F0C94F00F5F3FE4F3983EC3
:1020B000D4F3869577956795B795F795E7959F5FE4
:1020C000C1F7FE2B880F911D9695879597F9089576
:1020D00097FB072E16F4009407D077FD09D00E94D5
:1020E000821007FC05D03EF4909581959F4F08958E
:1020F000709561957F4F0895EE0FFF1F0590F49145
:10210000E02D0994AA1BBB1B51E107C0AA1FBB1FEE
:10211000A617B70710F0A61BB70B881F991F5A9573
:10212000A9F780959095BC01CD010895F894FFCF53
:102130000102030306070301030101000000000080
:102140000002030201536574204465662E20526F1D
:10215000742E005269676874004C656674200052E2
:1021600069676874200053706565643A00303025F3
:102170002000333025200035302520004469723A94
:10218000004600420052005300446973743A002034
:10219000436D00524F424F542053544F504544001A
:1021A0005072657373204B6579203100746F207312
:1021B0007461727400020500010002060001000251
:1021C000020100000102020400000101001C1D00C8
:00000001FF
