:100000000C942A000C94AA090C9447000C94470005
:100010000C9447000C94A50B0C9447000C944700DB
:100020000C9447000C94FD090C9447000C94570A5B
:100030000C9447000C9447000C9447000C94470024
:100040000C9447000C9447000C9447000C94470014
:100050000C94470011241FBECFE5D8E0DEBFCDBF12
:1000600010E0A0E6B0E0ECE4FDE102C005900D92E6
:10007000A03FB107D9F721E0A0EFB0E001C01D9289
:10008000AE30B207E1F70E941C040C94A40E0C944D
:1000900000000E940D030E949C0180E00E947B0AE8
:1000A0000E94E0010895CF92DF92EF92FF9280913B
:1000B000F700813071F038F0823009F481C083306C
:1000C00009F484C085C00E94ED0081E08093F700B0
:1000D0007FC081EF90E00E94EB010E94C00360911D
:1000E000F1007091F2008091F3009091F4000E9471
:1000F000DB0CCB010E94FF03C090F100D090F20016
:10010000E090F300F090F40020E030E04CE852E49E
:10011000C701B6010E94FD0D181644F48DE890E069
:100120000E94E70382E08093F70052C020E030E0B5
:100130004CE852E4C701B6010E94640C181674F032
:1001400020E030E040EF51E4C701B6010E94FD0D10
:10015000181624F483E08093F7003AC020E030E0E2
:1001600040EF51E4C701B6010E94640C181674F008
:1001700020E030E040EA51E4C701B6010E94FD0DE5
:10018000181624F484E08093F70022C020E030E0C9
:1001900040EA51E4C701B6010E94640C882344F48C
:1001A00086E990E00E94E70385E08093F70010C0A5
:1001B000C701B6010E94DB0CCB010E94FF0308C0FF
:1001C0000E94480181E08093F70002C01092F00085
:1001D000FF90EF90DF90CF90089560E080E00E9464
:1001E000D3038EE990E00E94E70360E081E00E9483
:1001F000D3038CEA90E00E94E70388E893E10E9431
:10020000FF0A35C065EF70E080E00E949F01809199
:10021000F500813061F505C065EF70E080E00E9477
:100220009F018091F5008130B9F38091F600811132
:100230000FC081E08093F60082E08093600060E070
:1002400081E00E94D30382EB90E00E94E7030FC09D
:10025000813069F41092F60083E08093600060E0E2
:1002600081E00E94D30388EB90E00E94E703809135
:100270000C01813039F610920C0180ED97E00E945C
:10028000FF0A80910C018130E1F710920C01089572
:100290000E94C00360E080E00E94D3038FEB90E0F7
:1002A0000E94E7036AE080E00E94D30386EC90E0BE
:1002B0000E94E70360E081E00E94D3038CEC90E0B1
:1002C0000E94E70365E081E00E94D3036091F100A2
:1002D0007091F2008091F3009091F4000E94DB0C89
:1002E000CB010E94FF0382ED90E00E94E703809122
:1002F000F000811110C081E08093F00067E080E0A1
:100300000E94D30386ED90E00E94E70388E893E122
:100310000E94FF0A0895813071F480910C018130B0
:1003200051F467E080E00E94D3038AED90E00E94E0
:10033000E70310920C0108950E9421040895EF92A2
:10034000FF920F931F93CF93DF931F92CDB7DEB72A
:100350007B0191E0998390E08C01000F111F000F49
:10036000111F000F111F081B190B02521F4FAE0166
:100370004F5F5F4FF801618180810E943707F8016C
:10038000868181110AC08981811104C081E0F70151
:1003900080830EC0F70110820BC0813049F489813F
:1003A000811103C0F701108203C081E0F70180834F
:1003B0000F90DF91CF911F910F91FF90EF900895D3
:1003C00086E690E00E946B0781E690E00E946B0752
:1003D0000E94140A08950F931F93CF93DF9300D0C8
:1003E000CDB7DEB78C011A82198240E061E083E06C
:1003F0000E94C60683EC99E00197F1F700C0000067
:1004000041E061E083E00E94C6060E949409809169
:10041000FA008130E1F7CE0101960E94D808698187
:100420007A8180E090E00E940A0D29E23CE349EEE7
:1004300053E40E94690CF801608371838283938383
:100440001092FA000F900F90DF91CF911F910F91B2
:1004500008958032C0F56230C0F5E82FE695E69544
:10046000E6958770611117C0F0E0EE0FFF1FE559A8
:10047000FF4F0190F081E02D408121E030E0B90193
:1004800002C0660F771F8A95E2F7CB01809584231F
:10049000808380E008956130D1F4F0E0EE0FFF1F1B
:1004A000E559FF4F0190F081E02D408121E030E0DF
:1004B000B90102C0660F771F8A95E2F7CB01842B42
:1004C000808380E008958FEF08958FEF089580E096
:1004D00008958032C0F56230C0F5E82FE695E695C4
:1004E000E6958770611117C0F0E0EE0FFF1FED5821
:1004F000FF4F0190F081E02D408121E030E0B90113
:1005000002C0660F771F8A95E2F7CB01809584239E
:10051000808380E008956130D1F4F0E0EE0FFF1F9A
:10052000ED58FF4F0190F081E02D408121E030E057
:10053000B90102C0660F771F8A95E2F7CB01842BC1
:10054000808380E008958FEF08958FEF089580E015
:1005500008951F93CF93DF93D82F60E082E00E942D
:10056000690260E081E00E9469021D2F12951F70F0
:10057000C0E011C0EC2FF0E0612F70E00C2E02C043
:10058000759567950A94E2F76170E558FF4F808191
:100590000E946902CF5FC43068F361E083E00E948B
:1005A000690289EF90E00197F1F700C0000060E078
:1005B00083E00E94690292E49A95F1F700C0DF702F
:1005C000C0E011C0EC2FF0E06D2F70E00C2E02C0E7
:1005D000759567950A94E2F76170E558FF4F808141
:1005E0000E946902CF5FC43068F361E083E00E943B
:1005F000690289EF90E00197F1F700C0000060E028
:1006000083E00E94690283EF91E00197F1F700C057
:100610000000DF91CF911F910895CF93C0E009C0F2
:10062000EC2FF0E0E558FF4F61E080810E94290245
:10063000CF5FC430A8F361E081E00E94290261E04D
:1006400082E00E94290261E083E00E9429028FE09B
:1006500097E20197F1F700C0000082E00E94A90232
:1006600089EF90E00197F1F700C0000088E20E9456
:10067000A90289EF90E00197F1F700C0000081E046
:100680000E94A90287EE93E00197F1F700C00000F5
:1006900086E00E94A90289EF90E00197F1F700C07F
:1006A00000008EE00E94A90289EF90E00197F1F727
:1006B00000C00000CF9108951F93CF93DF93D82FF0
:1006C00060E082E00E94690261E081E00E946902CC
:1006D0001D2F12951F70C0E011C0EC2FF0E0612FAC
:1006E00070E00C2E02C0759567950A94E2F7617070
:1006F000E558FF4F80810E946902CF5FC43068F3E4
:1007000061E083E00E94690289EF90E00197F1F7D0
:1007100000C0000060E083E00E94690292E49A95C4
:10072000F1F700C0DF70C0E011C0EC2FF0E06D2FDA
:1007300070E00C2E02C0759567950A94E2F761701F
:10074000E558FF4F80810E946902CF5FC43068F393
:1007500061E083E00E94690289EF90E00197F1F780
:1007600000C0000060E083E00E94690283EF91E036
:100770000197F1F700C00000DF91CF911F9108951C
:1007800081E00E94A90287EE93E00197F1F700C093
:10079000000082E00E94A90287EE93E00197F1F742
:1007A00000C000000895811108C0603130F4862F28
:1007B0008F7080680E94A9020895813039F46031F9
:1007C00028F4862F8F70806C0E94A90208950F93E1
:1007D0001F93CF93DF938C01FC018081C0E0D0E0B8
:1007E00007C00E945C032196F801EC0FFD1F808179
:1007F0008111F7CFDF91CF911F910F910895CF9382
:10080000DF93CDB7DEB72A970FB6F894DEBF0FBEE1
:10081000CDBF4AE0BE016F5F7F4F0E946F0ECE01D9
:1008200001960E94E7032A960FB6F894DEBF0FBE2A
:10083000CDBFDF91CF9108950E9449000E945300DF
:10084000FDCF20E09FC2822F90E0FC01EE0FFF1F42
:10085000EE0FFF1FE80FF91FE158FF4F32813111F2
:1008600049C1FC01EE0FFF1FEE0FFF1FE80FF91F3C
:10087000E158FF4F30813130E9F030F0323081F112
:10088000333009F443C057C03AB3FC01EE0FFF1FE9
:10089000EE0FFF1FE80FF91FE158FF4F41E050E056
:1008A000018002C0440F551F0A94E2F7409543238C
:1008B0004ABB41C037B3FC01EE0FFF1FEE0FFF1F15
:1008C000E80FF91FE158FF4F41E050E0018002C0FE
:1008D000440F551F0A94E2F74095432347BB2BC0B2
:1008E00034B3FC01EE0FFF1FEE0FFF1FE80FF91FDF
:1008F000E158FF4F41E050E0018002C0440F551F16
:100900000A94E2F74095432344BB15C031B3FC0180
:10091000EE0FFF1FEE0FFF1FE80FF91FE158FF4F0B
:1009200041E050E0018002C0440F551F0A94E2F7F5
:100930004095432341BBFC01EE0FFF1FEE0FFF1F4D
:10094000E80FF91FE158FF4F3381313009F067C0DC
:10095000FC01EE0FFF1FEE0FFF1FE80FF91FE1581C
:10096000FF4F30813130E1F030F0323071F133300F
:1009700009F440C006C23BB3FC01EE0FFF1FEE0FAF
:10098000FF1FE80FF91FE158FF4F81E090E0018061
:1009900002C0880F991F0A94E2F7832B8BBBF1C129
:1009A00038B3FC01EE0FFF1FEE0FFF1FE80FF91F1A
:1009B000E158FF4F81E090E0018002C0880F991F4D
:1009C0000A94E2F7832B88BBDCC135B3FC01EE0F40
:1009D000FF1FEE0FFF1FE80FF91FE158FF4F81E0E7
:1009E00090E0018002C0880F991F0A94E2F7832BE0
:1009F00085BBC7C132B3FC01EE0FFF1FEE0FFF1F17
:100A0000E80FF91FE158FF4F81E090E0018002C03C
:100A1000880F991F0A94E2F7832B82BBB2C1FC01B5
:100A2000EE0FFF1FEE0FFF1FE80FF91FE158FF4FFA
:100A300030813130E9F030F0323081F1333009F477
:100A400043C09FC13BB3FC01EE0FFF1FEE0FFF1F22
:100A5000E80FF91FE158FF4F81E090E0018002C0EC
:100A6000880F991F0A94E2F7809583238BBB89C175
:100A700038B3FC01EE0FFF1FEE0FFF1FE80FF91F49
:100A8000E158FF4F81E090E0018002C0880F991F7C
:100A90000A94E2F78095832388BB73C135B3FC01C8
:100AA000EE0FFF1FEE0FFF1FE80FF91FE158FF4F7A
:100AB00081E090E0018002C0880F991F0A94E2F75C
:100AC0008095832385BB5DC132B3FC01EE0FFF1F10
:100AD000EE0FFF1FE80FF91FE158FF4F81E090E094
:100AE000018002C0880F991F0A94E2F78095832342
:100AF00082BB47C1313009F044C1FC01EE0FFF1F3A
:100B0000EE0FFF1FE80FF91FE158FF4F3081313022
:100B1000E1F030F0323071F1333009F440C053C0AD
:100B20003AB3FC01EE0FFF1FEE0FFF1FE80FF91F96
:100B3000E158FF4F41E050E0018002C0440F551FD3
:100B40000A94E2F7432B4ABB3EC037B3FC01EE0FD9
:100B5000FF1FEE0FFF1FE80FF91FE158FF4F41E0A5
:100B600050E0018002C0440F551F0A94E2F7432B66
:100B700047BB29C034B3FC01EE0FFF1FEE0FFF1F70
:100B8000E80FF91FE158FF4F41E050E0018002C03B
:100B9000440F551F0A94E2F7432B44BB14C031B3F2
:100BA000FC01EE0FFF1FEE0FFF1FE80FF91FE158CA
:100BB000FF4F41E050E0018002C0440F551F0A94EE
:100BC000E2F7432B41BBFC01EE0FFF1FEE0FFF1FAF
:100BD000E80FF91FE158FF4F3381311167C0FC0165
:100BE000EE0FFF1FEE0FFF1FE80FF91FE158FF4F39
:100BF00030813130E1F030F0323071F1333009F4CE
:100C000040C0BFC03BB3FC01EE0FFF1FEE0FFF1F44
:100C1000E80FF91FE158FF4F81E090E0018002C02A
:100C2000880F991F0A94E2F7832B8BBBAAC038B3B5
:100C3000FC01EE0FFF1FEE0FFF1FE80FF91FE15839
:100C4000FF4F81E090E0018002C0880F991F0A9455
:100C5000E2F7832B88BB95C035B3FC01EE0FFF1F75
:100C6000EE0FFF1FE80FF91FE158FF4F81E090E002
:100C7000018002C0880F991F0A94E2F7832B85BB7D
:100C800080C032B3FC01EE0FFF1FEE0FFF1FE80F15
:100C9000F91FE158FF4F81E090E0018002C0880F0A
:100CA000991F0A94E2F7832B82BB6BC0FC01EE0F05
:100CB000FF1FEE0FFF1FE80FF91FE158FF4F3081B4
:100CC0003130E9F030F0323081F1333009F443C093
:100CD00058C03BB3FC01EE0FFF1FEE0FFF1FE80FE4
:100CE000F91FE158FF4F81E090E0018002C0880FBA
:100CF000991F0A94E2F7809583238BBB42C038B3D7
:100D0000FC01EE0FFF1FEE0FFF1FE80FF91FE15868
:100D1000FF4F81E090E0018002C0880F991F0A9484
:100D2000E2F78095832388BB2CC035B3FC01EE0F1E
:100D3000FF1FEE0FFF1FE80FF91FE158FF4F81E083
:100D400090E0018002C0880F991F0A94E2F7809515
:100D5000832385BB16C032B3FC01EE0FFF1FEE0FDD
:100D6000FF1F8E0F9F1FFC01E158FF4F81E090E0B5
:100D7000018002C0880F991F0A94E2F780958323AF
:100D800082BB2F5F223008F45ECD0895442319F012
:100D90004130A9F10895813089F028F08230C9F0FE
:100DA000833011F108952BB381E090E002C0880FE9
:100DB000991F6A95E2F7822B8BBB089528B381E0D7
:100DC00090E002C0880F991F6A95E2F7822B88BBDA
:100DD000089525B381E090E002C0880F991F6A95BD
:100DE000E2F7822B85BB089522B381E090E002C038
:100DF000880F991F6A95E2F7822B82BB0895813094
:100E000091F028F08230D9F0833029F108952BB386
:100E100081E090E002C0880F991F6A95E2F7809503
:100E200082238BBB089528B381E090E002C0880F35
:100E3000991F6A95E2F78095822388BB089525B3B0
:100E400081E090E002C0880F991F6A95E2F78095D3
:100E5000822385BB089522B381E090E002C0880F11
:100E6000991F6A95E2F78095822382BB08958130AD
:100E700089F028F08230C9F0833011F1089589B3E8
:100E800090E002C0959587956A95E2F78170FA0126
:100E90008083089586B390E002C0959587956A9502
:100EA000E2F78170FA018083089583B390E002C075
:100EB000959587956A95E2F78170FA018083089588
:100EC00080B390E002C0959587956A95E2F78170AE
:100ED000FA0180830895FC0182818111B5C080816F
:100EE000813099F028F08230E9F0833041F133C04D
:100EF0002AB381E090E0018002C0880F991F0A9414
:100F0000E2F7809582238ABB26C027B381E090E078
:100F1000018002C0880F991F0A94E2F7809582230E
:100F200087BB19C024B381E090E0018002C0880F24
:100F3000991F0A94E2F78095822384BB0CC021B3E9
:100F400081E090E0018002C0880F991F0A94E2F7C7
:100F50008095822381BB83818130C9F58081813076
:100F600091F028F08230D9F0833029F108952BB325
:100F700081E090E0018002C0880F991F0A94E2F797
:100F8000822B8BBB089528B381E090E0018002C0E2
:100F9000880F991F0A94E2F7822B88BB089525B326
:100FA00081E090E0018002C0880F991F0A94E2F767
:100FB000822B85BB089522B381E090E0018002C0BE
:100FC000880F991F0A94E2F7822B82BB08958081D3
:100FD000813099F028F08230E9F0833041F10895B2
:100FE0002BB381E090E0018002C0880F991F0A9422
:100FF000E2F7809582238BBB089528B381E090E0CF
:10100000018002C0880F991F0A94E2F7809582231D
:1010100088BB089525B381E090E0018002C0880F6D
:10102000991F0A94E2F78095822385BB089522B325
:1010300081E090E0018002C0880F991F0A94E2F7D6
:101040008095822382BB0895813009F0B0C08081F1
:10105000813091F028F08230D9F0833029F12FC00F
:101060002AB381E090E0018002C0880F991F0A94A2
:10107000E2F7822B8ABB23C027B381E090E0018096
:1010800002C0880F991F0A94E2F7822B87BB17C012
:1010900024B381E090E0018002C0880F991F0A9478
:1010A000E2F7822B84BB0BC021B381E090E001808A
:1010B00002C0880F991F0A94E2F7822B81BB8381BB
:1010C000811139C08081813091F028F08230D9F0CF
:1010D000833029F108952BB381E090E0018002C0B4
:1010E000880F991F0A94E2F7822B8BBB089528B3CF
:1010F00081E090E0018002C0880F991F0A94E2F716
:10110000822B88BB089525B381E090E0018002C066
:10111000880F991F0A94E2F7822B85BB089522B3AA
:1011200081E090E0018002C0880F991F0A94E2F7E5
:10113000822B82BB08958081813099F028F0823023
:10114000E9F0833041F108952BB381E090E0018014
:1011500002C0880F991F0A94E2F7809582238BBB07
:10116000089528B381E090E0018002C0880F991FA4
:101170000A94E2F78095822388BB089525B381E025
:1011800090E0018002C0880F991F0A94E2F78095D1
:10119000822385BB089522B381E090E0018002C0E4
:1011A000880F991F0A94E2F78095822382BB0895E5
:1011B0002091F8003091F900FC01318320830895DB
:1011C0008FB780688FBF8BB780648BBF613069F049
:1011D00028F0623089F06330B1F0089585B78E7FD2
:1011E00085BF85B78D7F85BF089585B7816085BF31
:1011F00085B78D7F85BF089585B78E7F85BF85B7FD
:10120000826085BF089585B7816085BF85B782609C
:1012100085BF0895882319F08130D9F02EC08FB58D
:101220008E7F8FBD8FB58D7F8FBD8EB5877F8EBD35
:101230008EB58F7E8EBD8FB588608FBD8FB5846073
:101240008FBD8FB780688FBF89B7846089BF80E00A
:1012500008958FB58E7F8FBD8FB58D7F8FBD8EB575
:10126000877F8EBD8EB58F7E8EBD8FB588608FBD1A
:101270008FB584608FBD80E0089581E0089580344B
:10128000910529F130F48130910559F00897A1F0CA
:101290003FC0811521E0920729F18115944069F141
:1012A00037C08EB58D7F8EBD8EB58B7F8EBD8EB5D2
:1012B00081608EBD80E008958EB58E7F8EBD8EB527
:1012C0008B7F8EBD8EB582608EBD80E008958EB519
:1012D0008B7F8EBD8EB582608EBD8EB581608EBDDA
:1012E00080E008958EB58D7F8EBD8EB58E7F8EBDCC
:1012F0008EB584608EBD80E008958EB58D7F8EBDE5
:101300008EB584608EBD8EB581608EBD80E00895FF
:1013100081E008958EB58E7F8EBD8EB58D7F8EBD9A
:101320008EB58B7F8EBD0895CF93DF93C9E8D0E053
:101330008B810E940A090E948A09698188810E9422
:10134000E00810920D0181E090E00E943F09DF91DA
:10135000CF9108951F920F920FB60F9211242F93E1
:101360003F934F935F936F937F938F939F93AF932D
:10137000BF93EF93FF938CB59DB59093020180933B
:10138000010120910D01211114C09093FE00809362
:10139000FD001DBC1CBCE9E8F0E0628180810E9478
:1013A000E008109200011092FF0081E080930D018F
:1013B00013C09093FC008093FB002091FF003091BC
:1013C0000001821B930B9093F9008093F8000E9418
:1013D0008A0981E08093FA00FF91EF91BF91AF916C
:1013E0009F918F917F916F915F914F913F912F913D
:1013F0000F900FBE0F901F9018951F920F920FB66F
:101400000F9211248F939F938091FF009091000180
:101410000196909300018093FF009F918F910F9010
:101420000FBE0F901F9018958FB780688FBF0895DB
:10143000CF93809103018823A1F0C0E02EC0EC2F50
:10144000F0E0CF01880F991F880F991FE80FF91F4F
:10145000EB51FF4F41E0618180810E94C606CF5F62
:1014600001C0C0E0C23058F380910401819582BF71
:1014700081E08093030119C0EC2FF0E0CF01880FC9
:10148000991F880F991FE80FF91FEB51FF4F40E09C
:10149000618180810E94C606CF5FC23068F380916F
:1014A0000501819582BF10920301CF9108951F928B
:1014B0000F920FB60F9211242F933F934F935F9388
:1014C0006F937F938F939F93AF93BF93EF93FF930C
:1014D0000E94180AFF91EF91BF91AF919F918F9158
:1014E0007F916F915F914F913F912F910F900FBE20
:1014F0000F901F901895882319F0813079F016C04D
:1015000085B58F7B85BD85B5877F85BD8FB78068A5
:101510008FBF89B7806489BF80E0089585B58F7BD0
:1015200085BD85B5877F85BD80E0089581E00895FC
:1015300080349105C1F150F48830910501F1803279
:10154000910541F1019709F058C00EC0811521E0C5
:101550009207E9F1811524E0920709F443C080382D
:10156000910509F04AC028C085B58D7F85BD85B538
:101570008B7F85BD85B5816085BD80E0089585B58B
:101580008E7F85BD85B58B7F85BD85B5826085BD28
:1015900080E0089585B58B7F85BD85B5826085BD6A
:1015A00085B5816085BD85B5846085BD85B58D7F38
:1015B00085BD85B58E7F85BD85B58B7F85BD85B5A0
:1015C0008D7F85BD85B5816085BD80E0089585B539
:1015D000826085BD85B58E7F85BD85B5846085BDFE
:1015E00080E0089585B5826085BD85B5846085BD40
:1015F00085B5816085BD80E0089581E00895CF9232
:10160000DF92EF92FF92BC0180E090E00E940A0D11
:1016100020E030E04AE754E40E94690C6B017C0151
:1016200027E337E346E856E40E94FD0D18160CF454
:101630007CC015BC2DEB37E346E85EE3C701B6017D
:101640000E94640C8823C4F4A70196016DEB77E334
:1016500086E89EE30E94E00B2DEB37E346E85AE371
:101660000E94690C0E94DB0C64BD81E090E09093C5
:101670000901809308014FC02DEB37E346E85EE394
:10168000C701B6010E94640C811108C014BC81E03E
:1016900090E090930901809308013DC02DEB37E362
:1016A00046E85EE3C701B6010E94690C0E944D0C3A
:1016B0000E94DB0C709309016093080180E090E0C8
:1016C0000E940A0D20E030E040E85FE30E94E00B5A
:1016D0002DEB37E346E85EE30E94020E9B01AC016E
:1016E000C701B6010E94E00B2DEB37E346E85AE351
:1016F0000E94690C9B01AC0160E070E080E893E41B
:101700000E94E00B0E94DB0C64BD84B590E09093D6
:1017100007018093060110920B0110920A0180E0EC
:1017200094E00E94980A80E001C081E0FF90EF9071
:10173000DF90CF90089585B58E7F85BD85B58D7F6F
:1017400085BD85B58B7F85BD08951F920F920FB61D
:101750000F9211242F933F934F935F936F937F9337
:101760008F939F93AF93BF93EF93FF9380910A0161
:1017700090910B01019690930B0180930A012091A7
:101780000801309109018217930748F010920B016C
:1017900010920A0181E080930C010E949B0BFF9143
:1017A000EF91BF91AF919F918F917F916F915F91D9
:1017B0004F913F912F910F900FBE0F901F90189552
:1017C0005058BB27AA270E94F80B0C94AB0D0E941F
:1017D0009D0D38F00E94A40D20F039F49F3F19F4BC
:1017E00026F40C949A0D0EF4E095E7FB0C946B0D27
:1017F000E92F0E94BC0D58F3BA17620773078407DC
:10180000950720F079F4A6F50C94F60D0EF4E0950A
:101810000B2EBA2FA02D0B01B90190010C01CA01AA
:10182000A0011124FF27591B99F0593F50F4503E55
:1018300068F11A16F040A22F232F342F4427585F47
:10184000F3CF469537952795A795F0405395C9F75F
:101850007EF41F16BA0B620B730B840BBAF0915017
:10186000A1F0FF0FBB1F661F771F881FC2F70EC0B6
:10187000BA0F621F731F841F48F487957795679589
:10188000B795F7959E3F08F0B0CF9395880F08F075
:101890009927EE0F9795879508950E94DE0D90F099
:1018A0009F3748F4911116F40C94F70D60E070E046
:1018B00080E89FE3089526F01B16611D711D811DB0
:1018C0000C94710D0C948C0D0E94470D08F481E06E
:1018D00008950E947D0C0C94AB0D0E94A40D58F04D
:1018E0000E949D0D40F029F45F3F29F00C946B0D90
:1018F00051110C94F70D0C949A0D0E94BC0D68F3D5
:101900009923B1F3552391F3951B550BBB27AA27B8
:1019100062177307840738F09F5F5F4F220F331FF2
:10192000441FAA1FA9F335D00E2E3AF0E0E832D0BA
:1019300091505040E695001CCAF72BD0FE2F29D0BD
:10194000660F771F881FBB1F261737074807AB078F
:10195000B0E809F0BB0B802DBF01FF2793585F4F04
:101960003AF09E3F510578F00C946B0D0C94F70DF6
:101970005F3FE4F3983ED4F3869577956795B795E6
:10198000F7959F5FC9F7880F911D9695879597F9F1
:101990000895E1E0660F771F881FBB1F621773076A
:1019A0008407BA0720F0621B730B840BBA0BEE1F7F
:1019B00088F7E09508950E94C40D88F09F5798F02D
:1019C000B92F9927B751B0F0E1F0660F771F881F44
:1019D000991F1AF0BA95C9F714C0B13091F00E945E
:1019E000F60DB1E008950C94F60D672F782F882737
:1019F000B85F39F0B93FCCF3869577956795B39585
:101A0000D9F73EF490958095709561957F4F8F4FF3
:101A10009F4F0895E89409C097FB3EF490958095F8
:101A2000709561957F4F8F4F9F4F9923A9F0F92FA4
:101A300096E9BB279395F695879577956795B79522
:101A4000F111F8CFFAF4BB0F11F460FF1BC06F5F08
:101A50007F4F8F4F9F4F16C0882311F096E911C01A
:101A6000772321F09EE8872F762F05C0662371F03B
:101A700096E8862F70E060E02AF09A95660F771F4F
:101A8000881FDAF7880F9695879597F90895990F2B
:101A90000008550FAA0BE0E8FEEF16161706E80738
:101AA000F907C0F012161306E407F50798F0621B59
:101AB000730B840B950B39F40A2661F0232B242B2E
:101AC000252B21F408950A2609F4A140A6958FEF4D
:101AD000811D811D089597F99F6780E870E060E09F
:101AE0000895882371F4772321F09850872B762F5F
:101AF00007C0662311F499270DC09051862B70E022
:101B000060E02AF09A95660F771F881FDAF7880F32
:101B10009695879597F908959F3F31F0915020F45D
:101B2000879577956795B795880F911D96958795B9
:101B300097F908959FEF80EC089500240A941616F3
:101B4000170618060906089500240A9412161306AB
:101B5000140605060895092E0394000C11F4882339
:101B600052F0BB0F40F4BF2B11F460FF04C06F5F55
:101B70007F4F8F4F9F4F089557FD9058440F551F2B
:101B800059F05F3F71F04795880F97FB991F61F0FF
:101B90009F3F79F087950895121613061406551F76
:101BA000F2CF4695F1DF08C0161617061806991FE2
:101BB000F1CF869571056105089408950E94C40DC2
:101BC000A0F0BEE7B91788F4BB279F3860F416165B
:101BD000B11D672F782F8827985FF7CF8695779567
:101BE0006795B11D93959639C8F30895E894BB277E
:101BF00066277727CB0197F908950E94470D08F4CF
:101C00008FEF08950E94150E0C94AB0D0E949D0D50
:101C100038F00E94A40D20F0952311F00C946B0D68
:101C20000C949A0D11240C94F70D0E94BC0D70F3C6
:101C3000959FC1F3950F50E0551F629FF001729F71
:101C4000BB27F00DB11D639FAA27F00DB11DAA1F80
:101C5000649F6627B00DA11D661F829F2227B00DCD
:101C6000A11D621F739FB00DA11D621F839FA00D58
:101C7000611D221F749F3327A00D611D231F849FA8
:101C8000600D211D822F762F6A2F11249F575040FF
:101C90009AF0F1F088234AF0EE0FFF1FBB1F661F7A
:101CA000771F881F91505040A9F79E3F510580F043
:101CB0000C946B0D0C94F70D5F3FE4F3983ED4F356
:101CC000869577956795B795F795E7959F5FC1F7E7
:101CD000FE2B880F911D9695879597F90895BB2740
:101CE0004A3031F4992322F4BDE2909581959F4FBB
:101CF0000C947B0EBB27FB015527AA27880F991F41
:101D0000AA1FA41710F0A41B83955051B9F7A05D2A
:101D1000AA3308F0A95DA193009779F7B111B193A7
:101D20001192CB010C94940EDC01FC01672F719190
:101D30007723E1F7329704C07C916D9370836291B1
:0C1D4000AE17BF07C8F30895F894FFCF5A
:101D4C0003030101010003020001003A00370034D3
:101D5C000031003B00380035003200040506070056
:101D6C0000010000010301000000030201616B612E
:101D7C007472203730006C657373203230005365F9
:101D8C0074204465662E20526F742E005269676869
:101D9C0074004C65667420005269676874200053A7
:101DAC00706565643A004469723A4600446973741C
:101DBC003A0020436D0033302500353025000204F5
:101DCC000000010100000001000000010100000002
:00000001FF
