:100000000C942A000C94FB050C9481040C94A80415
:100010000C9447000C9447000C9447000C94470044
:100020000C9447000C9447000C9447000C949106E4
:100030000C9447000C9447000C9447000C94470024
:100040000C9447000C9447000C9447000C94470014
:100050000C94470011241FBECFE5D8E0DEBFCDBF12
:1000600010E0A0E6B0E0E6E3F0E102C005900D92FA
:10007000AC38B107D9F720E0ACE8B0E001C01D9280
:10008000AF39B207E1F70E946F020C9419080C9483
:10009000000085E690E00E94140380E690E00E9454
:1000A00014030E944E0608950F931F93CF93DF937E
:1000B00000D0CDB7DEB78C011A82198240E061E032
:1000C00083E00E94A30283EC99E00197F1F700C05E
:1000D000000041E061E083E00E94A3020E94E50588
:1000E000809192008130E1F7CE0101960E94CF0409
:1000F00069817A8180E090E00E94560729E23CE322
:1001000049EE53E40E94B506F8016083718382834F
:1001100093830F900F90DF91CF911F910F910895CE
:100120008032C0F56230C0F5E82FE695E695E69599
:100130008770611117C0F0E0EE0FFF1FE659FF4F07
:100140000190F081E02D408121E030E0B90102C052
:10015000660F771F8A95E2F7CB0180958423808311
:1001600080E008956130D1F4F0E0EE0FFF1FE65912
:10017000FF4F0190F081E02D408121E030E0B90196
:1001800002C0660F771F8A95E2F7CB01842B80832C
:1001900080E008958FEF08958FEF089580E008952F
:1001A0008032C0F56230C0F5E82FE695E695E69519
:1001B0008770611117C0F0E0EE0FFF1FEE58FF4F80
:1001C0000190F081E02D408121E030E0B90102C0D2
:1001D000660F771F8A95E2F7CB0180958423808391
:1001E00080E008956130D1F4F0E0EE0FFF1FEE588B
:1001F000FF4F0190F081E02D408121E030E0B90116
:1002000002C0660F771F8A95E2F7CB01842B8083AB
:1002100080E008958FEF08958FEF089580E00895AE
:100220001F93CF93DF93D82F60E082E00E94D0002D
:1002300060E081E00E94D0001D2F12951F70C0E089
:1002400011C0EC2FF0E0612F70E00C2E02C075950C
:1002500067950A94E2F76170E658FF4F80810E942B
:10026000D000CF5FC43068F361E083E00E94D0002B
:1002700089EF90E00197F1F700C0000060E083E0B3
:100280000E94D00092E49A95F1F700C0DF70C0E0C0
:1002900011C0EC2FF0E06D2F70E00C2E02C07595B0
:1002A00067950A94E2F76170E658FF4F80810E94DB
:1002B000D000CF5FC43068F361E083E00E94D000DB
:1002C00089EF90E00197F1F700C0000060E083E063
:1002D0000E94D00083EF91E00197F1F700C0000089
:1002E000DF91CF911F910895CF93C0E009C0EC2F0B
:1002F000F0E0E658FF4F61E080810E949000CF5F00
:10030000C430A8F361E081E00E94900061E082E0E7
:100310000E94900061E083E00E9490008FE097E2ED
:100320000197F1F700C0000082E00E94100189EF00
:1003300090E00197F1F700C0000088E20E941001F0
:1003400089EF90E00197F1F700C0000081E00E9482
:10035000100187EE93E00197F1F700C0000086E0FE
:100360000E94100189EF90E00197F1F700C00000B2
:100370008EE00E94100189EF90E00197F1F700C034
:100380000000CF9108951F93CF93DF93D82F60E0A3
:1003900082E00E94D00061E081E00E94D0001D2F29
:1003A00012951F70C0E011C0EC2FF0E0612F70E0DB
:1003B0000C2E02C0759567950A94E2F76170E658B5
:1003C000FF4F80810E94D000CF5FC43068F361E0AE
:1003D00083E00E94D00089EF90E00197F1F700C020
:1003E000000060E083E00E94D00092E49A95F1F76B
:1003F00000C0DF70C0E011C0EC2FF0E06D2F70E0A6
:100400000C2E02C0759567950A94E2F76170E65864
:10041000FF4F80810E94D000CF5FC43068F361E05D
:1004200083E00E94D00089EF90E00197F1F700C0CF
:10043000000060E083E00E94D00083EF91E001972C
:10044000F1F700C00000DF91CF911F91089581E086
:100450000E94100187EE93E00197F1F700C00000C1
:1004600082E00E94100187EE93E00197F1F700C04F
:10047000000008950F931F93CF93DF938C01FC012D
:100480008081C0E0D0E007C00E94C3012196F8013E
:10049000EC0FFD1F80818111F7CFDF91CF911F916C
:1004A0000F910895CF93DF93CDB7DEB72A970FB69C
:1004B000F894DEBF0FBECDBF4AE0BE016F5F7F4F35
:1004C0000E94E407CE0101960E943A022A960FB6D6
:1004D000F894DEBF0FBECDBFDF91CF910895CF93CB
:1004E000DF9300D000D0CDB7DEB719821A821B820D
:1004F0001C820E9474010E944900CE0101960E9454
:10050000540069817A818B819C810E942707CB01ED
:100510000E945202CE0101960E94540069817A81A4
:100520008B819C810E942707CB010E9452022FE7FA
:100530008AE196E0215080409040E1F700C0000041
:100540000E942702E7CF442319F04130A9F1089512
:10055000813089F028F08230C9F0833011F108959C
:100560002BB381E090E002C0880F991F6A95E2F7F3
:10057000822B8BBB089528B381E090E002C0880FE6
:10058000991F6A95E2F7822B88BB089525B381E015
:1005900090E002C0880F991F6A95E2F7822B85BB15
:1005A000089522B381E090E002C0880F991F6A95F8
:1005B000E2F7822B82BB0895813091F028F08230DF
:1005C000D9F0833029F108952BB381E090E002C087
:1005D000880F991F6A95E2F7809582238BBB089557
:1005E00028B381E090E002C0880F991F6A95E2F776
:1005F0008095822388BB089525B381E090E002C0F6
:10060000880F991F6A95E2F78095822385BB08952C
:1006100022B381E090E002C0880F991F6A95E2F74B
:100620008095822382BB0895FC0182818111B5C02F
:100630008081813099F028F08230E9F0833041F1F7
:1006400033C02AB381E090E0018002C0880F991F77
:100650000A94E2F7809582238ABB26C027B381E003
:1006600090E0018002C0880F991F0A94E2F78095FC
:10067000822387BB19C024B381E090E0018002C0CF
:10068000880F991F0A94E2F78095822384BB0CC0DF
:1006900021B381E090E0018002C0880F991F0A9485
:1006A000E2F78095822381BB83818130C9F5808107
:1006B000813091F028F08230D9F0833029F108950B
:1006C0002BB381E090E0018002C0880F991F0A944B
:1006D000E2F7822B8BBB089528B381E090E0018084
:1006E00002C0880F991F0A94E2F7822B88BB0895F5
:1006F00025B381E090E0018002C0880F991F0A9421
:10070000E2F7822B85BB089522B381E090E001805F
:1007100002C0880F991F0A94E2F7822B82BB0895CA
:100720008081813099F028F08230E9F0833041F106
:1007300008952BB381E090E0018002C0880F991FDB
:100740000A94E2F7809582238BBB089528B381E059
:1007500090E0018002C0880F991F0A94E2F780950B
:10076000822388BB089525B381E090E0018002C018
:10077000880F991F0A94E2F78095822385BB08951C
:1007800022B381E090E0018002C0880F991F0A9493
:10079000E2F78095822382BB0895813009F0B0C0D2
:1007A0008081813091F028F08230D9F0833029F1B6
:1007B0002FC02AB381E090E0018002C0880F991F0A
:1007C0000A94E2F7822B8ABB23C027B381E090E032
:1007D000018002C0880F991F0A94E2F7822B87BB21
:1007E00017C024B381E090E0018002C0880F991FF8
:1007F0000A94E2F7822B84BB0BC021B381E090E026
:10080000018002C0880F991F0A94E2F7822B81BBF6
:100810008381811139C08081813091F028F082304C
:10082000D9F0833029F108952BB381E090E0018065
:1008300002C0880F991F0A94E2F7822B8BBB0895A0
:1008400028B381E090E0018002C0880F991F0A94CC
:10085000E2F7822B88BB089525B381E090E0018008
:1008600002C0880F991F0A94E2F7822B85BB089576
:1008700022B381E090E0018002C0880F991F0A94A2
:10088000E2F7822B82BB08958081813099F028F0B5
:100890008230E9F0833041F108952BB381E090E09C
:1008A000018002C0880F991F0A94E2F78095822385
:1008B0008BBB089528B381E090E0018002C0880FCF
:1008C000991F0A94E2F78095822388BB089525B387
:1008D00081E090E0018002C0880F991F0A94E2F73E
:1008E0008095822385BB089522B381E090E001804A
:1008F00002C0880F991F0A94E2F78095822382BB79
:1009000008951F920F920FB60F9211242F933F93C9
:100910004F935F936F937F938F939F93AF93BF9307
:10092000EF93FF93E0918E00F0918F000995FF9176
:10093000EF91BF91AF919F918F917F916F915F9157
:100940004F913F912F910F900FBE0F901F901895D0
:100950001F920F920FB60F9211242F933F934F9334
:100960005F936F937F938F939F93AF93BF93EF9317
:10097000FF93E0918C00F0918D000995FF91EF912C
:10098000BF91AF919F918F917F916F915F914F91A7
:100990003F912F910F900FBE0F901F9018952091AF
:1009A000900030919100FC013183208308958330C1
:1009B00008F075C0643008F074C09FB790689FBF9E
:1009C000813081F120F0823009F457C06CC08BB7C0
:1009D00080648BBF613071F028F0623099F0633031
:1009E000C9F063C085B78E7F85BF85B78D7F85BF12
:1009F00080E0089585B7816085BF85B78D7F85BF0D
:100A000080E0089585B78E7F85BF85B7826085BFFA
:100A100080E0089585B7816085BF85B7826085BF16
:100A200080E008958BB780688BBF613071F028F04B
:100A3000623099F06330C9F03AC085B78B7F85BFCB
:100A400085B7877F85BF80E0089585B7846085BFBF
:100A500085B7877F85BF80E0089585B78B7F85BF89
:100A600085B7886085BF80E0089585B7846085BFBD
:100A700085B7886085BF80E008958BB780628BBFA3
:100A8000623019F0633031F014C084B78F7B84BFBB
:100A900080E0089584B7806484BF80E0089581E099
:100AA000089581E0089580E0089580E0089580E051
:100AB000089580E00895882319F08130D9F02EC080
:100AC0008FB58E7F8FBD8FB58D7F8FBD8EB5877FA4
:100AD0008EBD8EB58F7E8EBD8FB588608FBD8FB574
:100AE00084608FBD8FB780688FBF89B7846089BFEE
:100AF00080E008958FB58E7F8FBD8FB58D7F8FBDC0
:100B00008EB5877F8EBD8EB58F7E8EBD8FB588608A
:100B10008FBD8FB584608FBD80E0089581E008951A
:100B20008034910529F130F48130910559F008970E
:100B3000A1F03FC0811521E0920729F18115944071
:100B400069F137C08EB58D7F8EBD8EB58B7F8EBD22
:100B50008EB581608EBD80E008958EB58E7F8EBD8E
:100B60008EB58B7F8EBD8EB582608EBD80E0089580
:100B70008EB58B7F8EBD8EB582608EBD8EB5816049
:100B80008EBD80E008958EB58D7F8EBD8EB58E7F33
:100B90008EBD8EB584608EBD80E008958EB58D7F4C
:100BA0008EBD8EB584608EBD8EB581608EBD80E0B9
:100BB000089581E008958EB58E7F8EBD8EB58D7FB0
:100BC0008EBD8EB58B7F8EBD0895CF93DF93CEE71C
:100BD000D0E08B810E945B050E94DB0569818881E2
:100BE0000E94D70410929E0081E090E00E94900540
:100BF000DF91CF9108951F920F920FB60F9211249B
:100C00002F933F934F935F936F937F938F939F9314
:100C1000AF93BF93EF93FF938CB59DB590939A00DC
:100C20008093990020919E00211114C0909396000A
:100C3000809395001DBC1CBCEEE7F0E062818081D2
:100C40000E94D704109298001092970081E0809340
:100C50009E0013C09093940080939300209197007E
:100C600030919800821B930B909391008093900099
:100C70000E94DB0581E080939200FF91EF91BF918C
:100C8000AF919F918F917F916F915F914F913F9124
:100C90002F910F900FBE0F901F9018958FB78068FF
:100CA0008FBF0895CF9380919B008823A1F0C0E06F
:100CB0002EC0EC2FF0E0CF01880F991F880F991FED
:100CC000E80FF91FEE57FF4F41E0618180810E94DC
:100CD000A302CF5F01C0C0E0C23058F380919C00F6
:100CE000819582BF81E080939B0019C0EC2FF0E0DA
:100CF000CF01880F991F880F991FE80FF91FEE5732
:100D0000FF4F40E0618180810E94A302CF5FC2302B
:100D100068F380919D00819582BF10929B00CF91D6
:100D200008951F920F920FB60F9211242F933F93A5
:100D30004F935F936F937F938F939F93AF93BF93E3
:100D4000EF93FF930E945206FF91EF91BF91AF91F5
:100D50009F918F917F916F915F914F913F912F91D3
:100D60000F900FBE0F901F9018950E94C9060C940B
:100D7000AA070E94A30758F00E949C0740F029F49C
:100D80005F3F29F00C94930751110C94DE070C94EB
:100D900099070E94BB0768F39923B1F3552391F398
:100DA000951B550BBB27AA2762177307840738F0DA
:100DB0009F5F5F4F220F331F441FAA1FA9F335D037
:100DC0000E2E3AF0E0E832D091505040E695001CEB
:100DD000CAF72BD0FE2F29D0660F771F881FBB1FA5
:100DE000261737074807AB07B0E809F0BB0B802D83
:100DF000BF01FF2793585F4F3AF09E3F510578F0AF
:100E00000C9493070C94DE075F3FE4F3983ED4F311
:100E1000869577956795B795F7959F5FC9F7880F82
:100E2000911D9695879597F90895E1E0660F771FD4
:100E3000881FBB1F621773078407BA0720F0621B65
:100E4000730B840BBA0BEE1F88F7E09508950E9490
:100E5000C30788F09F5798F0B92F9927B751B0F082
:100E6000E1F0660F771F881F991F1AF0BA95C9F72E
:100E700014C0B13091F00E94DD07B1E008950C94E8
:100E8000DD07672F782F8827B85F39F0B93FCCF39B
:100E9000869577956795B395D9F73EF490958095AB
:100EA000709561957F4F8F4F9F4F0895E89409C0CB
:100EB00097FB3EF490958095709561957F4F8F4F8D
:100EC0009F4F9923A9F0F92F96E9BB279395F695A3
:100ED000879577956795B795F111F8CFFAF4BB0F21
:100EE00011F460FF1BC06F5F7F4F8F4F9F4F16C085
:100EF000882311F096E911C0772321F09EE8872F0F
:100F0000762F05C0662371F096E8862F70E060E0CA
:100F10002AF09A95660F771F881FDAF7880F969543
:100F2000879597F9089597F99F6780E870E060E0EA
:100F300008959FEF80EC089500240A941616170672
:100F400018060906089500240A94121613061406BA
:100F500005060895092E0394000C11F4882352F01D
:100F6000BB0F40F4BF2B11F460FF04C06F5F7F4FD5
:100F70008F4F9F4F089557FD9058440F551F59F0BC
:100F80005F3F71F04795880F97FB991F61F09F3F76
:100F900079F087950895121613061406551FF2CF9F
:100FA0004695F1DF08C0161617061806991FF1CFEF
:100FB00086957105610508940895E894BB27662716
:100FC0007727CB0197F90895BB274A3031F499234D
:100FD00022F4BDE2909581959F4F0C94F007BB27BA
:100FE000FB015527AA27880F991FAA1FA41710F0E5
:100FF000A41B83955051B9F7A05DAA3308F0A95DF1
:10100000A193009779F7B111B1931192CB010C9490
:101010000908DC01FC01672F71917723E1F7329712
:1010200004C07C916D9370836291AE17BF07C8F3C3
:061030000895F894FFCFC3
:10103600030101010003020001003A0037003400F9
:1010460031003B0038003500320004050607000376
:0C10560002010000010000000101000088
:00000001FF
