S00F000050726F6A6563742E737265633E
S11300000C942A000C94360A0C9447000C94470074
S11300100C9447000C94310C0C9447000C9447004A
S11300200C9447000C94890A0C9447000C94E30A3E
S11300300C9447000C9447000C9447000C94470020
S11300400C9447000C9447000C9447000C94470010
S11300500C94470011241FBECFE5D8E0DEBFCDBF0E
S113006010E0A0E6B0E0E4E6FEE102C005900D92E7
S1130070AE3EB107D9F721E0AEEEB0E001C01D926B
S1130080AC30B207E1F70E944E040C94300F0C948C
S113009000000E9452030E94DB0180E00E94070BD3
S11300A00E941F020895CF92DF92EF92FF928091F7
S11300B0F500813071F038F0823009F462C0833089
S11300C009F465C06BC00E94D30081E08093F50001
S11300D065C08FEE90E00E942A02C090EF00D0909D
S11300E0F000E090F100F090F20020E030E04CE805
S11300F052E4C701B6010E94890E181624F482E066
S11301008093F5004BC020E030E04CE852E4C70196
S1130110B6010E94F00C181674F020E030E040EFB5
S113012051E4C701B6010E94890E181624F483E035
S11301308093F50033C020E030E040EF51E4C70184
S1130140B6010E94F00C181674F020E030E040EA8A
S113015051E4C701B6010E94890E181624F484E004
S11301608093F5001BC020E030E040EA51E4C70171
S1130170B6010E94F00C88238CF485E08093F5008E
S11301800DC00E94950181E08093F50007C0109294
S1130190EE000E94CE0181E08093F500FF90EF9085
S11301A0DF90CF90089560E080E00E9405048DE820
S11301B090E00E94190460E081E00E9405048BE94C
S11301C090E00E94190488E893E10E948B0B35C0EB
S11301D063EF70E080E00E94DE018091F3008130E3
S11301E061F505C063EF70E080E00E94DE0180915C
S11301F0F3008130B9F38091F40081110FC081E0E4
S11302008093F40082E08093600060E081E00E94CB
S1130210050481EA90E00E9419040FC0813069F45A
S11302201092F40083E08093600060E081E00E941B
S1130230050487EA90E00E94190480910A01813044
S113024039F610920A0180ED97E00E948B0B8091A1
S11302500A018130E1F710920A010895CF92DF92EA
S1130260EF92FF92CF93DF93D82FC62F69017A01C3
S113027060E080E00E9405048EEA90E00E94190488
S113028067E080E00E940504D11105C085EB90E091
S11302900E9419040BC0D13029F48AEB90E00E942B
S11302A0190404C08FEB90E00E9419046BE080E015
S11302B00E94050484EC90E00E941904C11105C059
S11302C08AEC90E00E94190412C0C13029F48CEC2D
S11302D090E00E9419040BC0C33029F48EEC90E026
S11302E00E94190404C080ED90E00E94190460E0AB
S11302F081E00E94050482ED90E00E94190465E00B
S113030081E00E940504C701B6010E94670DCB017C
S11303100E94310488ED90E00E941904DF91CF918E
S1130320FF90EF90DF90CF9008958091EE008111BF
S113033013C081E08093EE002091EF003091F00033
S11303404091F1005091F20060E00E942E0188E893
S113035093E10E948B0B0895813099F480910A01F6
S1130360813079F42091EF003091F0004091F10058
S11303705091F20060E082E00E942E0110920A0186
S113038008952091EF003091F0004091F1005091D8
S1130390F20060E082E00E942E0108952091EF00B7
S11303A03091F0004091F1005091F20060E081E062
S11303B00E942E0108950E9453040895EF92FF9223
S11303C00F931F93CF93DF931F92CDB7DEB77B01BB
S11303D091E0998390E08C01000F111F000F111F11
S11303E0000F111F081B190B04521F4FAE014F5F62
S11303F05F4FF801618180810E946907F80186815D
S113040081110AC08981811104C081E0F7018083D0
S11304100EC0F70110820BC0813049F4898181112B
S113042003C0F701108203C081E0F70180830F90BD
S1130430DF91CF911F910F91FF90EF90089586E681
S113044090E00E949D0781E690E00E949D070E9433
S1130450A00A08950F931F93CF93DF9300D0CDB7D5
S1130460DEB78C011A82198240E061E083E00E94C9
S1130470F80683EC99E00197F1F700C0000041E031
S113048061E083E00E94F8060E94200A8091F8004F
S11304908130E1F7CE0101960E940A0969817A81CF
S11304A080E090E00E94960D29E23CE349EE53E49B
S11304B00E94F50C20E030E040E051E40E948E0EF2
S11304C0F80160837183828393831092F8000F9004
S11304D00F90DF91CF911F910F9108958032C0F555
S11304E06230C0F5E82FE695E695E69587706111D0
S11304F017C0F0E0EE0FFF1FE559FF4F0190F081A8
S1130500E02D408121E030E0B90102C0660F771F81
S11305108A95E2F7CB0180958423808380E0089557
S11305206130D1F4F0E0EE0FFF1FE559FF4F019069
S1130530F081E02D408121E030E0B90102C0660F76
S1130540771F8A95E2F7CB01842B808380E008959E
S11305508FEF08958FEF089580E008958032C0F5FD
S11305606230C0F5E82FE695E695E695877061114F
S113057017C0F0E0EE0FFF1FED58FF4F0190F08120
S1130580E02D408121E030E0B90102C0660F771F01
S11305908A95E2F7CB0180958423808380E00895D7
S11305A06130D1F4F0E0EE0FFF1FED58FF4F0190E2
S11305B0F081E02D408121E030E0B90102C0660FF6
S11305C0771F8A95E2F7CB01842B808380E008951E
S11305D08FEF08958FEF089580E008951F93CF93D0
S11305E0DF93D82F60E082E00E94AE0260E081E0F9
S11305F00E94AE021D2F12951F70C0E011C0EC2F97
S1130600F0E0612F70E00C2E02C0759567950A9496
S1130610E2F76170E558FF4F80810E94AE02CF5F20
S1130620C43068F361E083E00E94AE0289EF90E099
S11306300197F1F700C0000060E083E00E94AE0281
S113064092E49A95F1F700C0DF70C0E011C0EC2F7E
S1130650F0E06D2F70E00C2E02C0759567950A943A
S1130660E2F76170E558FF4F80810E94AE02CF5FD0
S1130670C43068F361E083E00E94AE0289EF90E049
S11306800197F1F700C0000060E083E00E94AE0231
S113069083EF91E00197F1F700C00000DF91CF9163
S11306A01F910895CF93C0E009C0EC2FF0E0E55806
S11306B0FF4F61E080810E946E02CF5FC430A8F3D7
S11306C061E081E00E946E0261E082E00E946E02BD
S11306D061E083E00E946E028FE097E20197F1F7F8
S11306E000C0000082E00E94EE0289EF90E00197D2
S11306F0F1F700C0000088E20E94EE0289EF90E06A
S11307000197F1F700C0000081E00E94EE0287EE3D
S113071093E00197F1F700C0000086E00E94EE022A
S113072089EF90E00197F1F700C000008CE00E948F
S1130730EE0289EF90E00197F1F700C00000CF913D
S113074008951F93CF93DF93D82F60E082E00E9437
S1130750AE0261E081E00E94AE021D2F12951F706F
S1130760C0E011C0EC2FF0E0612F70E00C2E02C04D
S1130770759567950A94E2F76170E558FF4F80819B
S11307800E94AE02CF5FC43068F361E083E00E9450
S1130790AE0289EF90E00197F1F700C0000060E03D
S11307A083E00E94AE0292E49A95F1F700C0DF70F4
S11307B0C0E011C0EC2FF0E06D2F70E00C2E02C0F1
S11307C0759567950A94E2F76170E558FF4F80814B
S11307D00E94AE02CF5FC43068F361E083E00E9400
S11307E0AE0289EF90E00197F1F700C0000060E0ED
S11307F083E00E94AE0283EF91E00197F1F700C01D
S11308000000DF91CF911F910895811108C06031DC
S113081030F4862F8F7080680E94EE020895813034
S113082039F4603128F4862F8F70806C0E94EE02B8
S113083008950F931F93CF93DF938C01FC01808164
S1130840C0E0D0E007C00E94A1032196F801EC0F9C
S1130850FD1F80818111F7CFDF91CF911F910F91FF
S11308600895CF93DF93CDB7DEB72A970FB6F894E8
S1130870DEBF0FBECDBF4AE0BE016F5F7F4F0E9457
S1130880FB0ECE0101960E9419042A960FB6F89425
S1130890DEBF0FBECDBFDF91CF9108950E94490006
S11308A00E945300FDCF20E09FC2822F90E0FC0104
S11308B0EE0FFF1FEE0FFF1FE80FF91FE158FF4F68
S11308C03281311149C1FC01EE0FFF1FEE0FFF1FF2
S11308D0E80FF91FE158FF4F30813130E9F030F073
S11308E0323081F1333009F443C057C03AB3FC01CC
S11308F0EE0FFF1FEE0FFF1FE80FF91FE158FF4F28
S113090041E050E0018002C0440F551F0A94E2F711
S1130910409543234ABB41C037B3FC01EE0FFF1F90
S1130920EE0FFF1FE80FF91FE158FF4F41E050E0C1
S1130930018002C0440F551F0A94E2F740954323F7
S113094047BB2BC034B3FC01EE0FFF1FEE0FFF1F9C
S1130950E80FF91FE158FF4F41E050E0018002C069
S1130960440F551F0A94E2F74095432344BB15C036
S113097031B3FC01EE0FFF1FEE0FFF1FE80FF91F4D
S1130980E158FF4F41E050E0018002C0440F551F81
S11309900A94E2F74095432341BBFC01EE0FFF1F8D
S11309A0EE0FFF1FE80FF91FE158FF4F338131307D
S11309B009F067C0FC01EE0FFF1FEE0FFF1FE80FE9
S11309C0F91FE158FF4F30813130E1F030F032301F
S11309D071F1333009F440C006C23BB3FC01EE0FA1
S11309E0FF1FEE0FFF1FE80FF91FE158FF4F81E0D3
S11309F090E0018002C0880F991F0A94E2F7832BCC
S1130A008BBBF1C138B3FC01EE0FFF1FEE0FFF1FCC
S1130A10E80FF91FE158FF4F81E090E0018002C028
S1130A20880F991F0A94E2F7832B88BBDCC135B386
S1130A30FC01EE0FFF1FEE0FFF1FE80FF91FE15837
S1130A40FF4F81E090E0018002C0880F991F0A9453
S1130A50E2F7832B85BBC7C132B3FC01EE0FFF1F46
S1130A60EE0FFF1FE80FF91FE158FF4F81E090E000
S1130A70018002C0880F991F0A94E2F7832B82BB7E
S1130A80B2C1FC01EE0FFF1FEE0FFF1FE80FF91FAD
S1130A90E158FF4F30813130E9F030F0323081F1EC
S1130AA0333009F443C09FC13BB3FC01EE0FFF1F79
S1130AB0EE0FFF1FE80FF91FE158FF4F81E090E0B0
S1130AC0018002C0880F991F0A94E2F7809583235E
S1130AD08BBB89C138B3FC01EE0FFF1FEE0FFF1F64
S1130AE0E80FF91FE158FF4F81E090E0018002C058
S1130AF0880F991F0A94E2F78095832388BB73C1FA
S1130B0035B3FC01EE0FFF1FEE0FFF1FE80FF91FB7
S1130B10E158FF4F81E090E0018002C0880F991FE7
S1130B200A94E2F78095832385BB5DC132B3FC014F
S1130B30EE0FFF1FEE0FFF1FE80FF91FE158FF4FE5
S1130B4081E090E0018002C0880F991F0A94E2F7C7
S1130B508095832382BB47C1313009F044C1FC0135
S1130B60EE0FFF1FEE0FFF1FE80FF91FE158FF4FB5
S1130B7030813130E1F030F0323071F1333009F44A
S1130B8040C053C03AB3FC01EE0FFF1FEE0FFF1F2E
S1130B90E80FF91FE158FF4F41E050E0018002C027
S1130BA0440F551F0A94E2F7432B4ABB3EC037B3A8
S1130BB0FC01EE0FFF1FEE0FFF1FE80FF91FE158B6
S1130BC0FF4F41E050E0018002C0440F551F0A94DA
S1130BD0E2F7432B47BB29C034B3FC01EE0FFF1FE0
S1130BE0EE0FFF1FE80FF91FE158FF4F41E050E0FF
S1130BF0018002C0440F551F0A94E2F7432B44BB03
S1130C0014C031B3FC01EE0FFF1FEE0FFF1FE80FFE
S1130C10F91FE158FF4F41E050E0018002C0440F4A
S1130C20551F0A94E2F7432B41BBFC01EE0FFF1F53
S1130C30EE0FFF1FE80FF91FE158FF4F3381311109
S1130C4067C0FC01EE0FFF1FEE0FFF1FE80FF91F37
S1130C50E158FF4F30813130E1F030F0323071F142
S1130C60333009F440C0BFC03BB3FC01EE0FFF1F9B
S1130C70EE0FFF1FE80FF91FE158FF4F81E090E0EE
S1130C80018002C0880F991F0A94E2F7832B8BBB63
S1130C90AAC038B3FC01EE0FFF1FEE0FFF1FE80FD1
S1130CA0F91FE158FF4F81E090E0018002C0880FF6
S1130CB0991F0A94E2F7832B88BB95C035B3FC01D6
S1130CC0EE0FFF1FEE0FFF1FE80FF91FE158FF4F54
S1130CD081E090E0018002C0880F991F0A94E2F736
S1130CE0832B85BB80C032B3FC01EE0FFF1FEE0FD8
S1130CF0FF1FE80FF91FE158FF4F81E090E00180EA
S1130D0002C0880F991F0A94E2F7832B82BB6BC041
S1130D10FC01EE0FFF1FEE0FFF1FE80FF91FE15854
S1130D20FF4F30813130E9F030F0323081F133302F
S1130D3009F443C058C03BB3FC01EE0FFF1FEE0F94
S1130D40FF1FE80FF91FE158FF4F81E090E0018099
S1130D5002C0880F991F0A94E2F7809583238BBB06
S1130D6042C038B3FC01EE0FFF1FEE0FFF1FE80F68
S1130D70F91FE158FF4F81E090E0018002C0880F25
S1130D80991F0A94E2F78095832388BB2CC035B35E
S1130D90FC01EE0FFF1FEE0FFF1FE80FF91FE158D4
S1130DA0FF4F81E090E0018002C0880F991F0A94F0
S1130DB0E2F78095832385BB16C032B3FC01EE0FA6
S1130DC0FF1FEE0FFF1F8E0F9F1FFC01E158FF4F07
S1130DD081E090E0018002C0880F991F0A94E2F735
S1130DE08095832382BB2F5F223008F45ECD089563
S1130DF0442319F04130A9F10895813089F028F095
S1130E008230C9F0833011F108952BB381E090E072
S1130E1002C0880F991F6A95E2F7822B8BBB089555
S1130E2028B381E090E002C0880F991F6A95E2F729
S1130E30822B88BB089525B381E090E002C0880F1F
S1130E40991F6A95E2F7822B85BB089522B381E04E
S1130E5090E002C0880F991F6A95E2F7822B82BB4B
S1130E600895813091F028F08230D9F0833029F14F
S1130E7008952BB381E090E002C0880F991F6A9512
S1130E80E2F7809582238BBB089528B381E090E03C
S1130E9002C0880F991F6A95E2F78095822388BB68
S1130EA0089525B381E090E002C0880F991F6A95E8
S1130EB0E2F78095822385BB089522B381E090E018
S1130EC002C0880F991F6A95E2F78095822382BB3E
S1130ED00895813089F028F08230C9F0833011F10F
S1130EE0089589B390E002C0959587956A95E2F7D5
S1130EF08170FA018083089586B390E002C09595CD
S1130F0087956A95E2F78170FA018083089583B327
S1130F1090E002C0959587956A95E2F78170FA0191
S1130F208083089580B390E002C0959587956A9573
S1130F30E2F78170FA0180830895FC0182818111B6
S1130F40B5C08081813099F028F08230E9F0833097
S1130F5041F133C02AB381E090E0018002C0880FE0
S1130F60991F0A94E2F7809582238ABB26C027B38F
S1130F7081E090E0018002C0880F991F0A94E2F793
S1130F808095822387BB19C024B381E090E001805F
S1130F9002C0880F991F0A94E2F78095822384BBCC
S1130FA00CC021B381E090E0018002C0880F991F3A
S1130FB00A94E2F78095822381BB83818130C9F54D
S1130FC08081813091F028F08230D9F0833029F18A
S1130FD008952BB381E090E0018002C0880F991F2F
S1130FE00A94E2F7822B8BBB089528B381E090E04A
S1130FF0018002C0880F991F0A94E2F7822B88BBF4
S1131000089525B381E090E0018002C0880F991F04
S11310100A94E2F7822B85BB089522B381E090E025
S1131020018002C0880F991F0A94E2F7822B82BBC9
S113103008958081813099F028F08230E9F083307E
S113104041F108952BB381E090E0018002C0880F44
S1131050991F0A94E2F7809582238BBB089528B3E5
S113106081E090E0018002C0880F991F0A94E2F7A2
S11310708095822388BB089525B381E090E00180A8
S113108002C0880F991F0A94E2F78095822385BBDA
S1131090089522B381E090E0018002C0880F991F77
S11310A00A94E2F78095822382BB0895813009F087
S11310B0B0C08081813091F028F08230D9F0833043
S11310C029F12FC02AB381E090E0018002C0880F8B
S11310D0991F0A94E2F7822B8ABB23C027B381E0CD
S11310E090E0018002C0880F991F0A94E2F7822BD6
S11310F087BB17C024B381E090E0018002C0880F51
S1131100991F0A94E2F7822B84BB0BC021B381E0C0
S113111090E0018002C0880F991F0A94E2F7822BA5
S113112081BB8381811139C08081813091F028F0A5
S11311308230D9F0833029F108952BB381E090E017
S1131140018002C0880F991F0A94E2F7822B8BBB9F
S1131150089528B381E090E0018002C0880F991FB0
S11311600A94E2F7822B88BB089525B381E090E0CE
S1131170018002C0880F991F0A94E2F7822B85BB75
S1131180089522B381E090E0018002C0880F991F86
S11311900A94E2F7822B82BB08958081813099F012
S11311A028F08230E9F0833041F108952BB381E0D7
S11311B090E0018002C0880F991F0A94E2F780959D
S11311C082238BBB089528B381E090E0018002C0A4
S11311D0880F991F0A94E2F78095822388BB0895AB
S11311E025B381E090E0018002C0880F991F0A9422
S11311F0E2F78095822385BB089522B381E090E0D5
S1131200018002C0880F991F0A94E2F78095822317
S113121082BB08952091F6003091F700FC013183E0
S113122020830895833008F075C0643008F074C0DA
S11312309FB790689FBF813081F120F0823009F41C
S113124057C06CC08BB780648BBF613071F028F0DD
S1131250623099F06330C9F063C085B78E7F85BF73
S113126085B78D7F85BF80E0089585B7816085BF90
S113127085B78D7F85BF80E0089585B78E7F85BF54
S113128085B7826085BF80E0089585B7816085BF9A
S113129085B7826085BF80E008958BB780688BBF77
S11312A0613071F028F0623099F06330C9F03AC0CF
S11312B085B78B7F85BF85B7877F85BF80E008951D
S11312C085B7846085BF85B7877F85BF80E0089533
S11312D085B78B7F85BF85B7886085BF80E008951B
S11312E085B7846085BF85B7886085BF80E0089531
S11312F08BB780628BBF623019F0633031F014C059
S113130084B78F7B84BF80E0089584B7806484BFF2
S113131080E0089581E0089581E0089580E00895D3
S113132080E0089580E0089580E00895882319F00E
S11313308130D9F02EC08FB58E7F8FBD8FB58D7F54
S11313408FBD8EB5877F8EBD8EB58F7E8EBD8FB5DA
S113135088608FBD8FB584608FBD8FB780688FBF65
S113136089B7846089BF80E008958FB58E7F8FBD73
S11313708FB58D7F8FBD8EB5877F8EBD8EB58F7EE9
S11313808EBD8FB588608FBD8FB584608FBD80E0C2
S1131390089581E008958034910529F130F4813075
S11313A0910559F00897A1F03FC0811521E09207FB
S11313B029F18115944069F137C08EB58D7F8EBDBA
S11313C08EB58B7F8EBD8EB581608EBD80E0089515
S11313D08EB58E7F8EBD8EB58B7F8EBD8EB58260B1
S11313E08EBD80E008958EB58B7F8EBD8EB58260F4
S11313F08EBD8EB581608EBD80E008958EB58D7FE3
S11314008EBD8EB58E7F8EBD8EB584608EBD80E020
S113141008958EB58D7F8EBD8EB584608EBD8EB5DC
S113142081608EBD80E0089581E008958EB58E7F41
S11314308EBD8EB58D7F8EBD8EB58B7F8EBD08958E
S1131440CF93DF93C9E8D0E08B810E9496090E9474
S1131450160A698188810E94120910920B0181E0A9
S113146090E00E94CB09DF91CF9108951F920F92D3
S11314700FB60F9211242F933F934F935F936F9363
S11314807F938F939F93AF93BF93EF93FF938CB509
S11314909DB5909300018093FF0020910B012111D1
S11314A014C09093FC008093FB001DBC1CBCE9E8B5
S11314B0F0E0628180810E9412091092FE00109275
S11314C0FD0081E080930B0113C09093FA00809398
S11314D0F9002091FD003091FE00821B930B909344
S11314E0F7008093F6000E94160A81E08093F800CA
S11314F0FF91EF91BF91AF919F918F917F916F91E8
S11315005F914F913F912F910F900FBE0F901F90BD
S113151018951F920F920FB60F9211248F939F93D9
S11315208091FD009091FE0001969093FE008093BF
S1131530FD009F918F910F900FBE0F901F901895F3
S11315408FB780688FBF0895CF938091010188235E
S1131550A1F0C0E02EC0EC2FF0E0CF01880F991F5E
S1131560880F991FE80FF91FED51FF4F41E061818A
S113157080810E94F806CF5F01C0C0E0C23058F3FA
S113158080910201819582BF81E08093010119C09D
S1131590EC2FF0E0CF01880F991F880F991FE80FF7
S11315A0F91FED51FF4F40E0618180810E94F806F0
S11315B0CF5FC23068F380910301819582BF10929E
S11315C00101CF9108951F920F920FB60F9211242B
S11315D02F933F934F935F936F937F938F939F9337
S11315E0AF93BF93EF93FF930E94A40AFF91EF91EF
S11315F0BF91AF919F918F917F916F915F914F9127
S11316003F912F910F900FBE0F901F901895882334
S113161019F0813079F016C085B58F7B85BD85B50D
S1131620877F85BD8FB780688FBF89B7806489BF86
S113163080E0089585B58F7B85BD85B5877F85BDA1
S113164080E0089581E0089580349105C1F150F45B
S11316508830910501F18032910541F1019709F03B
S113166058C00EC0811521E09207E9F1811524E0EC
S1131670920709F443C08038910509F04AC028C094
S113168085B58D7F85BD85B58B7F85BD85B581602D
S113169085BD80E0089585B58E7F85BD85B58B7F3A
S11316A085BD85B5826085BD80E0089585B58B7F55
S11316B085BD85B5826085BD85B5816085BD85B5EF
S11316C0846085BD85B58D7F85BD85B58E7F85BDDF
S11316D085B58B7F85BD85B58D7F85BD85B58160DD
S11316E085BD80E0089585B5826085BD85B58E7F12
S11316F085BD85B5846085BD80E0089585B582602B
S113170085BD85B5846085BD85B5816085BD80E076
S1131710089581E00895CF92DF92EF92FF92BC0189
S113172080E090E00E94960D20E030E04AE754E427
S11317300E94F50C6B017C0127E337E346E856E48D
S11317400E94890E18160CF47CC015BC2DEB37E3EF
S113175046E85EE3C701B6010E94F00C8823C4F496
S1131760A70196016DEB77E386E89EE30E946C0C7B
S11317702DEB37E346E85AE30E94F50C0E94670D0F
S113178064BD81E090E090930701809306014FC00F
S11317902DEB37E346E85EE3C701B6010E94F00C87
S11317A0811108C014BC81E090E0909307018093FC
S11317B006013DC02DEB37E346E85EE3C701B60101
S11317C00E94F50C0E94D90C0E94670D70930701CA
S11317D06093060180E090E00E94960D20E030E0E6
S11317E040E85FE30E946C0C2DEB37E346E85EE3D0
S11317F00E948E0E9B01AC01C701B6010E946C0CC5
S11318002DEB37E346E85AE30E94F50C9B01AC014B
S113181060E070E080E893E40E946C0C0E94670D25
S113182064BD84B590E09093050180930401109207
S113183009011092080180E094E00E94240B80E0EA
S113184001C081E0FF90EF90DF90CF90089585B5BF
S11318508E7F85BD85B58D7F85BD85B58B7F85BD27
S113186008951F920F920FB60F9211242F933F9356
S11318704F935F936F937F938F939F93AF93BF9394
S1131880EF93FF9380910801909109010196909341
S11318900901809308012091060130910701821704
S11318A0930748F0109209011092080181E0809397
S11318B00A010E94270CFF91EF91BF91AF919F9174
S11318C08F917F916F915F914F913F912F910F90E5
S11318D00FBE0F901F9018955058BB27AA270E943F
S11318E0840C0C94370E0E94290E38F00E94300E9E
S11318F020F039F49F3F19F426F40C94260E0EF4CC
S1131900E095E7FB0C94F70DE92F0E94480E58F37D
S1131910BA17620773078407950720F079F4A6F5D0
S11319200C94820E0EF4E0950B2EBA2FA02D0B0111
S1131930B90190010C01CA01A0011124FF27591B10
S113194099F0593F50F4503E68F11A16F040A22F16
S1131950232F342F4427585FF3CF46953795279587
S1131960A795F0405395C9F77EF41F16BA0B620B86
S1131970730B840BBAF09150A1F0FF0FBB1F661FCD
S1131980771F881FC2F70EC0BA0F621F731F841F10
S113199048F4879577956795B795F7959E3F08F036
S11319A0B0CF9395880F08F09927EE0F97958795F8
S11319B008950E946A0E90F09F3748F4911116F42E
S11319C00C94830E60E070E080E89FE3089526F0B5
S11319D01B16611D711D811D0C94FD0D0C94180EB8
S11319E00E94D30D08F481E008950E94090D0C941F
S11319F0370E0E94300E58F00E94290E40F029F450
S1131A005F3F29F00C94F70D51110C94830E0C9444
S1131A10260E0E94480E68F39923B1F3552391F3DF
S1131A20951B550BBB27AA2762177307840738F049
S1131A309F5F5F4F220F331F441FAA1FA9F335D0A6
S1131A400E2E3AF0E0E832D091505040E695001C5A
S1131A50CAF72BD0FE2F29D0660F771F881FBB1F14
S1131A60261737074807AB07B0E809F0BB0B802DF2
S1131A70BF01FF2793585F4F3AF09E3F510578F01E
S1131A800C94F70D0C94830E5F3FE4F3983ED4F36B
S1131A90869577956795B795F7959F5FC9F7880FF2
S1131AA0911D9695879597F90895E1E0660F771F44
S1131AB0881FBB1F621773078407BA0720F0621BD5
S1131AC0730B840BBA0BEE1F88F7E09508950E9400
S1131AD0500E88F09F5798F0B92F9927B751B0F05E
S1131AE0E1F0660F771F881F991F1AF0BA95C9F79E
S1131AF014C0B13091F00E94820EB1E008950C94AC
S1131B00820E672F782F8827B85F39F0B93FCCF35E
S1131B10869577956795B395D9F73EF4909580951A
S1131B20709561957F4F8F4F9F4F0895E89409C03A
S1131B3097FB3EF490958095709561957F4F8F4FFC
S1131B409F4F9923A9F0F92F96E9BB279395F69512
S1131B50879577956795B795F111F8CFFAF4BB0F90
S1131B6011F460FF1BC06F5F7F4F8F4F9F4F16C0F4
S1131B70882311F096E911C0772321F09EE8872F7E
S1131B80762F05C0662371F096E8862F70E060E03A
S1131B902AF09A95660F771F881FDAF7880F9695B3
S1131BA0879597F90895990F0008550FAA0BE0E857
S1131BB0FEEF16161706E807F907C0F0121613060B
S1131BC0E407F50798F0621B730B840B950B39F44B
S1131BD00A2661F0232B242B252B21F408950A26B1
S1131BE009F4A140A6958FEF811D811D089597F9F1
S1131BF09F6780E870E060E00895882371F477239C
S1131C0021F09850872B762F07C0662311F499276B
S1131C100DC09051862B70E060E02AF09A95660F13
S1131C20771F881FDAF7880F9695879597F9089597
S1131C309F3F31F0915020F4879577956795B7953C
S1131C40880F911D9695879597F908959FEF80ECDD
S1131C50089500240A94161617061806090608950E
S1131C6000240A9412161306140605060895092E74
S1131C700394000C11F4882352F0BB0F40F4BF2BE3
S1131C8011F460FF04C06F5F7F4F8F4F9F4F089523
S1131C9057FD9058440F551F59F05F3F71F0479519
S1131CA0880F97FB991F61F09F3F79F087950895FE
S1131CB0121613061406551FF2CF4695F1DF08C01D
S1131CC0161617061806991FF1CF8695710561053A
S1131CD0089408950E94500EA0F0BEE7B91788F446
S1131CE0BB279F3860F41616B11D672F782F8827FD
S1131CF0985FF7CF869577956795B11D939596393B
S1131D00C8F30895E894BB2766277727CB0197F992
S1131D1008950E94D30D08F48FEF08950E94A10E38
S1131D200C94370E0E94290E38F00E94300E20F0D9
S1131D30952311F00C94F70D0C94260E11240C9499
S1131D40830E0E94480E70F3959FC1F3950F50E0E7
S1131D50551F629FF001729FBB27F00DB11D639F59
S1131D60AA27F00DB11DAA1F649F6627B00DA11DFF
S1131D70661F829F2227B00DA11D621F739FB00DA5
S1131D80A11D621F839FA00D611D221F749F332715
S1131D90A00D611D231F849F600D211D822F762FAE
S1131DA06A2F11249F5750409AF0F1F088234AF08B
S1131DB0EE0FFF1FBB1F661F771F881F91505040F7
S1131DC0A9F79E3F510580F00C94F70D0C94830EF7
S1131DD05F3FE4F3983ED4F3869577956795B7957E
S1131DE0F795E7959F5FC1F7FE2B880F911D969598
S1131DF0879597F90895BB274A3031F4992322F443
S1131E00BDE2909581959F4F0C94070FBB27FB0172
S1131E105527AA27880F991FAA1FA41710F0A41BDF
S1131E2083955051B9F7A05DAA3308F0A95DA19339
S1131E30009779F7B111B1931192CB010C94200F53
S1131E40DC01FC01672F71917723E1F7329704C01D
S1131E507C916D9370836291AE17BF07C8F30895A8
S1071E60F894FFCF20
S1131E6403030101010003020001003A00370034B6
S1131E740031003B00380035003200040506070039
S1131E840001000001030100000003020153657412
S1131E94204465662E20526F742E0052696768745C
S1131EA4004C65667420005269676874200053709E
S1131EB46565643A00303025200033302520003530
S1131EC4302520004469723A200046004200520042
S1131ED44C00446973743A0020436D00020400000A
S1111EE40101000000010000000101000000E7
S9030000FC
