S00F000050726F6A6563742E737265633E
S11300000C942A000C94FA030C9421040C944804D4
S11300100C9447000C9447000C9447000C94470040
S11300200C9447000C9447000C9447000C94470030
S11300300C9447000C9447000C9447000C94470020
S11300400C9447000C9447000C9447000C94470010
S11300500C94470011241FBECFE5D8E0DEBFCDBF0E
S113006010E0A0E6B0E0E2EEF8E002C005900D92E8
S1130070A637B107D9F720E0A6E7B0E001C01D928A
S1130080AC37B207E1F70E948D000C946F040C9416
S113009000000E94AF000895EF92FF920F931F9308
S11300A0CF93DF931F92CDB7DEB77B0191E09983A5
S11300B090E08C01000F111F000F111F000F111F82
S11300C0081B190B01591F4FAE014F5F5F4FF80119
S11300D0618180810E94C603F801868181110AC072
S11300E08981811104C081E0F70180830EC0F7018A
S11300F010820BC0813049F48981811103C0F7015A
S1130100108203C081E0F70180830F90DF91CF91CB
S11301101F910F91FF90EF900895CF93DF931F925B
S1130120CDB7DEB70E944900BE016F5F7F4F80E00C
S11301300E944C008981811108C0E0E6F0E040E0B3
S1130140618180810E945503EFCF813069F7E0E639
S1130150F0E041E0618180810E945503E5CF20E019
S1130160A0C2822F90E0FC01EE0FFF1FEE0FFF1FD5
S1130170E80FF91FEB59FF4F3281311149C1FC01DE
S1130180EE0FFF1FEE0FFF1FE80FF91FEB59FF4F94
S113019030813130E9F030F0323081F1333009F41C
S11301A043C057C03AB3FC01EE0FFF1FEE0FFF1F11
S11301B0E80FF91FEB59FF4F41E050E0018002C006
S11301C0440F551F0A94E2F7409543234ABB41C0AC
S11301D037B3FC01EE0FFF1FEE0FFF1FE80FF91FEF
S11301E0EB59FF4F41E050E0018002C0440F551F1E
S11301F00A94E2F74095432347BB2BC034B3FC0178
S1130200EE0FFF1FEE0FFF1FE80FF91FEB59FF4F13
S113021041E050E0018002C0440F551F0A94E2F708
S11302204095432344BB15C031B3FC01EE0FFF1FBF
S1130230EE0FFF1FE80FF91FEB59FF4F41E050E0AD
S1130240018002C0440F551F0A94E2F740954323EE
S113025041BBFC01EE0FFF1FEE0FFF1FE80FF91F5C
S1130260EB59FF4F3381313009F067C0FC01EE0FC9
S1130270FF1FEE0FFF1FE80FF91FEB59FF4F3081EF
S11302803130E1F030F0323071F1333009F440C0F4
S113029007C23BB3FC01EE0FFF1FEE0FFF1FE80F79
S11302A0F91FEB59FF4F81E090E0018002C0880FF5
S11302B0991F0A94E2F7832B8BBBF2C138B3FC017C
S11302C0EE0FFF1FEE0FFF1FE80FF91FEB59FF4F53
S11302D081E090E0018002C0880F991F0A94E2F740
S11302E0832B88BBDDC135B3FC01EE0FFF1FEE0F7E
S11302F0FF1FE80FF91FEB59FF4F81E090E00180E9
S113030002C0880F991F0A94E2F7832B85BBC8C1EA
S113031032B3FC01EE0FFF1FEE0FFF1FE80FF91FB2
S1130320EB59FF4F81E090E0018002C0880F991FD4
S11303300A94E2F7832B82BBB3C1FC01EE0FFF1FCB
S1130340EE0FFF1FE80FF91FEB59FF4F30813130DB
S1130350E9F030F0323081F1333009F443C0A0C108
S11303603BB3FC01EE0FFF1FEE0FFF1FE80FF91F59
S1130370EB59FF4F81E090E0018002C0880F991F84
S11303800A94E2F7809583238BBB8AC138B3FC01BE
S1130390EE0FFF1FEE0FFF1FE80FF91FEB59FF4F82
S11303A081E090E0018002C0880F991F0A94E2F76F
S11303B08095832388BB74C135B3FC01EE0FFF1F06
S11303C0EE0FFF1FE80FF91FEB59FF4F81E090E09C
S11303D0018002C0880F991F0A94E2F78095832355
S11303E085BB5EC132B3FC01EE0FFF1FEE0FFF1F92
S11303F0E80FF91FEB59FF4F81E090E0018002C044
S1130400880F991F0A94E2F78095832382BB48C121
S1130410313009F045C1FC01EE0FFF1FEE0FFF1F45
S1130420E80FF91FEB59FF4F30813130E1F030F024
S1130430323071F1333009F440C053C03AB3FC0197
S1130440EE0FFF1FEE0FFF1FE80FF91FEB59FF4FD1
S113045041E050E0018002C0440F551F0A94E2F7C6
S1130460432B4ABB3EC037B3FC01EE0FFF1FEE0F18
S1130470FF1FE80FF91FEB59FF4F41E050E00180E7
S113048002C0440F551F0A94E2F7432B47BB29C00F
S113049034B3FC01EE0FFF1FEE0FFF1FE80FF91F2F
S11304A0EB59FF4F41E050E0018002C0440F551F5B
S11304B00A94E2F7432B44BB14C031B3FC01EE0FA2
S11304C0FF1FEE0FFF1FE80FF91FEB59FF4F41E02D
S11304D050E0018002C0440F551F0A94E2F7432BF9
S11304E041BBFC01EE0FFF1FEE0FFF1FE80FF91FCA
S11304F0EB59FF4F3381313009F067C0FC01EE0F37
S1130500FF1FEE0FFF1FE80FF91FEB59FF4F30815C
S11305103130E1F030F0323071F1333009F440C061
S1130520BFC03BB3FC01EE0FFF1FEE0FFF1FE80F30
S1130530F91FEB59FF4F81E090E0018002C0880F62
S1130540991F0A94E2F7832B8BBBAAC038B3FC0132
S1130550EE0FFF1FEE0FFF1FE80FF91FEB59FF4FC0
S113056081E090E0018002C0880F991F0A94E2F7AD
S1130570832B88BB95C035B3FC01EE0FFF1FEE0F34
S1130580FF1FE80FF91FEB59FF4F81E090E0018056
S113059002C0880F991F0A94E2F7832B85BB80C0A1
S11305A032B3FC01EE0FFF1FEE0FFF1FE80FF91F20
S11305B0EB59FF4F81E090E0018002C0880F991F42
S11305C00A94E2F7832B82BB6BC0FC01EE0FFF1F82
S11305D0EE0FFF1FE80FF91FEB59FF4F3081313049
S11305E0E9F030F0323081F1333009F443C058C0BF
S11305F03BB3FC01EE0FFF1FEE0FFF1FE80FF91FC7
S1130600EB59FF4F81E090E0018002C0880F991FF1
S11306100A94E2F7809583238BBB42C038B3FC0174
S1130620EE0FFF1FEE0FFF1FE80FF91FEB59FF4FEF
S113063081E090E0018002C0880F991F0A94E2F7DC
S11306408095832388BB2CC035B3FC01EE0FFF1FBC
S1130650EE0FFF1FE80FF91FEB59FF4F81E090E009
S1130660018002C0880F991F0A94E2F780958323C2
S113067085BB16C032B3FC01EE0FFF1FEE0FFF1F48
S11306808E0F9F1FFC01EB59FF4F81E090E001802A
S113069002C0880F991F0A94E2F78095832382BBD6
S11306A02F5F223008F45DCD0895442319F04130C2
S11306B0A9F10895813089F028F08230C9F083309F
S11306C011F108952BB381E090E002C0880F991FC7
S11306D06A95E2F7822B8BBB089528B381E090E002
S11306E002C0880F991F6A95E2F7822B88BB089590
S11306F025B381E090E002C0880F991F6A95E2F764
S1130700822B85BB089522B381E090E002C0880F5C
S1130710991F6A95E2F7822B82BB0895813091F08C
S113072028F08230D9F0833029F108952BB381E089
S113073090E002C0880F991F6A95E2F780958223A2
S11307408BBB089528B381E090E002C0880F991F05
S11307506A95E2F78095822388BB089525B381E0EA
S113076090E002C0880F991F6A95E2F78095822372
S113077085BB089522B381E090E002C0880F991FE1
S11307806A95E2F78095822382BB0895813089F0CF
S113079028F08230C9F0833011F1089589B390E0D4
S11307A002C0959587956A95E2F78170FA01808376
S11307B0089586B390E002C0959587956A95E2F70F
S11307C08170FA018083089583B390E002C0959507
S11307D087956A95E2F78170FA018083089580B362
S11307E090E002C0959587956A95E2F78170FA01C9
S11307F0808308951F920F920FB60F9211242F93A6
S11308003F934F935F936F937F938F939F93AF9394
S1130810BF93EF93FF93E0917A00F0917B000995E9
S1130820FF91EF91BF91AF919F918F917F916F91C4
S11308305F914F913F912F910F900FBE0F901F909A
S113084018951F920F920FB60F9211242F933F9376
S11308504F935F936F937F938F939F93AF93BF93C4
S1130860EF93FF93E0917800F09179000995FF915F
S1130870EF91BF91AF919F918F917F916F915F9114
S11308804F913F912F910F900FBE0F901F9018958D
S11308901F920F920FB60F9211242F933F934F93F1
S11308A05F936F937F938F939F93AF93BF93EF93D4
S11308B0FF93E0917600F09177000995FF91EF9115
S11308C0BF91AF919F918F917F916F915F914F9164
S11308D03F912F910F900FBE0F901F901895F89491
S10508E0FFCF44
S11308E201000101010000010000010301000000F8
S10908F2050000010100F5
S9030000FC
