S00F000050726F6A6563742E737265633E
S11300000C9432000C944F000C944F000C94600B31
S11300100C944F000C94A20D0C944F000C944F00C0
S11300200C944F000C94B30B0C944F000C94540C90
S11300300C944F000C944F000C944F000C944F0000
S11300400C944F000C944F000C944F000C944F00F0
S11300500C944F003A019B00A100FA000601120122
S11300601E01280111241FBECFE5D8E0DEBFCDBF9D
S113007011E0A0E6B0E0E6E4F1E202C005900D92E2
S1130080A830B107D9F721E0A8E0B1E001C01D9282
S1130090AD32B207E1F70E9456060C94A1100C94FD
S11300A000000E9405060E94E0040E94BF0580E053
S11300B00E94780C0E94ED0281E690E00E94FE040A
S11300C00895CF92DF92EF92FF920E9414038093DF
S11300D00A01813049F490910901911105C080937E
S11300E01401809309011AC0823059F490910901D6
S11300F0913039F487E08093140181E08093080102
S11301000DC0813059F480910901813039F482E0C5
S1130110809314010E946C0410920801E091140170
S11301208E2F90E08830910508F0A6C0FC01E65DB2
S1130130FF4F0C9487100E94410182E080931401C8
S11301409BC08FE091E00E940C06C0900F01D090FC
S11301501001E0901101F090120120E030E04CE831
S113016052E4C701B6010E940110181624F483E07A
S11301708093140181C020E030E04CE852E4C701D0
S1130180B6010E94610E181674F020E030E040EFD2
S113019051E4C701B6010E940110181624F484E04A
S11301A08093140169C020E030E040EF51E4C701BE
S11301B0B6010E94610E181674F020E030E040EAA7
S11301C051E4C701B6010E940110181624F485E019
S11301D08093140151C020E030E040EA51E4C701AB
S11301E0B6010E94610E88230CF046C086E080931D
S11301F0140142C010920C0110920D0110920B01D7
S11302000E94030282E08093140136C010920C0114
S113021010920E0110920B010E94350282E080932D
S113022014012AC010920E0110920C0110920D01BB
S11302300E94520282E0809314011EC010920E01AB
S113024010920D010E949F0282E08093140114C059
S113025010920E0110920C0110920D018091080170
S1130260813051F40E94CF02809108018F5F809306
S1130270080102C00E94DC02FF90EF90DF90CF9053
S113028008950E946C0460E080E00E945E0485E7AB
S113029090E00E944B0460E081E00E945E0483E8E9
S11302A090E00E944B0488E893E10E94FC0C2DC06E
S11302B063E171E080E00E94C40580911301813004
S11302C021F505C063E171E080E00E94C4058091DE
S11302D013018130B9F380916000813051F41092A0
S11302E0600060E00E945E0489E890E00E944B0494
S11302F00CC081110AC081E08093600060E00E941C
S11303005E048FE890E00E944B0480912B018130C1
S113031079F610922B0180ED97E00E94FC0C8091FD
S11303202B018130E1F70E946C0410922B01089597
S1130330CF92DF92EF92FF92CF93DF93D82FC62F05
S113034069017A0160E080E00E945E0486E990E041
S11303500E944B0467E080E00E945E04D11105C056
S11303608DE990E00E944B040BC0D13029F482EA5D
S113037090E00E944B0404C087EA90E00E944B0482
S11303806BE080E00E945E048CEA90E00E944B04E3
S11303906FE080E00E945E04C11105C081EB90E033
S11303A00E944B0412C0C13029F483EB90E00E94F8
S11303B04B040BC0C23029F485EB90E00E944B043F
S11303C004C087EB90E00E944B0460E081E00E944F
S11303D05E0489EB90E00E944B0465E081E00E949A
S11303E05E04C701B6010E94D80ECB010E947604B8
S11303F08FEB90E00E944B04DF91CF91FF90EF9040
S1130400DF90CF900895CF9380910E0181110FC09A
S1130410C1E0C0930E018EE10E948505C0931601D0
S11304201092150188E893E10E94FC0C0EC0813003
S113043061F480912B01813041F482E30E948505AF
S113044082E08093160110922B0120910F013091CC
S11304501001409111015091120160911501809198
S113046016010E949801CF91089580910D01811188
S11304700AC08EE10E94850581E0809316011092E6
S1130480150180930D0120910F01309110014091CD
S113049011015091120160911501809116010E9481
S11304A0980108950E943B0520910F01309110019D
S11304B0409111015091120163E080E00E94980183
S11304C088EE93E00E94FC0C80912B018823E1F3D9
S11304D010922B0180910B018430C0F420910F0104
S11304E030911001409111015091120162E082E0BB
S11304F00E94980162E370E0809160000E944F05C1
S113050080910B018F5F80930B01089520910F015F
S113051030911001409111015091120163E080E08B
S11305200E94980188EB9BE00E94FC0C80912B01B7
S11305308823E1F310922B0110920B01089580910E
S11305400C0181111CC00E943B0520910F013091C8
S11305501001409111015091120163E080E00E946A
S1130560980188EE93E00E94FC0C80912B01882373
S1130570E1F310922B0181E080930C010895209106
S11305800F0130911001409111015091120161E06D
S113059081E00E9498018EE10E94A20508950E94C4
S11305A06C040E943B0560E080E00E945E0483ECE2
S11305B090E00E944B04089560E080E00E945E0495
S11305C080ED90E00E944B0460E081E00E945E04B4
S11305D08CED90E00E944B040895CF93C0E00EC0D0
S11305E08C2F90E09C01220F331F220F331F820FA8
S11305F0931F81519F4F0E943407CF5FCC2381F317
S1130600C0E00EC08C2F90E09C01220F331F220FFC
S1130610331F820F931F8B519F4F0E943407CF5F6C
S1130620C23080F3CF910895CF92DF92EF92FF9280
S11306300F931F93CF93DF931F92CDB7DEB781E063
S1130640898300E057C0E02EF12CF701EE0FFF1F65
S1130650EE0FFF1FEE0DFF1DEB51FF4F41E06385D1
S113066082E00E945B0610E034C0C12ED12CF6015A
S1130670EE0FFF1FEE0FFF1FEC0DFD1DEB51FF4FA3
S1130680AE014F5F5F4F618182E00E94CC06898199
S113069081111EC010C0F601EE0FFF1FEE0FFF1FE9
S11306A0EC0DFD1DEB51FF4FAE014F5F5F4F6181BC
S11306B082E00E94CC068981882369F3C701880FF0
S11306C0991F8B519F4FFC01EC0DFD1D878516C0B2
S11306D01F5F123050F2F701EE0FFF1FEE0FFF1FE6
S11306E0EE0DFF1DEB51FF4F40E0638582E00E9459
S11306F05B060F5F002309F4A6CF80E00F90DF9123
S1130700CF911F910F91FF90EF90DF90CF900895BC
S1130710CF93C82F60E081E00E949E096C2F661F72
S11307206627661F87E00E949E09C6FB662760F95C
S113073086E00E949E09C5FB662760F985E00E9459
S11307409E09C4FB662760F984E00E949E0961E06B
S113075083E00E949E0989EF90E00197F1F700C0C1
S1130760000060E083E00E949E0989EF90E0019719
S1130770F1F700C00000C3FB662760F987E00E9420
S11307809E09C2FB662760F986E00E949E09C1FBB0
S1130790662760F985E00E949E096C2F617084E0F1
S11307A00E949E0961E083E00E949E0989EF90E027
S11307B00197F1F700C0000060E083E00E949E0909
S11307C089EF90E00197F1F700C00000CF91089500
S11307D0CF93C82F61E081E00E949E096C2F661FB1
S11307E06627661F87E00E949E09C6FB662760F99C
S11307F086E00E949E09C5FB662760F985E00E9499
S11308009E09C4FB662760F984E00E949E0961E0AA
S113081083E00E949E0989EF90E00197F1F700C000
S1130820000060E083E00E949E0989EF90E0019758
S1130830F1F700C00000C3FB662760F987E00E945F
S11308409E09C2FB662760F986E00E949E09C1FBEF
S1130850662760F985E00E949E096C2F617084E030
S11308600E949E0961E083E00E949E0989EF90E066
S11308700197F1F700C0000060E083E00E949E0948
S113088089EF90E00197F1F700C00000CF9108953F
S11308900E94E80308950F931F93CF938C01C0E047
S11308A003C00E944804CF5FF801EC0FF11D808162
S11308B08111F7CFCF911F910F910895811105C038
S11308C0862F80680E9488030895813021F480EC8B
S11308D0860F0E948803089581E00E94880389EFAF
S11308E090E00197F1F700C000000895EF92FF92A5
S11308F01F93CF93DF93CDB7DEB72A970FB6F89443
S1130900DEBF0FBECDBF7C01009721F480E30E94BF
S113091048042DC0992334F4F194E194F1088DE254
S11309200E94480410E010C0C7016AE070E00E9411
S11309307310E1E0F0E0EC0FFD1FE10FF11D805DAD
S113094080831F5FE62EF72EE114F10469F70DC0D2
S1130950E12FF0E0319781E090E08C0F9D1FE80FCC
S1130960F91F80810E94480411501111F1CF2A9679
S11309700FB6F894DEBF0FBECDBFDF91CF911F91AC
S1130980FF90EF90089560E081E00E94A10860E08C
S113099083E00E94A10860E082E00E94A10860E078
S11309A084E00E94A10860E085E00E94A10860E064
S11309B086E00E94A10860E087E00E94A1080895F3
S11309C00E94C30487EA91E60197F1F700C0000092
S11309D082E00E94880388E20E9488038CE00E94DF
S11309E0880381E00E94880389EF90E00197F1F782
S11309F000C0000086E00E9488030895EF92FF92F1
S1130A001F93CF93DF930097B9F481E01BC0C12FEC
S1130A10D0E0CE01880F991FC80FD91FCE0DDF1D5E
S1130A2041E06A8188810E94250A41E06A818981C6
S1130A300E94250A1F5F02C07C0110E0123038F3C7
S1130A400E941E0CDF91CF911F91FF90EF900895AB
S1130A50009779F070E0FB01EE0FFF1F6E0F7F1F10
S1130A60FC01E60FF71F608182810E94000780E08D
S1130A70089581E0089541E060E082E00E945B0611
S1130A8041E061E082E00E945B060E941A0C089536
S1130A90853610F081E008950E94350C0895811187
S1130AA01AC060E081E690E00E94280580EA9FE099
S1130AB00E94FC0C82E30E94480580912B0188234C
S1130AC0E1F30E941A0C10922B0160E081E690E0A1
S1130AD00E942805089561E081E690E00E942805BF
S1130AE08CE692E00E94FC0C82E30E94480580910F
S1130AF02B018823E1F30E941A0C10922B0161E070
S1130B0081E690E00E9428050895CF93DF930E9428
S1130B104805C1E6D0E0688140E08A810E945B0616
S1130B20698141E08A810E945B066B8140E08D818E
S1130B300E945B066C8141E08D810E945B06DF911F
S1130B40CF910895CF93DF930E944805C1E6D0E08A
S1130B50688141E08A810E945B06698140E08A8164
S1130B600E945B066B8141E08D810E945B066C8173
S1130B7040E08D810E945B06DF91CF91089562E091
S1130B8084E10E94A1080895EF92FF920F931F93AE
S1130B90CF93DF931F92CDB7DEB77B0191E09983AA
S1130BA090E08C01000F111F000F111F000F111F87
S1130BB0081B190B0A501F4FAE014F5F5F4FF8011E
S1130BC0618180810E94CC06F801868181110AC06E
S1130BD08981811104C081E0F70180830EC0F7018F
S1130BE010820BC0813049F48981811103C0F7015F
S1130BF0108203C081E0F70180830F90DF91CF91D1
S1130C001F910F91FF90EF90089587E690E00E9466
S1130C1034070E94CA0B08950F931F93CF93DF9359
S1130C2000D0CDB7DEB78C011A82198240E063E0B0
S1130C3081E00E945B0683EC99E00197F1F700C024
S1130C40000041E063E081E00E945B060E944A0BE1
S1130C50809119018130E1F7CE0101960E94A50A25
S1130C6069817A8180E090E00E940E0F29E23CE3E2
S1130C7049EE53E40E94660E20E030E040E051E487
S1130C800E94061020E030E040E85FE30E94DE0DA1
S1130C90F8016083718382839383109219010F900A
S1130CA00F90DF91CF911F910F9108950E945100F1
S1130CB00E946100FDCF442319F04130A9F1089549
S1130CC0813089F028F08230C9F0833011F1089521
S1130CD02BB381E090E002C0880F991F6A95E2F778
S1130CE0822B8BBB089528B381E090E002C0880F6B
S1130CF0991F6A95E2F7822B88BB089525B381E09A
S1130D0090E002C0880F991F6A95E2F7822B85BB99
S1130D10089522B381E090E002C0880F991F6A957C
S1130D20E2F7822B82BB0895813091F028F0823063
S1130D30D9F0833029F108952BB381E090E002C00B
S1130D40880F991F6A95E2F7809582238BBB0895DB
S1130D5028B381E090E002C0880F991F6A95E2F7FA
S1130D608095822388BB089525B381E090E002C07A
S1130D70880F991F6A95E2F78095822385BB0895B1
S1130D8022B381E090E002C0880F991F6A95E2F7D0
S1130D908095822382BB0895813089F028F08230C7
S1130DA0C9F0833011F1089589B390E002C095959C
S1130DB087956A95E2F78170FA018083089586B376
S1130DC090E002C0959587956A95E2F78170FA01E3
S1130DD08083089583B390E002C0959587956A95C2
S1130DE0E2F78170FA018083089580B390E002C035
S1130DF0959587956A95E2F78170FA018083089545
S1130E00813089F028F08230C9F0833011F10895DF
S1130E102BB381E090E002C0880F991F6A95E2F736
S1130E2082278BBB089528B381E090E002C0880F2D
S1130E30991F6A95E2F7822788BB089525B381E05C
S1130E4090E002C0880F991F6A95E2F7822785BB5C
S1130E50089522B381E090E002C0880F991F6A953B
S1130E60E2F7822782BB0895FC0182818111B5C01B
S1130E708081813099F028F08230E9F0833041F1AB
S1130E8033C02AB381E090E0018002C0880F991F2B
S1130E900A94E2F7809582238ABB26C027B381E0B7
S1130EA090E0018002C0880F991F0A94E2F78095B0
S1130EB0822387BB19C024B381E090E0018002C083
S1130EC0880F991F0A94E2F78095822384BB0CC093
S1130ED021B381E090E0018002C0880F991F0A9439
S1130EE0E2F78095822381BB83818130C9F58081BB
S1130EF0813091F028F08230D9F0833029F10895BF
S1130F002BB381E090E0018002C0880F991F0A94FE
S1130F10E2F7822B8BBB089528B381E090E0018037
S1130F2002C0880F991F0A94E2F7822B88BB0895A8
S1130F3025B381E090E0018002C0880F991F0A94D4
S1130F40E2F7822B85BB089522B381E090E0018013
S1130F5002C0880F991F0A94E2F7822B82BB08957E
S1130F608081813099F028F08230E9F0833041F1BA
S1130F7008952BB381E090E0018002C0880F991F8F
S1130F800A94E2F7809582238BBB089528B381E00D
S1130F9090E0018002C0880F991F0A94E2F78095BF
S1130FA0822388BB089525B381E090E0018002C0CC
S1130FB0880F991F0A94E2F78095822385BB0895D0
S1130FC022B381E090E0018002C0880F991F0A9447
S1130FD0E2F78095822382BB0895813009F0B0C086
S1130FE08081813091F028F08230D9F0833029F16A
S1130FF02FC02AB381E090E0018002C0880F991FBE
S11310000A94E2F7822B8ABB23C027B381E090E0E5
S1131010018002C0880F991F0A94E2F7822B87BBD4
S113102017C024B381E090E0018002C0880F991FAB
S11310300A94E2F7822B84BB0BC021B381E090E0D9
S1131040018002C0880F991F0A94E2F7822B81BBAA
S11310508381811139C08081813091F028F0823000
S1131060D9F0833029F108952BB381E090E0018019
S113107002C0880F991F0A94E2F7822B8BBB089554
S113108028B381E090E0018002C0880F991F0A9480
S1131090E2F7822B88BB089525B381E090E00180BC
S11310A002C0880F991F0A94E2F7822B85BB08952A
S11310B022B381E090E0018002C0880F991F0A9456
S11310C0E2F7822B82BB08958081813099F028F069
S11310D08230E9F0833041F108952BB381E090E050
S11310E0018002C0880F991F0A94E2F78095822339
S11310F08BBB089528B381E090E0018002C0880F83
S1131100991F0A94E2F78095822388BB089525B33A
S113111081E090E0018002C0880F991F0A94E2F7F1
S11311208095822385BB089522B381E090E00180FD
S113113002C0880F991F0A94E2F78095822382BB2C
S11311400895982F9695969596958770613009F431
S113115055C020F0623009F4A1C008959130C1F067
S113116028F0923039F19330B9F108954AB321E06F
S113117030E0B90102C0660F771F8A95E2F7CB0110
S1131180942F982B9ABB9BB3809589238BBB08958E
S113119047B321E030E0B90102C0660F771F8A959A
S11311A0E2F7CB01942F982B97BB98B380958923B2
S11311B088BB089544B321E030E0B90102C0660F52
S11311C0771F8A95E2F7CB01942F982B94BB95B3A4
S11311D08095892385BB089541B321E030E0B901AE
S11311E002C0660F771F8A95E2F7CB01942F982BE4
S11311F091BB92B38095892382BB08959130C1F04D
S113120028F0923039F19330B9F108954AB321E0CE
S113121030E0B90102C0660F771F8A95E2F7CB016F
S11312208095942F98239ABB9BB389238BBB0895F5
S113123047B321E030E0B90102C0660F771F8A95F9
S1131240E2F7CB018095942F982397BB98B3892319
S113125088BB089544B321E030E0B90102C0660FB1
S1131260771F8A95E2F7CB018095942F982394BB3E
S113127095B3892385BB089541B321E030E0B901DA
S113128002C0660F771F8A95E2F7CB018095942FF1
S1131290982391BB92B3892382BB08959130C1F006
S11312A028F0923039F19330B9F108954AB321E02E
S11312B030E0B90102C0660F771F8A95E2F7CB01CF
S11312C0962F909594239ABB9BB3892B8BBB08953F
S11312D047B321E030E0B90102C0660F771F8A9559
S11312E0E2F7CB01962F9095942397BB98B3892B63
S11312F088BB089544B321E030E0B90102C0660F11
S1131300771F8A95E2F7CB01962F9095942394BB8F
S113131095B3892B85BB089541B321E030E0B90131
S113132002C0660F771F8A95E2F7CB01962F90953E
S1131330942391BB92B3892B82BB0895982F9695E1
S1131340969596958770662309F43FC0613009F03D
S11313507BC0913099F028F09230E9F0933041F15C
S113136008954BB321E030E0B90102C0660F771F46
S11313708A95E2F7CB01842B8BBB089548B321E017
S113138030E0B90102C0660F771F8A95E2F7CB01FE
S1131390842B88BB089545B321E030E0B90102C035
S11313A0660F771F8A95E2F7CB01842B85BB0895DE
S11313B042B321E030E0B90102C0660F771F8A957D
S11313C0E2F7CB01842B82BB08959130A1F028F081
S11313D09230F9F0933059F108954BB321E030E0A5
S11313E0B90102C0660F771F8A95E2F7CB01809599
S11313F084238BBB089548B321E030E0B90102C0D7
S1131400660F771F8A95E2F7CB018095842388BB0A
S1131410089545B321E030E0B90102C0660F771F9B
S11314208A95E2F7CB018095842385BB089542B366
S113143021E030E0B90102C0660F771F8A95E2F718
S1131440CB018095842382BB0895411140C0613053
S1131450A1F028F06230F9F0633059F108954AB3ED
S113146021E030E0B90102C0660F771F8A95E2F7E8
S1131470CB01809584238ABB089547B321E030E0F3
S1131480B90102C0660F771F8A95E2F7CB018095F8
S1131490842387BB089544B321E030E0B90102C03E
S11314A0660F771F8A95E2F7CB018095842384BB6E
S11314B0089541B321E030E0B90102C0660F771FFF
S11314C08A95E2F7CB018095842381BB089541304E
S11314D0D9F5613099F028F06230E9F0633041F1D8
S11314E008954AB321E030E0B90102C0660F771FC6
S11314F08A95E2F7CB01842B8ABB089547B321E098
S113150030E0B90102C0660F771F8A95E2F7CB017C
S1131510842B87BB089544B321E030E0B90102C0B5
S1131520660F771F8A95E2F7CB01842B84BB08955D
S113153041B321E030E0B90102C0660F771F8A95FC
S1131540E2F7CB01842B81BB0895209117013091E0
S11315501801FC013183208308958FB780688FBF01
S11315608BB780628BBF623019F0633029F0089525
S113157084B78F7B84BF089584B7806484BF089543
S1131580882319F08130D9F02EC08FB58E7F8FBD9E
S11315908FB58D7F8FBD8EB5877F8EBD8EB58F7EC7
S11315A08EBD8FB588608FBD8FB584608FBD8FB7BA
S11315B080688FBF89B7846089BF80E008958FB544
S11315C08E7F8FBD8FB58D7F8FBD8EB5877F8EBD8E
S11315D08EB58F7E8EBD8FB588608FBD8FB58460CC
S11315E08FBD80E0089581E008958034910529F14C
S11315F030F48130910559F00897A1F03FC081156E
S113160021E0920729F18115944069F137C08EB524
S11316108D7F8EBD8EB58B7F8EBD8EB581608EBD68
S113162080E008958EB58E7F8EBD8EB58B7F8EBD86
S11316308EB582608EBD80E008958EB58B7F8EBDA1
S11316408EB582608EBD8EB581608EBD80E00895BA
S11316508EB58D7F8EBD8EB58E7F8EBD8EB584602A
S11316608EBD80E008958EB58D7F8EBD8EB584606D
S11316708EBD8EB581608EBD80E0089581E00895B1
S11316808EB58E7F8EBD8EB58D7F8EBD8EB58B7FD4
S11316908EBD0895CF93DF93C1E7D0E08B810E9484
S11316A0C00A0E94400B698188810E94AD0A109291
S11316B02C0181E090E00E94F50ADF91CF9108951A
S11316C01F920F920FB60F9211242F933F934F93B3
S11316D05F936F937F938F939F93AF93BF93EF9396
S11316E0FF938CB59DB590932101809320012091A7
S11316F02C01211114C090931D0180931C011DBC69
S11317001CBCE1E7F0E0628180810E94AD0A109286
S11317101F0110921E0181E080932C0113C090934D
S11317201B0180931A0120911E0130911F01821B1D
S1131730930B90931801809317010E94400B81E052
S113174080931901FF91EF91BF91AF919F918F9178
S11317507F916F915F914F913F912F910F900FBEA9
S11317600F901F9018951F920F920FB60F9211248D
S11317708F939F9380911E0190911F0101969093E6
S11317801F0180931E019F918F910F900FBE0F90A8
S11317901F9018958FB780688FBF0895CF9380915D
S11317A022018823A1F0C0E02EC0EC2FF0E0CF018D
S11317B0880F991F880F991FE80FF91FE350FF4FF7
S11317C041E0618180810E945B06CF5F01C0C0E07F
S11317D0C23058F380912301819582BF81E08093C8
S11317E0220119C0EC2FF0E0CF01880F991F880F58
S11317F0991FE80FF91FE350FF4F40E0618180819A
S11318000E945B06CF5FC23068F38091240181950A
S113181082BF10922201CF91089583B7877B83BF43
S113182089B7816089BF7894089583B7887F85607C
S113183083BF089583B7887F83BF0895CF930E94A1
S11318400D0CC0E00EC08C2F90E09C01220F331FC2
S1131850220F331F820F931F83509F4F0E94340720
S1131860CF5FC23080F3CF910895CF93DF93E82FF9
S1131870F0E0982FC4E6D0E080E0BE010E9473102F
S1131880262F60932401CE018E1B9F0B982F80E09E
S1131890BE010E94731060932301219522BF0E9410
S11318A0150CDF91CF9108951F920F920FB60F92EE
S11318B011242F933F934F935F936F937F938F9351
S11318C09F93AF93BF93EF93FF930E94CE0BFF912F
S11318D0EF91BF91AF919F918F917F916F915F91A4
S11318E04F913F912F910F900FBE0F901F9018951D
S11318F0882319F0813079F016C085B58F7B85BDBA
S113190085B5877F85BD8FB780688FBF89B78064B1
S113191089BF80E0089585B58F7B85BD85B5877FB8
S113192085BD80E0089581E0089580349105C1F17A
S113193050F48830910501F18032910541F101970D
S113194009F058C00EC0811521E09207E9F1811514
S113195024E0920709F443C08038910509F04AC095
S113196028C085B58D7F85BD85B58B7F85BD85B543
S1131970816085BD80E0089585B58E7F85BD85B580
S11319808B7F85BD85B5826085BD80E0089585B572
S11319908B7F85BD85B5826085BD85B5816085BD3C
S11319A085B5846085BD85B58D7F85BD85B58E7F04
S11319B085BD85B58B7F85BD85B58D7F85BD85B599
S11319C0816085BD80E0089585B5826085BD85B55B
S11319D08E7F85BD85B5846085BD80E0089585B51D
S11319E0826085BD85B5846085BD85B5816085BD12
S11319F080E0089581E00895CF92DF92EF92FF9204
S1131A00BC0180E090E00E940E0F20E030E04AE745
S1131A1054E40E94660E6B017C0127E337E346E839
S1131A2056E40E94011018160CF47CC015BC2DEB72
S1131A3037E346E85EE3C701B6010E94610E8823DE
S1131A40C4F4A70196016DEB77E386E89EE30E9458
S1131A50DD0D2DEB37E346E85AE30E94660E0E9443
S1131A60DF0E64BD81E090E090932801809327010C
S1131A704FC02DEB37E346E85EE3C701B6010E9491
S1131A80610E811108C014BC81E090E0909328019C
S1131A90809327013DC02DEB37E346E85EE3C701A1
S1131AA0B6010E94660E0E944A0E0E94DF0E7093D9
S1131AB028016093270180E090E00E940E0F20E04F
S1131AC030E040E85FE30E94DD0D2DEB37E346E8AC
S1131AD05EE30E9406109B01AC01C701B6010E949F
S1131AE0DD0D2DEB37E346E85AE30E94660E9B01B9
S1131AF0AC0160E070E080E893E40E94DD0D0E9498
S1131B00DF0E64BD84B590E0909326018093250197
S1131B1010922A011092290180E094E00E94950C11
S1131B2080E001C081E0FF90EF90DF90CF900895B6
S1131B3085B58E7F85BD85B58D7F85BD85B58B7F4C
S1131B4085BD08951F920F920FB60F9211242F9303
S1131B503F934F935F936F937F938F939F93AF9331
S1131B60BF93EF93FF938091290190912A010196ED
S1131B7090932A0180932901209127013091280113
S1131B808217930748F010922A011092290181E0EC
S1131B9080932B010E94980DFF91EF91BF91AF911B
S1131BA09F918F917F916F915F914F913F912F9171
S1131BB00F900FBE0F901F9018955058BB27AA275F
S1131BC00E94F50D0C94AF0F0E94A10F38F00E94F3
S1131BD0A80F20F039F49F3F19F426F40C949E0FBB
S1131BE00EF4E095E7FB0C946F0FE92F0E94C00FF1
S1131BF058F3BA17620773078407950720F079F43E
S1131C00A6F50C94FA0F0EF4E0950B2EBA2FA02D26
S1131C100B01B90190010C01CA01A0011124FF2795
S1131C20591B99F0593F50F4503E68F11A16F04090
S1131C30A22F232F342F4427585FF3CF469537958F
S1131C402795A795F0405395C9F77EF41F16BA0B54
S1131C50620B730B840BBAF09150A1F0FF0FBB1F02
S1131C60661F771F881FC2F70EC0BA0F621F731F4B
S1131C70841F48F4879577956795B795F7959E3FA8
S1131C8008F0B0CF9395880F08F09927EE0F979539
S1131C90879508950E94E20F90F09F3748F49111C0
S1131CA016F40C94FB0F60E070E080E89FE3089565
S1131CB026F01B16611D711D811D0C94750F0C946B
S1131CC0900F0E944B0F08F481E008950E947A0E51
S1131CD00C94AF0F0E94A80F58F00E94A10F40F07F
S1131CE029F45F3F29F00C946F0F51110C94FB0FF2
S1131CF00C949E0F0E94C00F68F39923B1F35523EF
S1131D0091F3951B550BBB27AA276217730784070A
S1131D1038F09F5F5F4F220F331F441FAA1FA9F3A0
S1131D2035D00E2E3AF0E0E832D091505040E6958E
S1131D30001CCAF72BD0FE2F29D0660F771F881FEF
S1131D40BB1F261737074807AB07B0E809F0BB0BE2
S1131D50802DBF01FF2793585F4F3AF09E3F5105F6
S1131D6078F00C946F0F0C94FB0F5F3FE4F3983EF4
S1131D70D4F3869577956795B795F7959F5FC9F7DF
S1131D80880F911D9695879597F90895E1E0660F60
S1131D90771F881FBB1F621773078407BA0720F0D9
S1131DA0621B730B840BBA0BEE1F88F7E095089542
S1131DB00E94DF0E6894B1110C94FB0F08950E94E9
S1131DC0C80F88F09F5798F0B92F9927B751B0F0F2
S1131DD0E1F0660F771F881F991F1AF0BA95C9F7AB
S1131DE014C0B13091F00E94FA0FB1E008950C9440
S1131DF0FA0F672F782F8827B85F39F0B93FCCF3F3
S1131E00869577956795B395D9F73EF49095809527
S1131E10709561957F4F8F4F9F4F0895E89409C047
S1131E2097FB3EF490958095709561957F4F8F4F09
S1131E309F4F9923A9F0F92F96E9BB279395F6951F
S1131E40879577956795B795F111F8CFFAF4BB0F9D
S1131E5011F460FF1BC06F5F7F4F8F4F9F4F16C001
S1131E60882311F096E911C0772321F09EE8872F8B
S1131E70762F05C0662371F096E8862F70E060E047
S1131E802AF09A95660F771F881FDAF7880F9695C0
S1131E90879597F90895990F0008550FAA0BE0E864
S1131EA0FEEF16161706E807F907C0F01216130618
S1131EB0E407F50798F0621B730B840B950B39F458
S1131EC00A2661F0232B242B252B21F408950A26BE
S1131ED009F4A140A6958FEF811D811D089597F9FE
S1131EE09F6780E870E060E00895882371F47723A9
S1131EF021F09850872B762F07C0662311F4992779
S1131F000DC09051862B70E060E02AF09A95660F20
S1131F10771F881FDAF7880F9695879597F90895A4
S1131F209F3F31F0915020F4879577956795B79549
S1131F30880F911D9695879597F908959FEF80ECEA
S1131F40089500240A94161617061806090608951B
S1131F5000240A9412161306140605060895092E81
S1131F600394000C11F4882352F0BB0F40F4BF2BF0
S1131F7011F460FF04C06F5F7F4F8F4F9F4F089530
S1131F8057FD9058440F551F59F05F3F71F0479526
S1131F90880F97FB991F61F09F3F79F0879508950B
S1131FA0121613061406551FF2CF4695F1DF08C02A
S1131FB0161617061806991FF1CF86957105610547
S1131FC0089408950E94C80FA0F0BEE7B91788F4DA
S1131FD0BB279F3860F41616B11D672F782F88270A
S1131FE0985FF7CF869577956795B11D9395963948
S1131FF0C8F30895E894BB2766277727CB0197F9A0
S113200008950E944B0F08F48FEF08950E94191051
S11320100C94AF0F0E94A10F38F00E94A80F20F07B
S1132020952311F00C946F0F0C949E0F11240C94B3
S1132030FB0F0E94C00F70F3959FC1F3950F50E002
S1132040551F629FF001729FBB27F00DB11D639F66
S1132050AA27F00DB11DAA1F649F6627B00DA11D0C
S1132060661F829F2227B00DA11D621F739FB00DB2
S1132070A11D621F839FA00D611D221F749F332722
S1132080A00D611D231F849F600D211D822F762FBB
S11320906A2F11249F5750409AF0F1F088234AF098
S11320A0EE0FFF1FBB1F661F771F881F9150504004
S11320B0A9F79E3F510580F00C946F0F0C94FB0F11
S11320C05F3FE4F3983ED4F3869577956795B7958B
S11320D0F795E7959F5FC1F7FE2B880F911D9695A5
S11320E0879597F9089597FB072E16F4009407D067
S11320F077FD09D00E948D1007FC05D03EF4909521
S113210081959F4F0895709561957F4F0895EE0FC7
S1132110FF1F0590F491E02D0994AA1BBB1B51E10C
S113212007C0AA1FBB1FA617B70710F0A61BB70B43
S1132130881F991F5A95A9F780959095BC01CD01E8
S10921400895F894FFCF9E
S11321460102030306070301030101000000000066
S11321560002030201536574204465662E20526F03
S1132166742E005269676874004C656674200052C8
S113217669676874200053706565643A00303025D9
S11321862000333025200035302520004469723A7A
S1132196004600420052005300446973743A00201A
S11321A6436D00524F424F542053544F5045440000
S11321B65072657373204B6579203100746F2073F8
S11321C67461727400020500010002060001000237
S11321D602010000010202040000010100030401DF
S10B21E60000030501000000E4
S9030000FC
