:100000000C9432000C944F000C944F000C944B0B4A
:100010000C944F000C94820D0C944F000C944F00E4
:100020000C944F000C949E0B0C944F000C94340CC9
:100030000C944F000C944F000C944F000C944F0004
:100040000C944F000C944F000C944F000C944F00F4
:100050000C944F002A0194009A00F300FF000B015A
:100060001701210111241FBECFE5D8E0DEBFCDBFAF
:1000700011E0A0E6B0E0E6E0F1E202C005900D92EA
:10008000A030B107D9F721E0A0E0B1E001C01D9296
:10009000A432B207E1F70E9441060C9481100C943F
:1000A00000000E94F0050E94CB040E94AA0580E097
:1000B0000E94580C0E94D80281E690E00E94E90458
:1000C0000895CF92DF92EF92FF920E94FF028093F9
:1000D0000101813049F490910001911105C0809394
:1000E0000B018093000113C0823041F49091000114
:1000F000913021F487E080930B0109C0813039F4FD
:1001000080910001813019F482E080930B01E0912D
:100110000B018E2F90E08830910508F0ABC0FC01F8
:10012000E65DFF4F0C9467100E943F0182E08093D0
:100130000B01A0C086E091E00E94F705C090060187
:10014000D0900701E0900801F090090120E030E034
:100150004CE852E4C701B6010E94E10F181624F4DE
:1001600083E080930B0186C020E030E04CE852E44D
:10017000C701B6010E94410E181674F020E030E06D
:1001800040EF51E4C701B6010E94E10F181624F4B4
:1001900084E080930B016EC020E030E040EF51E43A
:1001A000C701B6010E94410E181674F020E030E03D
:1001B00040EA51E4C701B6010E94E10F181624F489
:1001C00085E080930B0156C020E030E040EA51E426
:1001D000C701B6010E94410E88230CF04BC086E097
:1001E00080930B0147C010920401109203011092FA
:1001F00002010E94010282E080930B013BC0109239
:10020000050110920401109202010E94330282E063
:1002100080930B012FC010920501109204011092DF
:1002200003010E94500282E080930B0123C01092D0
:100230000301109205010E949D0282E080930B0150
:1002400019C01092050110920401109203010E943E
:10025000CD0210C060E080E00E94490485E790E094
:100260000E94360460E081E00E94490481E890E049
:100270000E943604FF90EF90DF90CF9008950E9487
:10028000570460E080E00E9449048AE890E00E9400
:10029000360460E081E00E94490488E990E00E9411
:1002A000360488E893E10E94DC0C2DC06AE071E01E
:1002B00080E00E94AF0580910A01813021F505C0E0
:1002C0006AE071E080E00E94AF0580910A01813010
:1002D000B9F380916000813051F41092600060E0C9
:1002E0000E9449048EE990E00E9436040CC08111FE
:1002F0000AC081E08093600060E00E94490484EAC3
:1003000090E00E94360480912201813079F61092AB
:10031000220180ED97E00E94DC0C80912201813067
:10032000E1F70E945704109222010895CF92DF92C4
:10033000EF92FF92CF93DF93D82FC62F69017A01F6
:1003400060E080E00E9449048BEA90E00E9436045D
:1003500067E080E00E944904D11105C082EB90E083
:100360000E9436040BC0D13029F487EB90E00E9444
:10037000360404C08CEB90E00E9436046BE080E011
:100380000E94490481EC90E00E9436046FE080E016
:100390000E944904C11105C086EC90E00E94360419
:1003A00012C0C13029F488EC90E00E9436040BC0E2
:1003B000C23029F48AEC90E00E94360404C08CEC30
:1003C00090E00E94360460E081E00E9449048EECD7
:1003D00090E00E94360465E081E00E944904C70174
:1003E000B6010E94B80ECB010E94610484ED90E03A
:1003F0000E943604DF91CF91FF90EF90DF90CF9075
:100400000895CF938091050181110FC0C1E0C09381
:1004100005018EE10E947005C0930D0110920C0140
:1004200088E893E10E94DC0C0EC0813061F4809179
:100430002201813041F482E30E94700582E08093C2
:100440000D01109222012091060130910701409187
:1004500008015091090160910C0180910D010E94E9
:100460009601CF9108958091030181110AC08EE118
:100470000E94700581E080930D0110920C01809321
:10048000030120910601309107014091080150912C
:10049000090160910C0180910D010E94960108955F
:1004A0000E94260520910601309107014091080124
:1004B0005091090163E080E00E94960188EE93E08C
:1004C0000E94DC0C809122018823E1F3109222012A
:1004D000809102018430C0F420910601309107011F
:1004E000409108015091090162E082E00E9496016A
:1004F00062E370E0809160000E943A058091020101
:100500008F5F8093020108952091060130910701C9
:10051000409108015091090163E080E00E9496013A
:1005200088EB9BE00E94DC0C809122018823E1F3A0
:10053000109222011092020108958091040181110C
:100540001CC00E94260520910601309107014091B0
:1005500008015091090163E080E00E94960188EE55
:1005600093E00E94DC0C809122018823E1F3109239
:10057000220181E0809304010895209106013091C9
:100580000701409108015091090161E081E00E945A
:1005900096018EE10E948D0508950E94260560E077
:1005A00080E00E94490488ED90E00E94360408959E
:1005B000CF93C0E00EC08C2F90E09C01220F331F20
:1005C000220F331F820F931F81519F4F0E941F07DD
:1005D000CF5FCC2381F3C0E00EC08C2F90E09C0154
:1005E000220F331F220F331F820F931F8B519F4FF8
:1005F0000E941F07CF5FC23080F3CF910895CF9242
:10060000DF92EF92FF920F931F93CF93DF931F928E
:10061000CDB7DEB781E0898300E057C0E02EF12C32
:10062000F701EE0FFF1FEE0FFF1FEE0DFF1DEB5149
:10063000FF4F41E0638582E00E94460610E034C02F
:10064000C12ED12CF601EE0FFF1FEE0FFF1FEC0D98
:10065000FD1DEB51FF4FAE014F5F5F4F618182E0A7
:100660000E94B706898181111EC010C0F601EE0FED
:10067000FF1FEE0FFF1FEC0DFD1DEB51FF4FAE01F5
:100680004F5F5F4F618182E00E94B70689818823B6
:1006900069F3C701880F991F8B519F4FFC01EC0D27
:1006A000FD1D878516C01F5F123050F2F701EE0F57
:1006B000FF1FEE0FFF1FEE0DFF1DEB51FF4F40E040
:1006C000638582E00E9446060F5F002309F4A6CFEF
:1006D00080E00F90DF91CF911F910F91FF90EF90ED
:1006E000DF90CF900895CF93C82F60E081E00E9403
:1006F00089096C2F661F6627661F87E00E9489099B
:10070000C6FB662760F986E00E948909C5FB66275B
:1007100060F985E00E948909C4FB662760F984E0DE
:100720000E94890961E083E00E94890989EF90E0D5
:100730000197F1F700C0000060E083E00E948909A2
:1007400089EF90E00197F1F700C00000C3FB662736
:1007500060F987E00E948909C2FB662760F986E09C
:100760000E948909C1FB662760F985E00E9489091A
:100770006C2F617084E00E94890961E083E00E942F
:10078000890989EF90E00197F1F700C0000060E06F
:1007900083E00E94890989EF90E00197F1F700C09A
:1007A0000000CF910895CF93C82F61E081E00E94AF
:1007B00089096C2F661F6627661F87E00E948909DA
:1007C000C6FB662760F986E00E948909C5FB66279B
:1007D00060F985E00E948909C4FB662760F984E01E
:1007E0000E94890961E083E00E94890989EF90E015
:1007F0000197F1F700C0000060E083E00E948909E2
:1008000089EF90E00197F1F700C00000C3FB662775
:1008100060F987E00E948909C2FB662760F986E0DB
:100820000E948909C1FB662760F985E00E94890959
:100830006C2F617084E00E94890961E083E00E946E
:10084000890989EF90E00197F1F700C0000060E0AE
:1008500083E00E94890989EF90E00197F1F700C0D9
:100860000000CF9108950E94D30308950F931F9322
:10087000CF938C01C0E003C00E943304CF5FF80126
:10088000EC0FF11D80818111F7CFCF911F910F9156
:100890000895811105C0862F80680E947303089512
:1008A000813021F480EC860F0E947303089581E06B
:1008B0000E94730389EF90E00197F1F700C00000F8
:1008C0000895EF92FF921F93CF93DF93CDB7DEB7DA
:1008D0002A970FB6F894DEBF0FBECDBF7C010097FC
:1008E00021F480E30E9433042DC0992334F4F19461
:1008F000E194F1088DE20E94330410E010C0C701BA
:100900006AE070E00E945310E1E0F0E0EC0FFD1FA0
:10091000E10FF11D805D80831F5FE62EF72EE1144D
:10092000F10469F70DC0E12FF0E0319781E090E02C
:100930008C0F9D1FE80FF91F80810E943304115016
:100940001111F1CF2A960FB6F894DEBF0FBECDBFBE
:10095000DF91CF911F91FF90EF90089560E081E0CB
:100960000E948C0860E083E00E948C0860E082E0D6
:100970000E948C0860E084E00E948C0860E085E0C2
:100980000E948C0860E086E00E948C0860E087E0AE
:100990000E948C0808950E94AE0487EA91E60197B0
:1009A000F1F700C0000082E00E94730388E20E9419
:1009B00073038CE00E94730381E00E94730389EF4C
:1009C00090E00197F1F700C0000086E00E947303F9
:1009D0000895EF92FF921F93CF93DF930097B9F49E
:1009E00081E01BC0C12FD0E0CE01880F991FC80F36
:1009F000D91FCE0DDF1D41E06A8188810E94100A57
:100A000041E06A8189810E94100A1F5F02C07C0157
:100A100010E0123038F30E94F90BDF91CF911F9153
:100A2000FF90EF900895009779F070E0FB01EE0FD2
:100A3000FF1F6E0F7F1FFC01E60FF71F6081828191
:100A40000E94EB0680E0089581E0089541E060E0B7
:100A500082E00E94460641E061E082E00E94460694
:100A60000E94F50B0895853610F081E008950E94EC
:100A7000150C089581111AC060E081E690E00E9493
:100A800013058CE692E00E94DC0C82E30E943305A1
:100A9000809122018823E1F30E94F50B109222013C
:100AA00060E081E690E00E941305089561E081E630
:100AB00090E00E9413058CE692E00E94DC0C82E339
:100AC0000E943305809122018823E1F30E94F50BF7
:100AD0001092220161E081E690E00E9413050895E2
:100AE000CF93DF930E943305C1E6D0E0688140E0F8
:100AF0008A810E944606698141E08A810E944606F9
:100B00006B8140E08D810E9446066C8141E08D81C1
:100B10000E944606DF91CF910895CF93DF930E9404
:100B20003305C1E6D0E0688141E08A810E94460633
:100B3000698140E08A810E9446066B8141E08D8197
:100B40000E9446066C8140E08D810E944606DF913E
:100B5000CF91089562E084E10E948C080895EF929D
:100B6000FF920F931F93CF93DF931F92CDB7DEB702
:100B70007B0191E0998390E08C01000F111F000F21
:100B8000111F000F111F081B190B0A501F4FAE0138
:100B90004F5F5F4FF801618180810E94B706F801C5
:100BA000868181110AC08981811104C081E0F70129
:100BB00080830EC0F70110820BC0813049F4898117
:100BC000811103C0F701108203C081E0F701808327
:100BD0000F90DF91CF911F910F91FF90EF900895AB
:100BE00087E690E00E941F070E94B50B08950F93BF
:100BF0001F93CF93DF9300D0CDB7DEB78C011A825D
:100C0000198240E063E081E00E94460683EC99E0AF
:100C10000197F1F700C0000041E063E081E00E942D
:100C200046060E94350B809110018130E1F7CE011C
:100C300001960E94900A69817A8180E090E00E948A
:100C4000EE0E29E23CE349EE53E40E94460E20E01A
:100C500030E040E051E40E94E60F20E030E040E860
:100C60005FE30E94BE0DF8016083718382839383EA
:100C7000109210010F900F90DF91CF911F910F9163
:100C800008950E9451000E946100FDCF442319F095
:100C90004130A9F10895813089F028F08230C9F0FF
:100CA000833011F108952BB381E090E002C0880FEA
:100CB000991F6A95E2F7822B8BBB089528B381E0D8
:100CC00090E002C0880F991F6A95E2F7822B88BBDB
:100CD000089525B381E090E002C0880F991F6A95BE
:100CE000E2F7822B85BB089522B381E090E002C039
:100CF000880F991F6A95E2F7822B82BB0895813095
:100D000091F028F08230D9F0833029F108952BB387
:100D100081E090E002C0880F991F6A95E2F7809504
:100D200082238BBB089528B381E090E002C0880F36
:100D3000991F6A95E2F78095822388BB089525B3B1
:100D400081E090E002C0880F991F6A95E2F78095D4
:100D5000822385BB089522B381E090E002C0880F12
:100D6000991F6A95E2F78095822382BB08958130AE
:100D700089F028F08230C9F0833011F1089589B3E9
:100D800090E002C0959587956A95E2F78170FA0127
:100D90008083089586B390E002C0959587956A9503
:100DA000E2F78170FA018083089583B390E002C076
:100DB000959587956A95E2F78170FA018083089589
:100DC00080B390E002C0959587956A95E2F78170AF
:100DD000FA0180830895813089F028F08230C9F0CB
:100DE000833011F108952BB381E090E002C0880FA9
:100DF000991F6A95E2F782278BBB089528B381E09B
:100E000090E002C0880F991F6A95E2F7822788BB9D
:100E1000089525B381E090E002C0880F991F6A957C
:100E2000E2F7822785BB089522B381E090E002C0FB
:100E3000880F991F6A95E2F7822782BB0895FC010B
:100E400082818111B5C08081813099F028F0823093
:100E5000E9F0833041F133C02AB381E090E00180B2
:100E600002C0880F991F0A94E2F7809582238ABBFB
:100E700026C027B381E090E0018002C0880F991F4F
:100E80000A94E2F78095822387BB19C024B381E0DE
:100E900090E0018002C0880F991F0A94E2F78095C4
:100EA000822384BB0CC021B381E090E0018002C0AA
:100EB000880F991F0A94E2F78095822381BB838172
:100EC0008130C9F58081813091F028F08230D9F0ED
:100ED000833029F108952BB381E090E0018002C0B6
:100EE000880F991F0A94E2F7822B8BBB089528B3D1
:100EF00081E090E0018002C0880F991F0A94E2F718
:100F0000822B88BB089525B381E090E0018002C068
:100F1000880F991F0A94E2F7822B85BB089522B3AC
:100F200081E090E0018002C0880F991F0A94E2F7E7
:100F3000822B82BB08958081813099F028F0823025
:100F4000E9F0833041F108952BB381E090E0018016
:100F500002C0880F991F0A94E2F7809582238BBB09
:100F6000089528B381E090E0018002C0880F991FA6
:100F70000A94E2F78095822388BB089525B381E027
:100F800090E0018002C0880F991F0A94E2F78095D3
:100F9000822385BB089522B381E090E0018002C0E6
:100FA000880F991F0A94E2F78095822382BB0895E7
:100FB000813009F0B0C08081813091F028F082301A
:100FC000D9F0833029F12FC02AB381E090E001806D
:100FD00002C0880F991F0A94E2F7822B8ABB23C0B4
:100FE00027B381E090E0018002C0880F991F0A9426
:100FF000E2F7822B87BB17C024B381E090E0018029
:1010000002C0880F991F0A94E2F7822B84BB0BC0A1
:1010100021B381E090E0018002C0880F991F0A94FB
:10102000E2F7822B81BB8381811139C080818130BD
:1010300091F028F08230D9F0833029F108952BB354
:1010400081E090E0018002C0880F991F0A94E2F7C6
:10105000822B8BBB089528B381E090E0018002C011
:10106000880F991F0A94E2F7822B88BB089525B355
:1010700081E090E0018002C0880F991F0A94E2F796
:10108000822B85BB089522B381E090E0018002C0ED
:10109000880F991F0A94E2F7822B82BB0895808102
:1010A000813099F028F08230E9F0833041F10895E1
:1010B0002BB381E090E0018002C0880F991F0A9451
:1010C000E2F7809582238BBB089528B381E090E0FE
:1010D000018002C0880F991F0A94E2F7809582234D
:1010E00088BB089525B381E090E0018002C0880F9D
:1010F000991F0A94E2F78095822385BB089522B355
:1011000081E090E0018002C0880F991F0A94E2F705
:101110008095822382BB0895982F969596959695F3
:101120008770613009F455C020F0623009F4A1C025
:1011300008959130C1F028F0923039F19330B9F12F
:1011400008954AB321E030E0B90102C0660F771F6D
:101150008A95E2F7CB01942F982B9ABB9BB380958D
:1011600089238BBB089547B321E030E0B90102C069
:10117000660F771F8A95E2F7CB01942F982B97BBC8
:1011800098B38095892388BB089544B321E030E06B
:10119000B90102C0660F771F8A95E2F7CB01942F41
:1011A000982B94BB95B38095892385BB089541B353
:1011B00021E030E0B90102C0660F771F8A95E2F79F
:1011C000CB01942F982B91BB92B38095892382BB3E
:1011D00008959130C1F028F0923039F19330B9F18F
:1011E00008954AB321E030E0B90102C0660F771FCD
:1011F0008A95E2F7CB018095942F98239ABB9BB3F5
:1012000089238BBB089547B321E030E0B90102C0C8
:10121000660F771F8A95E2F7CB018095942F98236C
:1012200097BB98B3892388BB089544B321E030E08D
:10123000B90102C0660F771F8A95E2F7CB0180954E
:10124000942F982394BB95B3892385BB089541B30C
:1012500021E030E0B90102C0660F771F8A95E2F7FE
:10126000CB018095942F982391BB92B3892382BBA5
:1012700008959130C1F028F0923039F19330B9F1EE
:1012800008954AB321E030E0B90102C0660F771F2C
:101290008A95E2F7CB01962F909594239ABB9BB346
:1012A000892B8BBB089547B321E030E0B90102C020
:1012B000660F771F8A95E2F7CB01962F90959423BE
:1012C00097BB98B3892B88BB089544B321E030E0E5
:1012D000B90102C0660F771F8A95E2F7CB01962FFE
:1012E0009095942394BB95B3892B85BB089541B306
:1012F00021E030E0B90102C0660F771F8A95E2F75E
:10130000CB01962F9095942391BB92B3892B82BBEE
:101310000895982F9695969596958770662309F46B
:101320003FC0613009F07BC0913099F028F09230D5
:10133000E9F0933041F108954BB321E030E0B90179
:1013400002C0660F771F8A95E2F7CB01842B8BBB17
:10135000089548B321E030E0B90102C0660F771F5D
:101360008A95E2F7CB01842B88BB089545B321E031
:1013700030E0B90102C0660F771F8A95E2F7CB0112
:10138000842B85BB089542B321E030E0B90102C04F
:10139000660F771F8A95E2F7CB01842B82BB0895F5
:1013A0009130A1F028F09230F9F0933059F108957E
:1013B0004BB321E030E0B90102C0660F771F8A9578
:1013C000E2F7CB01809584238BBB089548B321E0DD
:1013D00030E0B90102C0660F771F8A95E2F7CB01B2
:1013E0008095842388BB089545B321E030E0B9019E
:1013F00002C0660F771F8A95E2F7CB0180958423A0
:1014000085BB089542B321E030E0B90102C0660F08
:10141000771F8A95E2F7CB018095842382BB0895DC
:10142000411140C06130A1F028F06230F9F0633022
:1014300059F108954AB321E030E0B90102C0660FC6
:10144000771F8A95E2F7CB01809584238ABB0895A4
:1014500047B321E030E0B90102C0660F771F8A95DB
:10146000E2F7CB018095842387BB089544B321E044
:1014700030E0B90102C0660F771F8A95E2F7CB0111
:101480008095842384BB089541B321E030E0B90105
:1014900002C0660F771F8A95E2F7CB0180958423FF
:1014A00081BB08954130D9F5613099F028F0623060
:1014B000E9F0633041F108954AB321E030E0B90129
:1014C00002C0660F771F8A95E2F7CB01842B8ABB97
:1014D000089547B321E030E0B90102C0660F771FDD
:1014E0008A95E2F7CB01842B87BB089544B321E0B2
:1014F00030E0B90102C0660F771F8A95E2F7CB0191
:10150000842B84BB089541B321E030E0B90102C0CF
:10151000660F771F8A95E2F7CB01842B81BB089574
:1015200020910E0130910F01FC0131832083089539
:101530008FB780688FBF8BB780628BBF623019F026
:10154000633029F0089584B78F7B84BF089584B7F2
:10155000806484BF0895882319F08130D9F02EC0AB
:101560008FB58E7F8FBD8FB58D7F8FBD8EB5877FF9
:101570008EBD8EB58F7E8EBD8FB588608FBD8FB5C9
:1015800084608FBD8FB780688FBF89B7846089BF43
:1015900080E008958FB58E7F8FBD8FB58D7F8FBD15
:1015A0008EB5877F8EBD8EB58F7E8EBD8FB58860E0
:1015B0008FBD8FB584608FBD80E0089581E0089570
:1015C0008034910529F130F48130910559F0089764
:1015D000A1F03FC0811521E0920729F181159440C7
:1015E00069F137C08EB58D7F8EBD8EB58B7F8EBD78
:1015F0008EB581608EBD80E008958EB58E7F8EBDE4
:101600008EB58B7F8EBD8EB582608EBD80E00895D5
:101610008EB58B7F8EBD8EB582608EBD8EB581609E
:101620008EBD80E008958EB58D7F8EBD8EB58E7F88
:101630008EBD8EB584608EBD80E008958EB58D7FA1
:101640008EBD8EB584608EBD8EB581608EBD80E00E
:10165000089581E008958EB58E7F8EBD8EB58D7F05
:101660008EBD8EB58B7F8EBD0895CF93DF93C1E77E
:10167000D0E08B810E94AB0A0E942B0B698188818C
:101680000E94980A1092230181E090E00E94E00AF3
:10169000DF91CF9108951F920F920FB60F921124F0
:1016A0002F933F934F935F936F937F938F939F936A
:1016B000AF93BF93EF93FF938CB59DB590931801B3
:1016C0008093170120912301211114C090931401DC
:1016D000809313011DBC1CBCE1E7F0E062818081B6
:1016E0000E94980A109216011092150181E08093D1
:1016F000230113C0909312018093110120911501D1
:1017000030911601821B930B90930F0180930E0171
:101710000E942B0B81E080931001FF91EF91BF910C
:10172000AF919F918F917F916F915F914F913F9179
:101730002F910F900FBE0F901F9018951F920F9230
:101740000FB60F9211248F939F9380911501909162
:101750001601019690931601809315019F918F9128
:101760000F900FBE0F901F9018958FB780688FBF96
:101770000895CF9380911901882361F0C0E01EC0C5
:10178000EC2FF0E0E350FF4F60E080810E94890978
:10179000CF5F01C0C0E0C23098F380911A018195FB
:1017A00082BF81E08093190111C0EC2FF0E0E3507B
:1017B000FF4F61E080810E948909CF5FC230A8F3AA
:1017C00080911B01819582BF10921901CF910895DC
:1017D00083B7877B83BF89B7816089BF7894089579
:1017E00083B7887F856083BF089583B7887F83BF71
:1017F00008950F931F93CF93C0E00FC00C2F10E0FC
:1018000003501F4F60E0F80180810E948C0861E066
:10181000F80180810E948909CF5FC23078F30E946D
:10182000E80BCF911F910F910895CF93DF93E82F8D
:10183000F0E0982FC4E6D0E080E0BE010E94531093
:10184000262F60931B01CE018E1B9F0B982F80E0EB
:10185000BE010E94531060931A01219522BF0E947D
:10186000F00BDF91CF9108951F920F920FB60F9258
:1018700011242F933F934F935F936F937F938F9395
:101880009F93AF93BF93EF93FF930E94B90BFF9188
:10189000EF91BF91AF919F918F917F916F915F91E8
:1018A0004F913F912F910F900FBE0F901F90189561
:1018B000882319F0813079F016C085B58F7B85BDFE
:1018C00085B5877F85BD8FB780688FBF89B78064F6
:1018D00089BF80E0089585B58F7B85BD85B5877FFD
:1018E00085BD80E0089581E0089580349105C1F1BF
:1018F00050F48830910501F18032910541F1019752
:1019000009F058C00EC0811521E09207E9F1811558
:1019100024E0920709F443C08038910509F04AC0D9
:1019200028C085B58D7F85BD85B58B7F85BD85B587
:10193000816085BD80E0089585B58E7F85BD85B5C4
:101940008B7F85BD85B5826085BD80E0089585B5B6
:101950008B7F85BD85B5826085BD85B5816085BD80
:1019600085B5846085BD85B58D7F85BD85B58E7F48
:1019700085BD85B58B7F85BD85B58D7F85BD85B5DD
:10198000816085BD80E0089585B5826085BD85B59F
:101990008E7F85BD85B5846085BD80E0089585B561
:1019A000826085BD85B5846085BD85B5816085BD56
:1019B00080E0089581E00895CF92DF92EF92FF9248
:1019C000BC0180E090E00E94EE0E20E030E04AE7AB
:1019D00054E40E94460E6B017C0127E337E346E89E
:1019E00056E40E94E10F18160CF47CC015BC2DEBD8
:1019F00037E346E85EE3C701B6010E94410E882343
:101A0000C4F4A70196016DEB77E386E89EE30E949C
:101A1000BD0D2DEB37E346E85AE30E94460E0E94C7
:101A2000BF0E64BD81E090E090931F0180931E0182
:101A30004FC02DEB37E346E85EE3C701B6010E94D5
:101A4000410E811108C014BC81E090E090931F0109
:101A500080931E013DC02DEB37E346E85EE3C701EE
:101A6000B6010E94460E0E942A0E0E94BF0E70937D
:101A70001F0160931E0180E090E00E94EE0E20E0C6
:101A800030E040E85FE30E94BD0D2DEB37E346E810
:101A90005EE30E94E60F9B01AC01C701B6010E9404
:101AA000BD0D2DEB37E346E85AE30E94460E9B013D
:101AB000AC0160E070E080E893E40E94BD0D0E94FC
:101AC000BF0E64BD84B590E090931D0180931C010E
:101AD000109221011092200180E094E00E94750C88
:101AE00080E001C081E0FF90EF90DF90CF900895FB
:101AF00085B58E7F85BD85B58D7F85BD85B58B7F91
:101B000085BD08951F920F920FB60F9211242F9347
:101B10003F934F935F936F937F938F939F93AF9375
:101B2000BF93EF93FF938091200190912101019643
:101B3000909321018093200120911E0130911F017B
:101B40008217930748F0109221011092200181E042
:101B5000809322010E94780DFF91EF91BF91AF9188
:101B60009F918F917F916F915F914F913F912F91B5
:101B70000F900FBE0F901F9018955058BB27AA27A3
:101B80000E94D50D0C948F0F0E94810F38F00E9497
:101B9000880F20F039F49F3F19F426F40C947E0F3F
:101BA0000EF4E095E7FB0C944F0FE92F0E94A00F75
:101BB00058F3BA17620773078407950720F079F482
:101BC000A6F50C94DA0F0EF4E0950B2EBA2FA02D8B
:101BD0000B01B90190010C01CA01A0011124FF27DA
:101BE000591B99F0593F50F4503E68F11A16F040D5
:101BF000A22F232F342F4427585FF3CF46953795D4
:101C00002795A795F0405395C9F77EF41F16BA0B98
:101C1000620B730B840BBAF09150A1F0FF0FBB1F46
:101C2000661F771F881FC2F70EC0BA0F621F731F8F
:101C3000841F48F4879577956795B795F7959E3FEC
:101C400008F0B0CF9395880F08F09927EE0F97957D
:101C5000879508950E94C20F90F09F3748F4911124
:101C600016F40C94DB0F60E070E080E89FE30895C9
:101C700026F01B16611D711D811D0C94550F0C94CF
:101C8000700F0E942B0F08F481E008950E945A0EF5
:101C90000C948F0F0E94880F58F00E94810F40F023
:101CA00029F45F3F29F00C944F0F51110C94DB0F76
:101CB0000C947E0F0E94A00F68F39923B1F3552373
:101CC00091F3951B550BBB27AA276217730784074F
:101CD00038F09F5F5F4F220F331F441FAA1FA9F3E5
:101CE00035D00E2E3AF0E0E832D091505040E695D3
:101CF000001CCAF72BD0FE2F29D0660F771F881F34
:101D0000BB1F261737074807AB07B0E809F0BB0B26
:101D1000802DBF01FF2793585F4F3AF09E3F51053A
:101D200078F00C944F0F0C94DB0F5F3FE4F3983E78
:101D3000D4F3869577956795B795F7959F5FC9F723
:101D4000880F911D9695879597F90895E1E0660FA4
:101D5000771F881FBB1F621773078407BA0720F01D
:101D6000621B730B840BBA0BEE1F88F7E095089586
:101D70000E94BF0E6894B1110C94DB0F08950E946D
:101D8000A80F88F09F5798F0B92F9927B751B0F056
:101D9000E1F0660F771F881F991F1AF0BA95C9F7EF
:101DA00014C0B13091F00E94DA0FB1E008950C94A4
:101DB000DA0F672F782F8827B85F39F0B93FCCF357
:101DC000869577956795B395D9F73EF4909580956C
:101DD000709561957F4F8F4F9F4F0895E89409C08C
:101DE00097FB3EF490958095709561957F4F8F4F4E
:101DF0009F4F9923A9F0F92F96E9BB279395F69564
:101E0000879577956795B795F111F8CFFAF4BB0FE1
:101E100011F460FF1BC06F5F7F4F8F4F9F4F16C045
:101E2000882311F096E911C0772321F09EE8872FCF
:101E3000762F05C0662371F096E8862F70E060E08B
:101E40002AF09A95660F771F881FDAF7880F969504
:101E5000879597F90895990F0008550FAA0BE0E8A8
:101E6000FEEF16161706E807F907C0F0121613065C
:101E7000E407F50798F0621B730B840B950B39F49C
:101E80000A2661F0232B242B252B21F408950A2602
:101E900009F4A140A6958FEF811D811D089597F942
:101EA0009F6780E870E060E00895882371F47723ED
:101EB00021F09850872B762F07C0662311F49927BD
:101EC0000DC09051862B70E060E02AF09A95660F65
:101ED000771F881FDAF7880F9695879597F90895E9
:101EE0009F3F31F0915020F4879577956795B7958E
:101EF000880F911D9695879597F908959FEF80EC2F
:101F0000089500240A94161617061806090608955F
:101F100000240A9412161306140605060895092EC5
:101F20000394000C11F4882352F0BB0F40F4BF2B34
:101F300011F460FF04C06F5F7F4F8F4F9F4F089574
:101F400057FD9058440F551F59F05F3F71F047956A
:101F5000880F97FB991F61F09F3F79F0879508954F
:101F6000121613061406551FF2CF4695F1DF08C06E
:101F7000161617061806991FF1CF8695710561058B
:101F8000089408950E94A80FA0F0BEE7B91788F43E
:101F9000BB279F3860F41616B11D672F782F88274E
:101FA000985FF7CF869577956795B11D939596398C
:101FB000C8F30895E894BB2766277727CB0197F9E4
:101FC00008950E942B0F08F48FEF08950E94F90FD7
:101FD0000C948F0F0E94810F38F00E94880F20F020
:101FE000952311F00C944F0F0C947E0F11240C9438
:101FF000DB0F0E94A00F70F3959FC1F3950F50E087
:10200000551F629FF001729FBB27F00DB11D639FAA
:10201000AA27F00DB11DAA1F649F6627B00DA11D50
:10202000661F829F2227B00DA11D621F739FB00DF6
:10203000A11D621F839FA00D611D221F749F332766
:10204000A00D611D231F849F600D211D822F762FFF
:102050006A2F11249F5750409AF0F1F088234AF0DC
:10206000EE0FFF1FBB1F661F771F881F9150504048
:10207000A9F79E3F510580F00C944F0F0C94DB0F95
:102080005F3FE4F3983ED4F3869577956795B795CF
:10209000F795E7959F5FC1F7FE2B880F911D9695E9
:1020A000879597F9089597FB072E16F4009407D0AB
:1020B00077FD09D00E946D1007FC05D03EF4909585
:1020C00081959F4F0895709561957F4F0895EE0F0C
:1020D000FF1F0590F491E02D0994AA1BBB1B51E151
:1020E00007C0AA1FBB1FA617B70710F0A61BB70B88
:1020F000881F991F5A95A9F780959095BC01CD012D
:062100000895F894FFCFE2
:1021060001020303060703010301010000000000AA
:1021160000020302015072657373204B657920310A
:1021260000746F2073746172740053657420446583
:10213600662E20526F742E005269676874004C65D3
:102146006674200052696768742000537065656480
:102156003A00303025200033302520003530252048
:10216600004469723A004600420052005300446936
:1021760073743A0020436D00524F424F542053541B
:102186004F5045440002050001000206000100020E
:10219600020100000102020400000101001C1D00F2
:00000001FF
