S00F000050726F6A6563742E737265633E
S11300000C9432000C944F000C944F000C944F0B42
S11300100C944F000C94860D0C944F000C944F00DC
S11300200C944F000C94A20B0C944F000C94380CBD
S11300300C944F000C944F000C944F000C944F0000
S11300400C944F000C944F000C944F000C944F00F0
S11300500C944F002A0194009A00F300FF000B0156
S11300601701210111241FBECFE5D8E0DEBFCDBFAB
S113007011E0A0E6B0E0EEE0F1E202C005900D92DE
S1130080A030B107D9F721E0A0E0B1E001C01D9292
S1130090A532B207E1F70E9445060C9485100C9432
S11300A000000E94F4050E94CF040E94AE0580E087
S11300B00E945C0C0E94DC0281E690E00E94ED0448
S11300C00895CF92DF92EF92FF920E9403038093F0
S11300D00101813049F490910001911105C0809390
S11300E00C018093000113C0823041F4909100010F
S11300F0913021F487E080930C0109C0813039F4F8
S113010080910001813019F482E080930C01E09128
S11301100C018E2F90E08830910508F0ABC0FC01F3
S1130120E65DFF4F0C946B100E943F0182E08093C8
S11301300C01A0C086E091E00E94FB05C09006017E
S1130140D0900701E0900801F090090120E030E030
S11301504CE852E4C701B6010E94E50F181624F4D6
S113016083E080930C0186C020E030E04CE852E448
S1130170C701B6010E94450E181674F020E030E065
S113018040EF51E4C701B6010E94E50F181624F4AC
S113019084E080930C016EC020E030E040EF51E435
S11301A0C701B6010E94450E181674F020E030E035
S11301B040EA51E4C701B6010E94E50F181624F481
S11301C085E080930C0156C020E030E040EA51E421
S11301D0C701B6010E94450E88230CF04BC086E08F
S11301E080930C0147C010920401109203011092F5
S11301F002010E94050282E080930C013BC0109230
S1130200050110920401109202010E94370282E05B
S113021080930C012FC010920501109204011092DA
S113022003010E94540282E080930C0123C01092C7
S11302300301109205010E94A10282E080930C0147
S113024019C01092050110920401109203010E943A
S1130250D10210C060E080E00E944D0485E790E088
S11302600E943A0460E081E00E944D0481E890E03D
S11302700E943A04FF90EF90DF90CF9008950E947F
S11302805B0460E080E00E944D048AE890E00E94F4
S11302903A0460E081E00E944D0488E990E00E9405
S11302A03A0488E893E10E94E00C31C06AE071E00E
S11302B080E00E94B30580910A01813041F505C0B8
S11302C06AE071E080E00E94B30580910A01813008
S11302D0B9F380910B0181110DC081E080930B0172
S11302E01092600060E00E944D048EE990E00E944C
S11302F03A040DC0813059F410920B0180936000D0
S113030060E00E944D0484EA90E00E943A048091E7
S11303102301813059F61092230180ED97E00E9469
S1130320E00C809123018130E1F70E945B0410927C
S113033023010895CF92DF92EF92FF92CF93DF9340
S1130340D82FC62F69017A0160E080E00E944D0435
S11303508BEA90E00E943A0467E080E00E944D043A
S1130360D11105C082EB90E00E943A040BC0D13059
S113037029F487EB90E00E943A0404C08CEB90E0EF
S11303800E943A046BE080E00E944D0481EC90E00E
S11303900E943A046FE080E00E944D04C11105C040
S11303A086EC90E00E943A0412C0C13029F488EC33
S11303B090E00E943A040BC0C23029F48AEC90E029
S11303C00E943A0404C08CEC90E00E943A0460E07D
S11303D081E00E944D048EEC90E00E943A0465E0B6
S11303E081E00E944D04C701B6010E94BC0ECB01FE
S11303F00E94650484ED90E00E943A04DF91CF915D
S1130400FF90EF90DF90CF900895CF9380910501F6
S113041081110FC0C1E0C09305018EE10E947405F3
S1130420C0930E0110920D0188E893E10E94E00C44
S11304300EC0813061F480912301813041F482E364
S11304400E94740582E080930E0110922301209192
S11304500601309107014091080150910901609112
S11304600D0180910E010E949A01CF91089580910F
S1130470030181110AC08EE10E94740581E080931A
S11304800E0110920D018093030120910601309119
S11304900701409108015091090160910D0180917B
S11304A00E010E949A0108950E942A0520910601D6
S11304B030910701409108015091090163E080E007
S11304C00E949A0188EE93E00E94E00C809123013F
S11304D08823E1F310922301809102018430C0F457
S11304E020910601309107014091080150910901C2
S11304F062E082E00E949A0162E370E08091600011
S11305000E943E05809102018F5F8093020108954D
S11305102091060130910701409108015091090191
S113052063E080E00E949A0188EB9BE00E94E00C6B
S1130530809123018823E1F3109223011092020198
S113054008958091040181111CC00E942A05209104
S1130550060130910701409108015091090163E0BF
S113056080E00E949A0188EE93E00E94E00C809162
S113057023018823E1F31092230181E08093040195
S1130580089520910601309107014091080150918E
S1130590090161E081E00E949A018EE10E949105C7
S11305A008950E942A0560E080E00E944D0488EDD1
S11305B090E00E943A040895CF93C0E00EC08C2FBF
S11305C090E09C01220F331F220F331F820F931FD1
S11305D081519F4F0E942307CF5FCC2381F3C0E05A
S11305E00EC08C2F90E09C01220F331F220F331F6B
S11305F0820F931F8B519F4F0E942307CF5FC230FE
S113060080F3CF910895CF92DF92EF92FF920F93F0
S11306101F93CF93DF931F92CDB7DEB781E0898319
S113062000E057C0E02EF12CF701EE0FFF1FEE0F94
S1130630FF1FEE0DFF1DEB51FF4F41E0638582E08C
S11306400E944A0610E034C0C12ED12CF601EE0FF0
S1130650FF1FEE0FFF1FEC0DFD1DEB51FF4FAE0111
S11306604F5F5F4F618182E00E94BB0689818111E7
S11306701EC010C0F601EE0FFF1FEE0FFF1FEC0DA2
S1130680FD1DEB51FF4FAE014F5F5F4F618182E073
S11306900E94BB068981882369F3C701880F991FCB
S11306A08B519F4FFC01EC0DFD1D878516C01F5F0C
S11306B0123050F2F701EE0FFF1FEE0FFF1FEE0D89
S11306C0FF1DEB51FF4F40E0638582E00E944A0624
S11306D00F5F002309F4A6CF80E00F90DF91CF9144
S11306E01F910F91FF90EF90DF90CF900895CF93DB
S11306F0C82F60E081E00E948D096C2F661F662779
S1130700661F87E00E948D09C6FB662760F986E0B4
S11307100E948D09C5FB662760F985E00E948D095A
S1130720C4FB662760F984E00E948D0961E083E0E0
S11307300E948D0989EF90E00197F1F700C0000055
S113074060E083E00E948D0989EF90E00197F1F762
S113075000C00000C3FB662760F987E00E948D0992
S1130760C2FB662760F986E00E948D09C1FB6627FB
S113077060F985E00E948D096C2F617084E00E940D
S11307808D0961E083E00E948D0989EF90E0019773
S1130790F1F700C0000060E083E00E948D0989EF5A
S11307A090E00197F1F700C00000CF910895CF9336
S11307B0C82F61E081E00E948D096C2F661F6627B7
S11307C0661F87E00E948D09C6FB662760F986E0F4
S11307D00E948D09C5FB662760F985E00E948D099A
S11307E0C4FB662760F984E00E948D0961E083E020
S11307F00E948D0989EF90E00197F1F700C0000095
S113080060E083E00E948D0989EF90E00197F1F7A1
S113081000C00000C3FB662760F987E00E948D09D1
S1130820C2FB662760F986E00E948D09C1FB66273A
S113083060F985E00E948D096C2F617084E00E944C
S11308408D0961E083E00E948D0989EF90E00197B2
S1130850F1F700C0000060E083E00E948D0989EF99
S113086090E00197F1F700C00000CF9108950E9435
S1130870D70308950F931F93CF938C01C0E003C057
S11308800E943704CF5FF801EC0FF11D80818111C4
S1130890F7CFCF911F910F910895811105C0862F35
S11308A080680E9477030895813021F480EC860FDC
S11308B00E947703089581E00E94770389EF90E016
S11308C00197F1F700C000000895EF92FF921F9383
S11308D0CF93DF93CDB7DEB72A970FB6F894DEBF78
S11308E00FBECDBF7C01009721F480E30E94370442
S11308F02DC0992334F4F194E194F1088DE20E941F
S1130900370410E010C0C7016AE070E00E9457107D
S1130910E1E0F0E0EC0FFD1FE10FF11D805D80834D
S11309201F5FE62EF72EE114F10469F70DC0E12FE5
S1130930F0E0319781E090E08C0F9D1FE80FF91FE4
S113094080810E94370411501111F1CF2A960FB6FD
S1130950F894DEBF0FBECDBFDF91CF911F91FF9002
S1130960EF90089560E081E00E94900860E083E0E9
S11309700E94900860E082E00E94900860E084E0B9
S11309800E94900860E085E00E94900860E086E0A4
S11309900E94900860E087E00E94900808950E94F9
S11309A0B20487EA91E60197F1F700C0000082E003
S11309B00E94770388E20E9477038CE00E94770309
S11309C081E00E94770389EF90E00197F1F700C07E
S11309D0000086E00E9477030895EF92FF921F9330
S11309E0CF93DF930097B9F481E01BC0C12FD0E00F
S11309F0CE01880F991FC80FD91FCE0DDF1D41E00E
S1130A006A8188810E94140A41E06A8189810E9476
S1130A10140A1F5F02C07C0110E0123038F30E94F8
S1130A20FD0BDF91CF911F91FF90EF9008950097F8
S1130A3079F070E0FB01EE0FFF1F6E0F7F1FFC01CA
S1130A40E60FF71F608182810E94EF0680E008951F
S1130A5081E0089541E060E082E00E944A0641E0BE
S1130A6061E082E00E944A060E94F90B08958536EF
S1130A7010F081E008950E94190C089581111AC0A4
S1130A8060E081E690E00E9417058CE692E00E9407
S1130A90E00C82E30E943705809123018823E1F36F
S1130AA00E94F90B1092230160E081E690E00E941D
S1130AB01705089561E081E690E00E9417058CE631
S1130AC092E00E94E00C82E30E94370580912301AA
S1130AD08823E1F30E94F90B1092230161E081E67F
S1130AE090E00E9417050895CF93DF930E94370585
S1130AF0C1E6D0E0688140E08A810E944A066981AB
S1130B0041E08A810E944A066B8140E08D810E9407
S1130B104A066C8141E08D810E944A06DF91CF91A3
S1130B200895CF93DF930E943705C1E6D0E0688132
S1130B3041E08A810E944A06698140E08A810E94DC
S1130B404A066B8141E08D810E944A066C8140E037
S1130B508D810E944A06DF91CF91089562E084E17D
S1130B600E9490080895EF92FF920F931F93CF93E2
S1130B70DF931F92CDB7DEB77B0191E0998390E0BC
S1130B808C01000F111F000F111F000F111F081BF4
S1130B90190B0A501F4FAE014F5F5F4FF80161817F
S1130BA080810E94BB06F801868181110AC0898177
S1130BB0811104C081E0F70180830EC0F701108227
S1130BC00BC0813049F48981811103C0F70110827F
S1130BD003C081E0F70180830F90DF91CF911F91D3
S1130BE00F91FF90EF90089587E690E00E9423070D
S1130BF00E94B90B08950F931F93CF93DF9300D0F6
S1130C00CDB7DEB78C011A82198240E063E081E03F
S1130C100E944A0683EC99E00197F1F700C00000B6
S1130C2041E063E081E00E944A060E94390B809112
S1130C3011018130E1F7CE0101960E94940A698185
S1130C407A8180E090E00E94F20E29E23CE349EED2
S1130C5053E40E944A0E20E030E040E051E40E9458
S1130C60EA0F20E030E040E85FE30E94C20DF801A3
S1130C706083718382839383109211010F900F908C
S1130C80DF91CF911F910F9108950E9451000E940E
S1130C906100FDCF442319F04130A9F1089581305A
S1130CA089F028F08230C9F0833011F108952BB314
S1130CB081E090E002C0880F991F6A95E2F7822BC9
S1130CC08BBB089528B381E090E002C0880F991F80
S1130CD06A95E2F7822B88BB089525B381E090E002
S1130CE002C0880F991F6A95E2F7822B85BB08958D
S1130CF022B381E090E002C0880F991F6A95E2F761
S1130D00822B82BB0895813091F028F08230D9F093
S1130D10833029F108952BB381E090E002C0880F5D
S1130D20991F6A95E2F7809582238BBB089528B3B7
S1130D3081E090E002C0880F991F6A95E2F78095E0
S1130D40822388BB089525B381E090E002C0880F18
S1130D50991F6A95E2F78095822385BB089522B393
S1130D6081E090E002C0880F991F6A95E2F78095B0
S1130D70822382BB0895813089F028F08230C9F043
S1130D80833011F1089589B390E002C09595879559
S1130D906A95E2F78170FA018083089586B390E042
S1130DA002C0959587956A95E2F78170FA01808370
S1130DB0089583B390E002C0959587956A95E2F70C
S1130DC08170FA018083089580B390E002C0959504
S1130DD087956A95E2F78170FA01808308958130DE
S1130DE089F028F08230C9F0833011F108952BB3D3
S1130DF081E090E002C0880F991F6A95E2F782278C
S1130E008BBB089528B381E090E002C0880F991F3E
S1130E106A95E2F7822788BB089525B381E090E0C4
S1130E2002C0880F991F6A95E2F7822785BB08954F
S1130E3022B381E090E002C0880F991F6A95E2F71F
S1130E40822782BB0895FC0182818111B5C0808113
S1130E50813099F028F08230E9F0833041F133C0D9
S1130E602AB381E090E0018002C0880F991F0A94A0
S1130E70E2F7809582238ABB26C027B381E090E005
S1130E80018002C0880F991F0A94E2F7809582239B
S1130E9087BB19C024B381E090E0018002C0880FB1
S1130EA0991F0A94E2F78095822384BB0CC021B376
S1130EB081E090E0018002C0880F991F0A94E2F754
S1130EC08095822381BB83818130C9F58081813003
S1130ED091F028F08230D9F0833029F108952BB3B2
S1130EE081E090E0018002C0880F991F0A94E2F724
S1130EF0822B8BBB089528B381E090E0018002C06F
S1130F00880F991F0A94E2F7822B88BB089525B3B2
S1130F1081E090E0018002C0880F991F0A94E2F7F3
S1130F20822B85BB089522B381E090E0018002C04A
S1130F30880F991F0A94E2F7822B82BB089580815F
S1130F40813099F028F08230E9F0833041F108953E
S1130F502BB381E090E0018002C0880F991F0A94AE
S1130F60E2F7809582238BBB089528B381E090E05B
S1130F70018002C0880F991F0A94E2F780958223AA
S1130F8088BB089525B381E090E0018002C0880FFA
S1130F90991F0A94E2F78095822385BB089522B3B2
S1130FA081E090E0018002C0880F991F0A94E2F763
S1130FB08095822382BB0895813009F0B0C080817E
S1130FC0813091F028F08230D9F0833029F12FC09C
S1130FD02AB381E090E0018002C0880F991F0A942F
S1130FE0E2F7822B8ABB23C027B381E090E0018023
S1130FF002C0880F991F0A94E2F7822B87BB17C09F
S113100024B381E090E0018002C0880F991F0A9404
S1131010E2F7822B84BB0BC021B381E090E0018016
S113102002C0880F991F0A94E2F7822B81BB838147
S1131030811139C08081813091F028F08230D9F05B
S1131040833029F108952BB381E090E0018002C040
S1131050880F991F0A94E2F7822B8BBB089528B35B
S113106081E090E0018002C0880F991F0A94E2F7A2
S1131070822B88BB089525B381E090E0018002C0F3
S1131080880F991F0A94E2F7822B85BB089522B337
S113109081E090E0018002C0880F991F0A94E2F772
S11310A0822B82BB08958081813099F028F08230B0
S11310B0E9F0833041F108952BB381E090E00180A1
S11310C002C0880F991F0A94E2F7809582238BBB94
S11310D0089528B381E090E0018002C0880F991F31
S11310E00A94E2F78095822388BB089525B381E0B2
S11310F090E0018002C0880F991F0A94E2F780955E
S1131100822385BB089522B381E090E0018002C070
S1131110880F991F0A94E2F78095822382BB089571
S1131120982F9695969596958770613009F455C0D9
S113113020F0623009F4A1C008959130C1F028F084
S1131140923039F19330B9F108954AB321E030E097
S1131150B90102C0660F771F8A95E2F7CB01942F7D
S1131160982B9ABB9BB3809589238BBB089547B377
S113117021E030E0B90102C0660F771F8A95E2F7DB
S1131180CB01942F982B97BB98B38095892388BB68
S1131190089544B321E030E0B90102C0660F771F1F
S11311A08A95E2F7CB01942F982B94BB95B3809545
S11311B0892385BB089541B321E030E0B90102C021
S11311C0660F771F8A95E2F7CB01942F982B91BB7A
S11311D092B38095892382BB08959130C1F028F0A1
S11311E0923039F19330B9F108954AB321E030E0F7
S11311F0B90102C0660F771F8A95E2F7CB0180958B
S1131200942F98239ABB9BB389238BBB089547B330
S113121021E030E0B90102C0660F771F8A95E2F73A
S1131220CB018095942F982397BB98B3892388BBCF
S1131230089544B321E030E0B90102C0660F771F7E
S11312408A95E2F7CB018095942F982394BB95B3AC
S1131250892385BB089541B321E030E0B90102C080
S1131260660F771F8A95E2F7CB018095942F982318
S113127091BB92B3892382BB08959130C1F028F0C9
S1131280923039F19330B9F108954AB321E030E056
S1131290B90102C0660F771F8A95E2F7CB01962F3A
S11312A0909594239ABB9BB3892B8BBB089547B32A
S11312B021E030E0B90102C0660F771F8A95E2F79A
S11312C0CB01962F9095942397BB98B3892B88BB19
S11312D0089544B321E030E0B90102C0660F771FDE
S11312E08A95E2F7CB01962F9095942394BB95B3FE
S11312F0892B85BB089541B321E030E0B90102C0D8
S1131300660F771F8A95E2F7CB01962F9095942369
S113131091BB92B3892B82BB0895982F969596958D
S113132096958770662309F43FC0613009F07BC04D
S1131330913099F028F09230E9F0933041F108951A
S11313404BB321E030E0B90102C0660F771F8A95E4
S1131350E2F7CB01842B8BBB089548B321E030E046
S1131360B90102C0660F771F8A95E2F7CB01842B7F
S113137088BB089545B321E030E0B90102C0660F8F
S1131380771F8A95E2F7CB01842B85BB089542B37E
S113139021E030E0B90102C0660F771F8A95E2F7B9
S11313A0CB01842B82BB08959130A1F028F09230B8
S11313B0F9F0933059F108954BB321E030E0B901CD
S11313C002C0660F771F8A95E2F7CB0180958423CC
S11313D08BBB089548B321E030E0B90102C0660F29
S11313E0771F8A95E2F7CB018095842388BB089503
S11313F045B321E030E0B90102C0660F771F8A953A
S1131400E2F7CB018095842385BB089542B321E0A4
S113141030E0B90102C0660F771F8A95E2F7CB016D
S11314208095842382BB0895411140C06130A1F0AE
S113143028F06230F9F0633059F108954AB321E09D
S113144030E0B90102C0660F771F8A95E2F7CB013D
S1131450809584238ABB089547B321E030E0B90125
S113146002C0660F771F8A95E2F7CB01809584232B
S113147087BB089544B321E030E0B90102C0660F90
S1131480771F8A95E2F7CB018095842384BB089566
S113149041B321E030E0B90102C0660F771F8A959D
S11314A0E2F7CB018095842381BB08954130D9F5BF
S11314B0613099F028F06230E9F0633041F1089529
S11314C04AB321E030E0B90102C0660F771F8A9564
S11314D0E2F7CB01842B8ABB089547B321E030E0C7
S11314E0B90102C0660F771F8A95E2F7CB01842BFE
S11314F087BB089544B321E030E0B90102C0660F10
S1131500771F8A95E2F7CB01842B84BB089541B3FE
S113151021E030E0B90102C0660F771F8A95E2F737
S1131520CB01842B81BB089520910F0130911001D0
S1131530FC013183208308958FB780688FBF8BB7F8
S113154080628BBF623019F0633029F0089584B74C
S11315508F7B84BF089584B7806484BF08958823F3
S113156019F08130D9F02EC08FB58E7F8FBD8FB525
S11315708D7F8FBD8EB5877F8EBD8EB58F7E8EBDE0
S11315808FB588608FBD8FB584608FBD8FB780683D
S11315908FBF89B7846089BF80E008958FB58E7F3F
S11315A08FBD8FB58D7F8FBD8EB5877F8EBD8EB578
S11315B08F7E8EBD8FB588608FBD8FB584608FBDE3
S11315C080E0089581E008958034910529F130F494
S11315D08130910559F00897A1F03FC0811521E0B1
S11315E0920729F18115944069F137C08EB58D7F3A
S11315F08EBD8EB58B7F8EBD8EB581608EBD80E035
S113160008958EB58E7F8EBD8EB58B7F8EBD8EB5C3
S113161082608EBD80E008958EB58B7F8EBD8EB5C1
S113162082608EBD8EB581608EBD80E008958EB5DA
S11316308D7F8EBD8EB58E7F8EBD8EB584608EBD42
S113164080E008958EB58D7F8EBD8EB584608EBD8D
S11316508EB581608EBD80E0089581E008958EB5D9
S11316608E7F8EBD8EB58D7F8EBD8EB58B7F8EBDEC
S11316700895CF93DF93C1E7D0E08B810E94AF0A36
S11316800E942F0B698188810E949C0A1092240178
S113169081E090E00E94E40ADF91CF9108951F92C7
S11316A00F920FB60F9211242F933F934F935F9392
S11316B06F937F938F939F93AF93BF93EF93FF9316
S11316C08CB59DB590931901809318012091240144
S11316D0211114C090931501809314011DBC1CBCEE
S11316E0E1E7F0E0628180810E949C0A1092170178
S11316F01092160181E08093240113C0909313018A
S1131700809312012091160130911701821B930BD3
S11317109093100180930F010E942F0B81E080931E
S11317201101FF91EF91BF91AF919F918F917F91A3
S11317306F915F914F913F912F910F900FBE0F903A
S11317401F9018951F920F920FB60F9211248F932A
S11317509F93809116019091170101969093170120
S1131760809316019F918F910F900FBE0F901F9041
S113177018958FB780688FBF0895CF9380911A0111
S1131780882361F0C0E01EC0EC2FF0E0E350FF4F6F
S113179060E080810E948D09CF5F01C0C0E0C2304B
S11317A098F380911B01819582BF81E080931A0197
S11317B011C0EC2FF0E0E350FF4F61E080810E9404
S11317C08D09CF5FC230A8F380911C01819582BF3F
S11317D010921A01CF91089583B7877B83BF89B78D
S11317E0816089BF7894089583B7887F856083BFBB
S11317F0089583B7887F83BF08950F931F93CF9372
S1131800C0E00FC00C2F10E003501F4F60E0F80140
S113181080810E94900861E0F80180810E948D0916
S1131820CF5FC23078F30E94EC0BCF911F910F91E0
S11318300895CF93DF93E82FF0E0982FC4E6D0E02B
S113184080E0BE010E945710262F60931C01CE0138
S11318508E1B9F0B982F80E0BE010E94571060934F
S11318601B01219522BF0E94F40BDF91CF910895B3
S11318701F920F920FB60F9211242F933F934F9301
S11318805F936F937F938F939F93AF93BF93EF93E4
S1131890FF930E94BD0BFF91EF91BF91AF919F9178
S11318A08F917F916F915F914F913F912F910F9005
S11318B00FBE0F901F901895882319F0813079F08E
S11318C016C085B58F7B85BD85B5877F85BD8FB7F0
S11318D080688FBF89B7806489BF80E0089585B52B
S11318E08F7B85BD85B5877F85BD80E0089581E0C8
S11318F0089580349105C1F150F48830910501F1C7
S11319008032910541F1019709F058C00EC081154C
S113191021E09207E9F1811524E0920709F443C01C
S11319208038910509F04AC028C085B58D7F85BDF2
S113193085B58B7F85BD85B5816085BD80E00895C3
S113194085B58E7F85BD85B58B7F85BD85B5826068
S113195085BD80E0089585B58B7F85BD85B58260A2
S113196085BD85B5816085BD85B5846085BD85B53A
S11319708D7F85BD85B58E7F85BD85B58B7F85BD06
S113198085B58D7F85BD85B5816085BD80E0089571
S113199085B5826085BD85B58E7F85BD85B584603E
S11319A085BD80E0089585B5826085BD85B5846078
S11319B085BD85B5816085BD80E0089581E0089589
S11319C0CF92DF92EF92FF92BC0180E090E00E9400
S11319D0F20E20E030E04AE754E40E944A0E6B0124
S11319E07C0127E337E346E856E40E94E50F181626
S11319F00CF47CC015BC2DEB37E346E85EE3C7016D
S1131A00B6010E94450E8823C4F4A70196016DEB2C
S1131A1077E386E89EE30E94C10D2DEB37E346E8A9
S1131A205AE30E944A0E0E94C30E64BD81E090E016
S1131A309093200180931F014FC02DEB37E346E8BC
S1131A405EE3C701B6010E94450E811108C014BCB3
S1131A5081E090E09093200180931F013DC02DEB25
S1131A6037E346E85EE3C701B6010E944A0E0E94CE
S1131A702E0E0E94C30E7093200160931F0180E01C
S1131A8090E00E94F20E20E030E040E85FE30E9424
S1131A90C10D2DEB37E346E85EE30E94EA0F9B019C
S1131AA0AC01C701B6010E94C10D2DEB37E346E836
S1131AB05AE30E944A0E9B01AC0160E070E080E8AA
S1131AC093E40E94C10D0E94C30E64BD84B590E0EE
S1131AD090931E0180931D01109222011092210106
S1131AE080E094E00E94790C80E001C081E0FF90E6
S1131AF0EF90DF90CF90089585B58E7F85BD85B535
S1131B008D7F85BD85B58B7F85BD08951F920F920E
S1131B100FB60F9211242F933F934F935F936F93BC
S1131B207F938F939F93AF93BF93EF93FF93809192
S1131B302101909122010196909322018093210129
S1131B4020911F01309120018217930748F01092D1
S1131B5022011092210181E0809323010E947C0DD7
S1131B60FF91EF91BF91AF919F918F917F916F9171
S1131B705F914F913F912F910F900FBE0F901F9047
S1131B8018955058BB27AA270E94D90D0C94930F7F
S1131B900E94850F38F00E948C0F20F039F49F3F8B
S1131BA019F426F40C94820F0EF4E095E7FB0C94E0
S1131BB0530FE92F0E94A40F58F3BA176207730753
S1131BC08407950720F079F4A6F50C94DE0F0EF443
S1131BD0E0950B2EBA2FA02D0B01B90190010C0139
S1131BE0CA01A0011124FF27591B99F0593F50F451
S1131BF0503E68F11A16F040A22F232F342F4427A9
S1131C00585FF3CF469537952795A795F0405395A0
S1131C10C9F77EF41F16BA0B620B730B840BBAF070
S1131C209150A1F0FF0FBB1F661F771F881FC2F7DB
S1131C300EC0BA0F621F731F841F48F487957795EF
S1131C406795B795F7959E3F08F0B0CF9395880FA9
S1131C5008F09927EE0F9795879508950E94C60F6F
S1131C6090F09F3748F4911116F40C94DF0F60E064
S1131C7070E080E89FE3089526F01B16611D711D36
S1131C80811D0C94590F0C94740F0E942F0F08F4AB
S1131C9081E008950E945E0E0C94930F0E948C0FB5
S1131CA058F00E94850F40F029F45F3F29F00C940E
S1131CB0530F51110C94DF0F0C94820F0E94A40F48
S1131CC068F39923B1F3552391F3951B550BBB2767
S1131CD0AA2762177307840738F09F5F5F4F220FAC
S1131CE0331F441FAA1FA9F335D00E2E3AF0E0E8A3
S1131CF032D091505040E695001CCAF72BD0FE2FED
S1131D0029D0660F771F881FBB1F26173707480780
S1131D10AB07B0E809F0BB0B802DBF01FF27935838
S1131D205F4F3AF09E3F510578F00C94530F0C949A
S1131D30DF0F5F3FE4F3983ED4F38695779567957C
S1131D40B795F7959F5FC9F7880F911D969587956D
S1131D5097F90895E1E0660F771F881FBB1F62178C
S1131D6073078407BA0720F0621B730B840BBA0B4A
S1131D70EE1F88F7E09508950E94C30E6894B11190
S1131D800C94DF0F08950E94AC0F88F09F5798F0D1
S1131D90B92F9927B751B0F0E1F0660F771F881F6C
S1131DA0991F1AF0BA95C9F714C0B13091F00E9486
S1131DB0DE0FB1E008950C94DE0F672F782F88278B
S1131DC0B85F39F0B93FCCF3869577956795B395AD
S1131DD0D9F73EF490958095709561957F4F8F4F1C
S1131DE09F4F0895E89409C097FB3EF49095809521
S1131DF0709561957F4F8F4F9F4F9923A9F0F92FCD
S1131E0096E9BB279395F695879577956795B7954A
S1131E10F111F8CFFAF4BB0F11F460FF1BC06F5F30
S1131E207F4F8F4F9F4F16C0882311F096E911C042
S1131E30772321F09EE8872F762F05C0662371F063
S1131E4096E8862F70E060E02AF09A95660F771F77
S1131E50881FDAF7880F9695879597F90895990F53
S1131E600008550FAA0BE0E8FEEF16161706E80760
S1131E70F907C0F012161306E407F50798F0621B81
S1131E80730B840B950B39F40A2661F0232B242B56
S1131E90252B21F408950A2609F4A140A6958FEF75
S1131EA0811D811D089597F99F6780E870E060E0C7
S1131EB00895882371F4772321F09850872B762F87
S1131EC007C0662311F499270DC09051862B70E04A
S1131ED060E02AF09A95660F771F881FDAF7880F5B
S1131EE09695879597F908959F3F31F0915020F486
S1131EF0879577956795B795880F911D96958795E2
S1131F0097F908959FEF80EC089500240A9416161B
S1131F10170618060906089500240A9412161306D3
S1131F20140605060895092E0394000C11F4882361
S1131F3052F0BB0F40F4BF2B11F460FF04C06F5F7D
S1131F407F4F8F4F9F4F089557FD9058440F551F53
S1131F5059F05F3F71F04795880F97FB991F61F027
S1131F609F3F79F087950895121613061406551F9E
S1131F70F2CF4695F1DF08C0161617061806991F0A
S1131F80F1CF869571056105089408950E94AC0F00
S1131F90A0F0BEE7B91788F4BB279F3860F4161683
S1131FA0B11D672F782F8827985FF7CF869577958F
S1131FB06795B11D93959639C8F30895E894BB27A6
S1131FC066277727CB0197F908950E942F0F08F40D
S1131FD08FEF08950E94FD0F0C94930F0E94850FBC
S1131FE038F00E948C0F20F0952311F00C94530FBD
S1131FF00C94820F11240C94DF0F0E94A40F70F331
S1132000959FC1F3950F50E0551F629FF001729F99
S1132010BB27F00DB11D639FAA27F00DB11DAA1FA8
S1132020649F6627B00DA11D661F829F2227B00DF5
S1132030A11D621F739FB00DA11D621F839FA00D80
S1132040611D221F749F3327A00D611D231F849FD0
S1132050600D211D822F762F6A2F11249F57504027
S11320609AF0F1F088234AF0EE0FFF1FBB1F661FA2
S1132070771F881F91505040A9F79E3F510580F06B
S11320800C94530F0C94DF0F5F3FE4F3983ED4F3AA
S1132090869577956795B795F795E7959F5FC1F70F
S11320A0FE2B880F911D9695879597F9089597FBB8
S11320B0072E16F4009407D077FD09D00E94711002
S11320C007FC05D03EF4909581959F4F0895709537
S11320D061957F4F0895EE0FFF1F0590F491E02D59
S11320E00994AA1BBB1B51E107C0AA1FBB1FA6175B
S11320F0B70710F0A61BB70B881F991F5A95A9F7AD
S111210080959095BC01CD010895F894FFCF11
S113210E010203030607030103010100000000009E
S113211E00020302015072657373204B65792031FE
S113212E00746F2073746172740053657420446577
S113213E662E20526F742E005269676874004C65C7
S113214E6674200052696768742000537065656474
S113215E3A0030302520003330252000353025203C
S113216E004469723A00460042005200530044692A
S113217E73743A0020436D00524F424F542053540F
S113218E4F50454400020500010002060001000202
S113219E020100000102020400000101001C1D00E6
S9030000FC
